{
  "contracts/CondominiumAdapter.sol": {
    "CondominiumAdapter": {
      "abi": [
        {
          "inputs": [],
          "stateMutability": "nonpayable",
          "type": "constructor"
        },
        {
          "anonymous": false,
          "inputs": [
            {
              "indexed": false,
              "internalType": "address",
              "name": "manager",
              "type": "address"
            }
          ],
          "name": "ManagerChanged",
          "type": "event"
        },
        {
          "anonymous": false,
          "inputs": [
            {
              "indexed": false,
              "internalType": "uint256",
              "name": "amount",
              "type": "uint256"
            }
          ],
          "name": "QuotaChanged",
          "type": "event"
        },
        {
          "anonymous": false,
          "inputs": [
            {
              "indexed": true,
              "internalType": "bytes32",
              "name": "TopicId",
              "type": "bytes32"
            },
            {
              "indexed": false,
              "internalType": "string",
              "name": "title",
              "type": "string"
            },
            {
              "indexed": true,
              "internalType": "enum CondominiumLib.Status",
              "name": "status",
              "type": "uint8"
            }
          ],
          "name": "TopicChanged",
          "type": "event"
        },
        {
          "anonymous": false,
          "inputs": [
            {
              "indexed": false,
              "internalType": "address",
              "name": "to",
              "type": "address"
            },
            {
              "indexed": true,
              "internalType": "uint256",
              "name": "amount",
              "type": "uint256"
            },
            {
              "indexed": false,
              "internalType": "string",
              "name": "topic",
              "type": "string"
            }
          ],
          "name": "Transfer",
          "type": "event"
        },
        {
          "inputs": [
            {
              "internalType": "address",
              "name": "resident",
              "type": "address"
            },
            {
              "internalType": "uint16",
              "name": "residenceId",
              "type": "uint16"
            }
          ],
          "name": "addResident",
          "outputs": [],
          "stateMutability": "nonpayable",
          "type": "function"
        },
        {
          "inputs": [
            {
              "internalType": "string",
              "name": "title",
              "type": "string"
            },
            {
              "internalType": "string",
              "name": "description",
              "type": "string"
            },
            {
              "internalType": "enum CondominiumLib.Category",
              "name": "category",
              "type": "uint8"
            },
            {
              "internalType": "uint256",
              "name": "amount",
              "type": "uint256"
            },
            {
              "internalType": "address",
              "name": "responsible",
              "type": "address"
            }
          ],
          "name": "addTopic",
          "outputs": [],
          "stateMutability": "nonpayable",
          "type": "function"
        },
        {
          "inputs": [
            {
              "internalType": "string",
              "name": "title",
              "type": "string"
            }
          ],
          "name": "closeVoting",
          "outputs": [],
          "stateMutability": "nonpayable",
          "type": "function"
        },
        {
          "inputs": [
            {
              "internalType": "string",
              "name": "topicToEdit",
              "type": "string"
            },
            {
              "internalType": "string",
              "name": "description",
              "type": "string"
            },
            {
              "internalType": "uint256",
              "name": "amount",
              "type": "uint256"
            },
            {
              "internalType": "address",
              "name": "responsible",
              "type": "address"
            }
          ],
          "name": "editTopic",
          "outputs": [],
          "stateMutability": "nonpayable",
          "type": "function"
        },
        {
          "inputs": [],
          "name": "getImplementAddress",
          "outputs": [
            {
              "internalType": "address",
              "name": "",
              "type": "address"
            }
          ],
          "stateMutability": "view",
          "type": "function"
        },
        {
          "inputs": [
            {
              "internalType": "string",
              "name": "title",
              "type": "string"
            }
          ],
          "name": "openVoting",
          "outputs": [],
          "stateMutability": "nonpayable",
          "type": "function"
        },
        {
          "inputs": [],
          "name": "owner",
          "outputs": [
            {
              "internalType": "address",
              "name": "",
              "type": "address"
            }
          ],
          "stateMutability": "view",
          "type": "function"
        },
        {
          "inputs": [
            {
              "internalType": "uint16",
              "name": "residenceId",
              "type": "uint16"
            }
          ],
          "name": "payQuota",
          "outputs": [],
          "stateMutability": "payable",
          "type": "function"
        },
        {
          "inputs": [
            {
              "internalType": "address",
              "name": "resident",
              "type": "address"
            }
          ],
          "name": "removeResident",
          "outputs": [],
          "stateMutability": "nonpayable",
          "type": "function"
        },
        {
          "inputs": [
            {
              "internalType": "string",
              "name": "title",
              "type": "string"
            }
          ],
          "name": "removeTopic",
          "outputs": [],
          "stateMutability": "nonpayable",
          "type": "function"
        },
        {
          "inputs": [
            {
              "internalType": "address",
              "name": "resident",
              "type": "address"
            },
            {
              "internalType": "bool",
              "name": "isEntering",
              "type": "bool"
            }
          ],
          "name": "setConsuelor",
          "outputs": [],
          "stateMutability": "nonpayable",
          "type": "function"
        },
        {
          "inputs": [
            {
              "internalType": "string",
              "name": "topicTitle",
              "type": "string"
            },
            {
              "internalType": "uint256",
              "name": "amount",
              "type": "uint256"
            }
          ],
          "name": "transfer",
          "outputs": [],
          "stateMutability": "nonpayable",
          "type": "function"
        },
        {
          "inputs": [
            {
              "internalType": "address",
              "name": "newImplementation",
              "type": "address"
            }
          ],
          "name": "upgrade",
          "outputs": [],
          "stateMutability": "nonpayable",
          "type": "function"
        },
        {
          "inputs": [
            {
              "internalType": "string",
              "name": "title",
              "type": "string"
            },
            {
              "internalType": "enum CondominiumLib.Options",
              "name": "option",
              "type": "uint8"
            }
          ],
          "name": "vote",
          "outputs": [],
          "stateMutability": "nonpayable",
          "type": "function"
        }
      ],
      "evm": {
        "bytecode": {
          "linkReferences": {},
          "object": "60a0604052348015600f57600080fd5b503373ffffffffffffffffffffffffffffffffffffffff1660808173ffffffffffffffffffffffffffffffffffffffff168152505060805161226161006660003960008181610319015261096b01526122616000f3fe6080604052600436106100dd5760003560e01c80638fc5dad81161007f578063b158354611610059578063b158354614610280578063b7f59c99146102a9578063c12e8063146102d2578063eaf5d9dc146102ee576100dd565b80638fc5dad81461020557806390ca27f31461022e5780639e1bf98514610257576100dd565b806343b8c6b1116100bb57806343b8c6b11461015f578063597de987146101885780637b57ee49146101b15780638da5cb5b146101da576100dd565b80630900f010146100e257806310b2b9811461010b57806312cb70c714610136575b600080fd5b3480156100ee57600080fd5b5061010960048036038101906101049190611557565b610317565b005b34801561011757600080fd5b506101206103e8565b60405161012d9190611593565b60405180910390f35b34801561014257600080fd5b5061015d6004803603810190610158919061172a565b610411565b005b34801561016b57600080fd5b50610186600480360381019061018191906117ab565b610593565b005b34801561019457600080fd5b506101af60048036038101906101aa9190611557565b6106bc565b005b3480156101bd57600080fd5b506101d860048036038101906101d3919061185e565b6107d9565b005b3480156101e657600080fd5b506101ef610969565b6040516101fc9190611593565b60405180910390f35b34801561021157600080fd5b5061022c6004803603810190610227919061185e565b61098d565b005b34801561023a57600080fd5b50610255600480360381019061025091906118cc565b610d3e565b005b34801561026357600080fd5b5061027e6004803603810190610279919061185e565b610e5e565b005b34801561028c57600080fd5b506102a760048036038101906102a29190611962565b610fee565b005b3480156102b557600080fd5b506102d060048036038101906102cb91906119da565b61110e565b005b6102ec60048036038101906102e79190611a1a565b61122e565b005b3480156102fa57600080fd5b5061031560048036038101906103109190611a47565b61134c565b005b7f000000000000000000000000000000000000000000000000000000000000000073ffffffffffffffffffffffffffffffffffffffff163373ffffffffffffffffffffffffffffffffffffffff16146103a5576040517f08c379a000000000000000000000000000000000000000000000000000000000815260040161039c90611b43565b60405180910390fd5b806000806101000a81548173ffffffffffffffffffffffffffffffffffffffff021916908373ffffffffffffffffffffffffffffffffffffffff16021790555050565b60008060009054906101000a900473ffffffffffffffffffffffffffffffffffffffff16905090565b600073ffffffffffffffffffffffffffffffffffffffff1660008054906101000a900473ffffffffffffffffffffffffffffffffffffffff1673ffffffffffffffffffffffffffffffffffffffff16036104a0576040517f08c379a000000000000000000000000000000000000000000000000000000000815260040161049790611baf565b60405180910390fd5b60008060009054906101000a900473ffffffffffffffffffffffffffffffffffffffff1673ffffffffffffffffffffffffffffffffffffffff166312cb70c784846040518363ffffffff1660e01b81526004016104fe929190611c4c565b6000604051808303816000875af115801561051d573d6000803e3d6000fd5b505050506040513d6000823e3d601f19601f820116820180604052508101906105469190611da0565b905080602001517feb10b79f28ae0b520cb7ee8e40115f547bfac852d7167a55d9ae8e028ee23a1182600001518360400151604051610586929190611de9565b60405180910390a2505050565b600073ffffffffffffffffffffffffffffffffffffffff1660008054906101000a900473ffffffffffffffffffffffffffffffffffffffff1673ffffffffffffffffffffffffffffffffffffffff1603610622576040517f08c379a000000000000000000000000000000000000000000000000000000000815260040161061990611baf565b60405180910390fd5b60008054906101000a900473ffffffffffffffffffffffffffffffffffffffff1673ffffffffffffffffffffffffffffffffffffffff166343b8c6b186868686866040518663ffffffff1660e01b8152600401610683959493929190611e90565b600060405180830381600087803b15801561069d57600080fd5b505af11580156106b1573d6000803e3d6000fd5b505050505050505050565b600073ffffffffffffffffffffffffffffffffffffffff1660008054906101000a900473ffffffffffffffffffffffffffffffffffffffff1673ffffffffffffffffffffffffffffffffffffffff160361074b576040517f08c379a000000000000000000000000000000000000000000000000000000000815260040161074290611baf565b60405180910390fd5b60008054906101000a900473ffffffffffffffffffffffffffffffffffffffff1673ffffffffffffffffffffffffffffffffffffffff1663597de987826040518263ffffffff1660e01b81526004016107a49190611593565b600060405180830381600087803b1580156107be57600080fd5b505af11580156107d2573d6000803e3d6000fd5b5050505050565b600073ffffffffffffffffffffffffffffffffffffffff1660008054906101000a900473ffffffffffffffffffffffffffffffffffffffff1673ffffffffffffffffffffffffffffffffffffffff1603610868576040517f08c379a000000000000000000000000000000000000000000000000000000000815260040161085f90611baf565b60405180910390fd5b60008060009054906101000a900473ffffffffffffffffffffffffffffffffffffffff1673ffffffffffffffffffffffffffffffffffffffff16637b57ee49836040518263ffffffff1660e01b81526004016108c49190611ef1565b6000604051808303816000875af11580156108e3573d6000803e3d6000fd5b505050506040513d6000823e3d601f19601f8201168201806040525081019061090c9190612017565b90508060400151600581111561092557610924611e19565b5b81600001517fefe93f21a3369f1228a2589883bc377a76d7335daddc712853688de4617f82ab836020015160405161095d9190611ef1565b60405180910390a35050565b7f000000000000000000000000000000000000000000000000000000000000000081565b600073ffffffffffffffffffffffffffffffffffffffff1660008054906101000a900473ffffffffffffffffffffffffffffffffffffffff1673ffffffffffffffffffffffffffffffffffffffff1603610a1c576040517f08c379a0000000000000000000000000000000000000000000000000000000008152600401610a1390611baf565b60405180910390fd5b60008060009054906101000a900473ffffffffffffffffffffffffffffffffffffffff1673ffffffffffffffffffffffffffffffffffffffff16638fc5dad8836040518263ffffffff1660e01b8152600401610a789190611ef1565b6000604051808303816000875af1158015610a97573d6000803e3d6000fd5b505050506040513d6000823e3d601f19601f82011682018060405250810190610ac09190612017565b905080604001516005811115610ad957610ad8611e19565b5b81600001517fefe93f21a3369f1228a2589883bc377a76d7335daddc712853688de4617f82ab8360200151604051610b119190611ef1565b60405180910390a360026005811115610b2d57610b2c611e19565b5b81604001516005811115610b4457610b43611e19565b5b03610d3a57600380811115610b5c57610b5b611e19565b5b81606001516003811115610b7357610b72611e19565b5b03610c42577f198db6e425fb8aafd1823c6ca50be2d51e5764571a5ae0f0f21c6812e45def0b60008054906101000a900473ffffffffffffffffffffffffffffffffffffffff1673ffffffffffffffffffffffffffffffffffffffff1663d50095846040518163ffffffff1660e01b8152600401602060405180830381865afa158015610c04573d6000803e3d6000fd5b505050506040513d601f19601f82011682018060405250810190610c289190612060565b604051610c359190611593565b60405180910390a1610d39565b60026003811115610c5657610c55611e19565b5b81606001516003811115610c6d57610c6c611e19565b5b03610d38577f274a3b0d5142ec9fc4e77bd3ffc173b4e7c6c64eca73b31a6c6906b184257e7e60008054906101000a900473ffffffffffffffffffffffffffffffffffffffff1673ffffffffffffffffffffffffffffffffffffffff16631df8ba776040518163ffffffff1660e01b8152600401602060405180830381865afa158015610cfe573d6000803e3d6000fd5b505050506040513d601f19601f82011682018060405250810190610d22919061208d565b604051610d2f91906120ba565b60405180910390a15b5b5b5050565b600073ffffffffffffffffffffffffffffffffffffffff1660008054906101000a900473ffffffffffffffffffffffffffffffffffffffff1673ffffffffffffffffffffffffffffffffffffffff1603610dcd576040517f08c379a0000000000000000000000000000000000000000000000000000000008152600401610dc490611baf565b60405180910390fd5b60008054906101000a900473ffffffffffffffffffffffffffffffffffffffff1673ffffffffffffffffffffffffffffffffffffffff166390ca27f383836040518363ffffffff1660e01b8152600401610e2892919061211d565b600060405180830381600087803b158015610e4257600080fd5b505af1158015610e56573d6000803e3d6000fd5b505050505050565b600073ffffffffffffffffffffffffffffffffffffffff1660008054906101000a900473ffffffffffffffffffffffffffffffffffffffff1673ffffffffffffffffffffffffffffffffffffffff1603610eed576040517f08c379a0000000000000000000000000000000000000000000000000000000008152600401610ee490611baf565b60405180910390fd5b60008060009054906101000a900473ffffffffffffffffffffffffffffffffffffffff1673ffffffffffffffffffffffffffffffffffffffff16639e1bf985836040518263ffffffff1660e01b8152600401610f499190611ef1565b6000604051808303816000875af1158015610f68573d6000803e3d6000fd5b505050506040513d6000823e3d601f19601f82011682018060405250810190610f919190612017565b905080604001516005811115610faa57610fa9611e19565b5b81600001517fefe93f21a3369f1228a2589883bc377a76d7335daddc712853688de4617f82ab8360200151604051610fe29190611ef1565b60405180910390a35050565b600073ffffffffffffffffffffffffffffffffffffffff1660008054906101000a900473ffffffffffffffffffffffffffffffffffffffff1673ffffffffffffffffffffffffffffffffffffffff160361107d576040517f08c379a000000000000000000000000000000000000000000000000000000000815260040161107490611baf565b60405180910390fd5b60008054906101000a900473ffffffffffffffffffffffffffffffffffffffff1673ffffffffffffffffffffffffffffffffffffffff1663b158354683836040518363ffffffff1660e01b81526004016110d892919061215c565b600060405180830381600087803b1580156110f257600080fd5b505af1158015611106573d6000803e3d6000fd5b505050505050565b600073ffffffffffffffffffffffffffffffffffffffff1660008054906101000a900473ffffffffffffffffffffffffffffffffffffffff1673ffffffffffffffffffffffffffffffffffffffff160361119d576040517f08c379a000000000000000000000000000000000000000000000000000000000815260040161119490611baf565b60405180910390fd5b60008054906101000a900473ffffffffffffffffffffffffffffffffffffffff1673ffffffffffffffffffffffffffffffffffffffff1663b7f59c9983836040518363ffffffff1660e01b81526004016111f8929190612194565b600060405180830381600087803b15801561121257600080fd5b505af1158015611226573d6000803e3d6000fd5b505050505050565b600073ffffffffffffffffffffffffffffffffffffffff1660008054906101000a900473ffffffffffffffffffffffffffffffffffffffff1673ffffffffffffffffffffffffffffffffffffffff16036112bd576040517f08c379a00000000000000000000000000000000000000000000000000000000081526004016112b490611baf565b60405180910390fd5b60008054906101000a900473ffffffffffffffffffffffffffffffffffffffff1673ffffffffffffffffffffffffffffffffffffffff1663c12e806334836040518363ffffffff1660e01b815260040161131791906121bd565b6000604051808303818588803b15801561133057600080fd5b505af1158015611344573d6000803e3d6000fd5b505050505050565b600073ffffffffffffffffffffffffffffffffffffffff1660008054906101000a900473ffffffffffffffffffffffffffffffffffffffff1673ffffffffffffffffffffffffffffffffffffffff16036113db576040517f08c379a00000000000000000000000000000000000000000000000000000000081526004016113d290611baf565b60405180910390fd5b60008060009054906101000a900473ffffffffffffffffffffffffffffffffffffffff1673ffffffffffffffffffffffffffffffffffffffff1663eaf5d9dc868686866040518563ffffffff1660e01b815260040161143d94939291906121d8565b6000604051808303816000875af115801561145c573d6000803e3d6000fd5b505050506040513d6000823e3d601f19601f820116820180604052508101906114859190612017565b90508060400151600581111561149e5761149d611e19565b5b81600001517fefe93f21a3369f1228a2589883bc377a76d7335daddc712853688de4617f82ab83602001516040516114d69190611ef1565b60405180910390a35050505050565b6000604051905090565b600080fd5b600080fd5b600073ffffffffffffffffffffffffffffffffffffffff82169050919050565b6000611524826114f9565b9050919050565b61153481611519565b811461153f57600080fd5b50565b6000813590506115518161152b565b92915050565b60006020828403121561156d5761156c6114ef565b5b600061157b84828501611542565b91505092915050565b61158d81611519565b82525050565b60006020820190506115a86000830184611584565b92915050565b600080fd5b600080fd5b6000601f19601f8301169050919050565b7f4e487b7100000000000000000000000000000000000000000000000000000000600052604160045260246000fd5b611601826115b8565b810181811067ffffffffffffffff821117156116205761161f6115c9565b5b80604052505050565b60006116336114e5565b905061163f82826115f8565b919050565b600067ffffffffffffffff82111561165f5761165e6115c9565b5b611668826115b8565b9050602081019050919050565b82818337600083830152505050565b600061169761169284611644565b611629565b9050828152602081018484840111156116b3576116b26115b3565b5b6116be848285611675565b509392505050565b600082601f8301126116db576116da6115ae565b5b81356116eb848260208601611684565b91505092915050565b6000819050919050565b611707816116f4565b811461171257600080fd5b50565b600081359050611724816116fe565b92915050565b60008060408385031215611741576117406114ef565b5b600083013567ffffffffffffffff81111561175f5761175e6114f4565b5b61176b858286016116c6565b925050602061177c85828601611715565b9150509250929050565b6004811061179357600080fd5b50565b6000813590506117a581611786565b92915050565b600080600080600060a086880312156117c7576117c66114ef565b5b600086013567ffffffffffffffff8111156117e5576117e46114f4565b5b6117f1888289016116c6565b955050602086013567ffffffffffffffff811115611812576118116114f4565b5b61181e888289016116c6565b945050604061182f88828901611796565b935050606061184088828901611715565b925050608061185188828901611542565b9150509295509295909350565b600060208284031215611874576118736114ef565b5b600082013567ffffffffffffffff811115611892576118916114f4565b5b61189e848285016116c6565b91505092915050565b600481106118b457600080fd5b50565b6000813590506118c6816118a7565b92915050565b600080604083850312156118e3576118e26114ef565b5b600083013567ffffffffffffffff811115611901576119006114f4565b5b61190d858286016116c6565b925050602061191e858286016118b7565b9150509250929050565b600061ffff82169050919050565b61193f81611928565b811461194a57600080fd5b50565b60008135905061195c81611936565b92915050565b60008060408385031215611979576119786114ef565b5b600061198785828601611542565b92505060206119988582860161194d565b9150509250929050565b60008115159050919050565b6119b7816119a2565b81146119c257600080fd5b50565b6000813590506119d4816119ae565b92915050565b600080604083850312156119f1576119f06114ef565b5b60006119ff85828601611542565b9250506020611a10858286016119c5565b9150509250929050565b600060208284031215611a3057611a2f6114ef565b5b6000611a3e8482850161194d565b91505092915050565b60008060008060808587031215611a6157611a606114ef565b5b600085013567ffffffffffffffff811115611a7f57611a7e6114f4565b5b611a8b878288016116c6565b945050602085013567ffffffffffffffff811115611aac57611aab6114f4565b5b611ab8878288016116c6565b9350506040611ac987828801611715565b9250506060611ada87828801611542565b91505092959194509250565b600082825260208201905092915050565b7f596f7520646f206e6f742068617665207065726d697373696f6e000000000000600082015250565b6000611b2d601a83611ae6565b9150611b3882611af7565b602082019050919050565b60006020820190508181036000830152611b5c81611b20565b9050919050565b7f596f75206d757374207570677261642066697273740000000000000000000000600082015250565b6000611b99601583611ae6565b9150611ba482611b63565b602082019050919050565b60006020820190508181036000830152611bc881611b8c565b9050919050565b600081519050919050565b60005b83811015611bf8578082015181840152602081019050611bdd565b60008484015250505050565b6000611c0f82611bcf565b611c198185611ae6565b9350611c29818560208601611bda565b611c32816115b8565b840191505092915050565b611c46816116f4565b82525050565b60006040820190508181036000830152611c668185611c04565b9050611c756020830184611c3d565b9392505050565b600080fd5b600080fd5b600081519050611c958161152b565b92915050565b600081519050611caa816116fe565b92915050565b6000611cc3611cbe84611644565b611629565b905082815260208101848484011115611cdf57611cde6115b3565b5b611cea848285611bda565b509392505050565b600082601f830112611d0757611d066115ae565b5b8151611d17848260208601611cb0565b91505092915050565b600060608284031215611d3657611d35611c7c565b5b611d406060611629565b90506000611d5084828501611c86565b6000830152506020611d6484828501611c9b565b602083015250604082015167ffffffffffffffff811115611d8857611d87611c81565b5b611d9484828501611cf2565b60408301525092915050565b600060208284031215611db657611db56114ef565b5b600082015167ffffffffffffffff811115611dd457611dd36114f4565b5b611de084828501611d20565b91505092915050565b6000604082019050611dfe6000830185611584565b8181036020830152611e108184611c04565b90509392505050565b7f4e487b7100000000000000000000000000000000000000000000000000000000600052602160045260246000fd5b60048110611e5957611e58611e19565b5b50565b6000819050611e6a82611e48565b919050565b6000611e7a82611e5c565b9050919050565b611e8a81611e6f565b82525050565b600060a0820190508181036000830152611eaa8188611c04565b90508181036020830152611ebe8187611c04565b9050611ecd6040830186611e81565b611eda6060830185611c3d565b611ee76080830184611584565b9695505050505050565b60006020820190508181036000830152611f0b8184611c04565b905092915050565b6000819050919050565b611f2681611f13565b8114611f3157600080fd5b50565b600081519050611f4381611f1d565b92915050565b60068110611f5657600080fd5b50565b600081519050611f6881611f49565b92915050565b600081519050611f7d81611786565b92915050565b600060808284031215611f9957611f98611c7c565b5b611fa36080611629565b90506000611fb384828501611f34565b600083015250602082015167ffffffffffffffff811115611fd757611fd6611c81565b5b611fe384828501611cf2565b6020830152506040611ff784828501611f59565b604083015250606061200b84828501611f6e565b60608301525092915050565b60006020828403121561202d5761202c6114ef565b5b600082015167ffffffffffffffff81111561204b5761204a6114f4565b5b61205784828501611f83565b91505092915050565b600060208284031215612076576120756114ef565b5b600061208484828501611c86565b91505092915050565b6000602082840312156120a3576120a26114ef565b5b60006120b184828501611c9b565b91505092915050565b60006020820190506120cf6000830184611c3d565b92915050565b600481106120e6576120e5611e19565b5b50565b60008190506120f7826120d5565b919050565b6000612107826120e9565b9050919050565b612117816120fc565b82525050565b600060408201905081810360008301526121378185611c04565b9050612146602083018461210e565b9392505050565b61215681611928565b82525050565b60006040820190506121716000830185611584565b61217e602083018461214d565b9392505050565b61218e816119a2565b82525050565b60006040820190506121a96000830185611584565b6121b66020830184612185565b9392505050565b60006020820190506121d2600083018461214d565b92915050565b600060808201905081810360008301526121f28187611c04565b905081810360208301526122068186611c04565b90506122156040830185611c3d565b6122226060830184611584565b9594505050505056fea26469706673582212203011fb6046b453afee55c0b9da7d9c3d641e66062066c4957ec6337e0f577dbc64736f6c634300081c0033",
          "opcodes": "PUSH1 0xA0 PUSH1 0x40 MSTORE CALLVALUE DUP1 ISZERO PUSH1 0xF JUMPI PUSH1 0x0 DUP1 REVERT JUMPDEST POP CALLER PUSH20 0xFFFFFFFFFFFFFFFFFFFFFFFFFFFFFFFFFFFFFFFF AND PUSH1 0x80 DUP2 PUSH20 0xFFFFFFFFFFFFFFFFFFFFFFFFFFFFFFFFFFFFFFFF AND DUP2 MSTORE POP POP PUSH1 0x80 MLOAD PUSH2 0x2261 PUSH2 0x66 PUSH1 0x0 CODECOPY PUSH1 0x0 DUP2 DUP2 PUSH2 0x319 ADD MSTORE PUSH2 0x96B ADD MSTORE PUSH2 0x2261 PUSH1 0x0 RETURN INVALID PUSH1 0x80 PUSH1 0x40 MSTORE PUSH1 0x4 CALLDATASIZE LT PUSH2 0xDD JUMPI PUSH1 0x0 CALLDATALOAD PUSH1 0xE0 SHR DUP1 PUSH4 0x8FC5DAD8 GT PUSH2 0x7F JUMPI DUP1 PUSH4 0xB1583546 GT PUSH2 0x59 JUMPI DUP1 PUSH4 0xB1583546 EQ PUSH2 0x280 JUMPI DUP1 PUSH4 0xB7F59C99 EQ PUSH2 0x2A9 JUMPI DUP1 PUSH4 0xC12E8063 EQ PUSH2 0x2D2 JUMPI DUP1 PUSH4 0xEAF5D9DC EQ PUSH2 0x2EE JUMPI PUSH2 0xDD JUMP JUMPDEST DUP1 PUSH4 0x8FC5DAD8 EQ PUSH2 0x205 JUMPI DUP1 PUSH4 0x90CA27F3 EQ PUSH2 0x22E JUMPI DUP1 PUSH4 0x9E1BF985 EQ PUSH2 0x257 JUMPI PUSH2 0xDD JUMP JUMPDEST DUP1 PUSH4 0x43B8C6B1 GT PUSH2 0xBB JUMPI DUP1 PUSH4 0x43B8C6B1 EQ PUSH2 0x15F JUMPI DUP1 PUSH4 0x597DE987 EQ PUSH2 0x188 JUMPI DUP1 PUSH4 0x7B57EE49 EQ PUSH2 0x1B1 JUMPI DUP1 PUSH4 0x8DA5CB5B EQ PUSH2 0x1DA JUMPI PUSH2 0xDD JUMP JUMPDEST DUP1 PUSH4 0x900F010 EQ PUSH2 0xE2 JUMPI DUP1 PUSH4 0x10B2B981 EQ PUSH2 0x10B JUMPI DUP1 PUSH4 0x12CB70C7 EQ PUSH2 0x136 JUMPI JUMPDEST PUSH1 0x0 DUP1 REVERT JUMPDEST CALLVALUE DUP1 ISZERO PUSH2 0xEE JUMPI PUSH1 0x0 DUP1 REVERT JUMPDEST POP PUSH2 0x109 PUSH1 0x4 DUP1 CALLDATASIZE SUB DUP2 ADD SWAP1 PUSH2 0x104 SWAP2 SWAP1 PUSH2 0x1557 JUMP JUMPDEST PUSH2 0x317 JUMP JUMPDEST STOP JUMPDEST CALLVALUE DUP1 ISZERO PUSH2 0x117 JUMPI PUSH1 0x0 DUP1 REVERT JUMPDEST POP PUSH2 0x120 PUSH2 0x3E8 JUMP JUMPDEST PUSH1 0x40 MLOAD PUSH2 0x12D SWAP2 SWAP1 PUSH2 0x1593 JUMP JUMPDEST PUSH1 0x40 MLOAD DUP1 SWAP2 SUB SWAP1 RETURN JUMPDEST CALLVALUE DUP1 ISZERO PUSH2 0x142 JUMPI PUSH1 0x0 DUP1 REVERT JUMPDEST POP PUSH2 0x15D PUSH1 0x4 DUP1 CALLDATASIZE SUB DUP2 ADD SWAP1 PUSH2 0x158 SWAP2 SWAP1 PUSH2 0x172A JUMP JUMPDEST PUSH2 0x411 JUMP JUMPDEST STOP JUMPDEST CALLVALUE DUP1 ISZERO PUSH2 0x16B JUMPI PUSH1 0x0 DUP1 REVERT JUMPDEST POP PUSH2 0x186 PUSH1 0x4 DUP1 CALLDATASIZE SUB DUP2 ADD SWAP1 PUSH2 0x181 SWAP2 SWAP1 PUSH2 0x17AB JUMP JUMPDEST PUSH2 0x593 JUMP JUMPDEST STOP JUMPDEST CALLVALUE DUP1 ISZERO PUSH2 0x194 JUMPI PUSH1 0x0 DUP1 REVERT JUMPDEST POP PUSH2 0x1AF PUSH1 0x4 DUP1 CALLDATASIZE SUB DUP2 ADD SWAP1 PUSH2 0x1AA SWAP2 SWAP1 PUSH2 0x1557 JUMP JUMPDEST PUSH2 0x6BC JUMP JUMPDEST STOP JUMPDEST CALLVALUE DUP1 ISZERO PUSH2 0x1BD JUMPI PUSH1 0x0 DUP1 REVERT JUMPDEST POP PUSH2 0x1D8 PUSH1 0x4 DUP1 CALLDATASIZE SUB DUP2 ADD SWAP1 PUSH2 0x1D3 SWAP2 SWAP1 PUSH2 0x185E JUMP JUMPDEST PUSH2 0x7D9 JUMP JUMPDEST STOP JUMPDEST CALLVALUE DUP1 ISZERO PUSH2 0x1E6 JUMPI PUSH1 0x0 DUP1 REVERT JUMPDEST POP PUSH2 0x1EF PUSH2 0x969 JUMP JUMPDEST PUSH1 0x40 MLOAD PUSH2 0x1FC SWAP2 SWAP1 PUSH2 0x1593 JUMP JUMPDEST PUSH1 0x40 MLOAD DUP1 SWAP2 SUB SWAP1 RETURN JUMPDEST CALLVALUE DUP1 ISZERO PUSH2 0x211 JUMPI PUSH1 0x0 DUP1 REVERT JUMPDEST POP PUSH2 0x22C PUSH1 0x4 DUP1 CALLDATASIZE SUB DUP2 ADD SWAP1 PUSH2 0x227 SWAP2 SWAP1 PUSH2 0x185E JUMP JUMPDEST PUSH2 0x98D JUMP JUMPDEST STOP JUMPDEST CALLVALUE DUP1 ISZERO PUSH2 0x23A JUMPI PUSH1 0x0 DUP1 REVERT JUMPDEST POP PUSH2 0x255 PUSH1 0x4 DUP1 CALLDATASIZE SUB DUP2 ADD SWAP1 PUSH2 0x250 SWAP2 SWAP1 PUSH2 0x18CC JUMP JUMPDEST PUSH2 0xD3E JUMP JUMPDEST STOP JUMPDEST CALLVALUE DUP1 ISZERO PUSH2 0x263 JUMPI PUSH1 0x0 DUP1 REVERT JUMPDEST POP PUSH2 0x27E PUSH1 0x4 DUP1 CALLDATASIZE SUB DUP2 ADD SWAP1 PUSH2 0x279 SWAP2 SWAP1 PUSH2 0x185E JUMP JUMPDEST PUSH2 0xE5E JUMP JUMPDEST STOP JUMPDEST CALLVALUE DUP1 ISZERO PUSH2 0x28C JUMPI PUSH1 0x0 DUP1 REVERT JUMPDEST POP PUSH2 0x2A7 PUSH1 0x4 DUP1 CALLDATASIZE SUB DUP2 ADD SWAP1 PUSH2 0x2A2 SWAP2 SWAP1 PUSH2 0x1962 JUMP JUMPDEST PUSH2 0xFEE JUMP JUMPDEST STOP JUMPDEST CALLVALUE DUP1 ISZERO PUSH2 0x2B5 JUMPI PUSH1 0x0 DUP1 REVERT JUMPDEST POP PUSH2 0x2D0 PUSH1 0x4 DUP1 CALLDATASIZE SUB DUP2 ADD SWAP1 PUSH2 0x2CB SWAP2 SWAP1 PUSH2 0x19DA JUMP JUMPDEST PUSH2 0x110E JUMP JUMPDEST STOP JUMPDEST PUSH2 0x2EC PUSH1 0x4 DUP1 CALLDATASIZE SUB DUP2 ADD SWAP1 PUSH2 0x2E7 SWAP2 SWAP1 PUSH2 0x1A1A JUMP JUMPDEST PUSH2 0x122E JUMP JUMPDEST STOP JUMPDEST CALLVALUE DUP1 ISZERO PUSH2 0x2FA JUMPI PUSH1 0x0 DUP1 REVERT JUMPDEST POP PUSH2 0x315 PUSH1 0x4 DUP1 CALLDATASIZE SUB DUP2 ADD SWAP1 PUSH2 0x310 SWAP2 SWAP1 PUSH2 0x1A47 JUMP JUMPDEST PUSH2 0x134C JUMP JUMPDEST STOP JUMPDEST PUSH32 0x0 PUSH20 0xFFFFFFFFFFFFFFFFFFFFFFFFFFFFFFFFFFFFFFFF AND CALLER PUSH20 0xFFFFFFFFFFFFFFFFFFFFFFFFFFFFFFFFFFFFFFFF AND EQ PUSH2 0x3A5 JUMPI PUSH1 0x40 MLOAD PUSH32 0x8C379A000000000000000000000000000000000000000000000000000000000 DUP2 MSTORE PUSH1 0x4 ADD PUSH2 0x39C SWAP1 PUSH2 0x1B43 JUMP JUMPDEST PUSH1 0x40 MLOAD DUP1 SWAP2 SUB SWAP1 REVERT JUMPDEST DUP1 PUSH1 0x0 DUP1 PUSH2 0x100 EXP DUP2 SLOAD DUP2 PUSH20 0xFFFFFFFFFFFFFFFFFFFFFFFFFFFFFFFFFFFFFFFF MUL NOT AND SWAP1 DUP4 PUSH20 0xFFFFFFFFFFFFFFFFFFFFFFFFFFFFFFFFFFFFFFFF AND MUL OR SWAP1 SSTORE POP POP JUMP JUMPDEST PUSH1 0x0 DUP1 PUSH1 0x0 SWAP1 SLOAD SWAP1 PUSH2 0x100 EXP SWAP1 DIV PUSH20 0xFFFFFFFFFFFFFFFFFFFFFFFFFFFFFFFFFFFFFFFF AND SWAP1 POP SWAP1 JUMP JUMPDEST PUSH1 0x0 PUSH20 0xFFFFFFFFFFFFFFFFFFFFFFFFFFFFFFFFFFFFFFFF AND PUSH1 0x0 DUP1 SLOAD SWAP1 PUSH2 0x100 EXP SWAP1 DIV PUSH20 0xFFFFFFFFFFFFFFFFFFFFFFFFFFFFFFFFFFFFFFFF AND PUSH20 0xFFFFFFFFFFFFFFFFFFFFFFFFFFFFFFFFFFFFFFFF AND SUB PUSH2 0x4A0 JUMPI PUSH1 0x40 MLOAD PUSH32 0x8C379A000000000000000000000000000000000000000000000000000000000 DUP2 MSTORE PUSH1 0x4 ADD PUSH2 0x497 SWAP1 PUSH2 0x1BAF JUMP JUMPDEST PUSH1 0x40 MLOAD DUP1 SWAP2 SUB SWAP1 REVERT JUMPDEST PUSH1 0x0 DUP1 PUSH1 0x0 SWAP1 SLOAD SWAP1 PUSH2 0x100 EXP SWAP1 DIV PUSH20 0xFFFFFFFFFFFFFFFFFFFFFFFFFFFFFFFFFFFFFFFF AND PUSH20 0xFFFFFFFFFFFFFFFFFFFFFFFFFFFFFFFFFFFFFFFF AND PUSH4 0x12CB70C7 DUP5 DUP5 PUSH1 0x40 MLOAD DUP4 PUSH4 0xFFFFFFFF AND PUSH1 0xE0 SHL DUP2 MSTORE PUSH1 0x4 ADD PUSH2 0x4FE SWAP3 SWAP2 SWAP1 PUSH2 0x1C4C JUMP JUMPDEST PUSH1 0x0 PUSH1 0x40 MLOAD DUP1 DUP4 SUB DUP2 PUSH1 0x0 DUP8 GAS CALL ISZERO DUP1 ISZERO PUSH2 0x51D JUMPI RETURNDATASIZE PUSH1 0x0 DUP1 RETURNDATACOPY RETURNDATASIZE PUSH1 0x0 REVERT JUMPDEST POP POP POP POP PUSH1 0x40 MLOAD RETURNDATASIZE PUSH1 0x0 DUP3 RETURNDATACOPY RETURNDATASIZE PUSH1 0x1F NOT PUSH1 0x1F DUP3 ADD AND DUP3 ADD DUP1 PUSH1 0x40 MSTORE POP DUP2 ADD SWAP1 PUSH2 0x546 SWAP2 SWAP1 PUSH2 0x1DA0 JUMP JUMPDEST SWAP1 POP DUP1 PUSH1 0x20 ADD MLOAD PUSH32 0xEB10B79F28AE0B520CB7EE8E40115F547BFAC852D7167A55D9AE8E028EE23A11 DUP3 PUSH1 0x0 ADD MLOAD DUP4 PUSH1 0x40 ADD MLOAD PUSH1 0x40 MLOAD PUSH2 0x586 SWAP3 SWAP2 SWAP1 PUSH2 0x1DE9 JUMP JUMPDEST PUSH1 0x40 MLOAD DUP1 SWAP2 SUB SWAP1 LOG2 POP POP POP JUMP JUMPDEST PUSH1 0x0 PUSH20 0xFFFFFFFFFFFFFFFFFFFFFFFFFFFFFFFFFFFFFFFF AND PUSH1 0x0 DUP1 SLOAD SWAP1 PUSH2 0x100 EXP SWAP1 DIV PUSH20 0xFFFFFFFFFFFFFFFFFFFFFFFFFFFFFFFFFFFFFFFF AND PUSH20 0xFFFFFFFFFFFFFFFFFFFFFFFFFFFFFFFFFFFFFFFF AND SUB PUSH2 0x622 JUMPI PUSH1 0x40 MLOAD PUSH32 0x8C379A000000000000000000000000000000000000000000000000000000000 DUP2 MSTORE PUSH1 0x4 ADD PUSH2 0x619 SWAP1 PUSH2 0x1BAF JUMP JUMPDEST PUSH1 0x40 MLOAD DUP1 SWAP2 SUB SWAP1 REVERT JUMPDEST PUSH1 0x0 DUP1 SLOAD SWAP1 PUSH2 0x100 EXP SWAP1 DIV PUSH20 0xFFFFFFFFFFFFFFFFFFFFFFFFFFFFFFFFFFFFFFFF AND PUSH20 0xFFFFFFFFFFFFFFFFFFFFFFFFFFFFFFFFFFFFFFFF AND PUSH4 0x43B8C6B1 DUP7 DUP7 DUP7 DUP7 DUP7 PUSH1 0x40 MLOAD DUP7 PUSH4 0xFFFFFFFF AND PUSH1 0xE0 SHL DUP2 MSTORE PUSH1 0x4 ADD PUSH2 0x683 SWAP6 SWAP5 SWAP4 SWAP3 SWAP2 SWAP1 PUSH2 0x1E90 JUMP JUMPDEST PUSH1 0x0 PUSH1 0x40 MLOAD DUP1 DUP4 SUB DUP2 PUSH1 0x0 DUP8 DUP1 EXTCODESIZE ISZERO DUP1 ISZERO PUSH2 0x69D JUMPI PUSH1 0x0 DUP1 REVERT JUMPDEST POP GAS CALL ISZERO DUP1 ISZERO PUSH2 0x6B1 JUMPI RETURNDATASIZE PUSH1 0x0 DUP1 RETURNDATACOPY RETURNDATASIZE PUSH1 0x0 REVERT JUMPDEST POP POP POP POP POP POP POP POP POP JUMP JUMPDEST PUSH1 0x0 PUSH20 0xFFFFFFFFFFFFFFFFFFFFFFFFFFFFFFFFFFFFFFFF AND PUSH1 0x0 DUP1 SLOAD SWAP1 PUSH2 0x100 EXP SWAP1 DIV PUSH20 0xFFFFFFFFFFFFFFFFFFFFFFFFFFFFFFFFFFFFFFFF AND PUSH20 0xFFFFFFFFFFFFFFFFFFFFFFFFFFFFFFFFFFFFFFFF AND SUB PUSH2 0x74B JUMPI PUSH1 0x40 MLOAD PUSH32 0x8C379A000000000000000000000000000000000000000000000000000000000 DUP2 MSTORE PUSH1 0x4 ADD PUSH2 0x742 SWAP1 PUSH2 0x1BAF JUMP JUMPDEST PUSH1 0x40 MLOAD DUP1 SWAP2 SUB SWAP1 REVERT JUMPDEST PUSH1 0x0 DUP1 SLOAD SWAP1 PUSH2 0x100 EXP SWAP1 DIV PUSH20 0xFFFFFFFFFFFFFFFFFFFFFFFFFFFFFFFFFFFFFFFF AND PUSH20 0xFFFFFFFFFFFFFFFFFFFFFFFFFFFFFFFFFFFFFFFF AND PUSH4 0x597DE987 DUP3 PUSH1 0x40 MLOAD DUP3 PUSH4 0xFFFFFFFF AND PUSH1 0xE0 SHL DUP2 MSTORE PUSH1 0x4 ADD PUSH2 0x7A4 SWAP2 SWAP1 PUSH2 0x1593 JUMP JUMPDEST PUSH1 0x0 PUSH1 0x40 MLOAD DUP1 DUP4 SUB DUP2 PUSH1 0x0 DUP8 DUP1 EXTCODESIZE ISZERO DUP1 ISZERO PUSH2 0x7BE JUMPI PUSH1 0x0 DUP1 REVERT JUMPDEST POP GAS CALL ISZERO DUP1 ISZERO PUSH2 0x7D2 JUMPI RETURNDATASIZE PUSH1 0x0 DUP1 RETURNDATACOPY RETURNDATASIZE PUSH1 0x0 REVERT JUMPDEST POP POP POP POP POP JUMP JUMPDEST PUSH1 0x0 PUSH20 0xFFFFFFFFFFFFFFFFFFFFFFFFFFFFFFFFFFFFFFFF AND PUSH1 0x0 DUP1 SLOAD SWAP1 PUSH2 0x100 EXP SWAP1 DIV PUSH20 0xFFFFFFFFFFFFFFFFFFFFFFFFFFFFFFFFFFFFFFFF AND PUSH20 0xFFFFFFFFFFFFFFFFFFFFFFFFFFFFFFFFFFFFFFFF AND SUB PUSH2 0x868 JUMPI PUSH1 0x40 MLOAD PUSH32 0x8C379A000000000000000000000000000000000000000000000000000000000 DUP2 MSTORE PUSH1 0x4 ADD PUSH2 0x85F SWAP1 PUSH2 0x1BAF JUMP JUMPDEST PUSH1 0x40 MLOAD DUP1 SWAP2 SUB SWAP1 REVERT JUMPDEST PUSH1 0x0 DUP1 PUSH1 0x0 SWAP1 SLOAD SWAP1 PUSH2 0x100 EXP SWAP1 DIV PUSH20 0xFFFFFFFFFFFFFFFFFFFFFFFFFFFFFFFFFFFFFFFF AND PUSH20 0xFFFFFFFFFFFFFFFFFFFFFFFFFFFFFFFFFFFFFFFF AND PUSH4 0x7B57EE49 DUP4 PUSH1 0x40 MLOAD DUP3 PUSH4 0xFFFFFFFF AND PUSH1 0xE0 SHL DUP2 MSTORE PUSH1 0x4 ADD PUSH2 0x8C4 SWAP2 SWAP1 PUSH2 0x1EF1 JUMP JUMPDEST PUSH1 0x0 PUSH1 0x40 MLOAD DUP1 DUP4 SUB DUP2 PUSH1 0x0 DUP8 GAS CALL ISZERO DUP1 ISZERO PUSH2 0x8E3 JUMPI RETURNDATASIZE PUSH1 0x0 DUP1 RETURNDATACOPY RETURNDATASIZE PUSH1 0x0 REVERT JUMPDEST POP POP POP POP PUSH1 0x40 MLOAD RETURNDATASIZE PUSH1 0x0 DUP3 RETURNDATACOPY RETURNDATASIZE PUSH1 0x1F NOT PUSH1 0x1F DUP3 ADD AND DUP3 ADD DUP1 PUSH1 0x40 MSTORE POP DUP2 ADD SWAP1 PUSH2 0x90C SWAP2 SWAP1 PUSH2 0x2017 JUMP JUMPDEST SWAP1 POP DUP1 PUSH1 0x40 ADD MLOAD PUSH1 0x5 DUP2 GT ISZERO PUSH2 0x925 JUMPI PUSH2 0x924 PUSH2 0x1E19 JUMP JUMPDEST JUMPDEST DUP2 PUSH1 0x0 ADD MLOAD PUSH32 0xEFE93F21A3369F1228A2589883BC377A76D7335DADDC712853688DE4617F82AB DUP4 PUSH1 0x20 ADD MLOAD PUSH1 0x40 MLOAD PUSH2 0x95D SWAP2 SWAP1 PUSH2 0x1EF1 JUMP JUMPDEST PUSH1 0x40 MLOAD DUP1 SWAP2 SUB SWAP1 LOG3 POP POP JUMP JUMPDEST PUSH32 0x0 DUP2 JUMP JUMPDEST PUSH1 0x0 PUSH20 0xFFFFFFFFFFFFFFFFFFFFFFFFFFFFFFFFFFFFFFFF AND PUSH1 0x0 DUP1 SLOAD SWAP1 PUSH2 0x100 EXP SWAP1 DIV PUSH20 0xFFFFFFFFFFFFFFFFFFFFFFFFFFFFFFFFFFFFFFFF AND PUSH20 0xFFFFFFFFFFFFFFFFFFFFFFFFFFFFFFFFFFFFFFFF AND SUB PUSH2 0xA1C JUMPI PUSH1 0x40 MLOAD PUSH32 0x8C379A000000000000000000000000000000000000000000000000000000000 DUP2 MSTORE PUSH1 0x4 ADD PUSH2 0xA13 SWAP1 PUSH2 0x1BAF JUMP JUMPDEST PUSH1 0x40 MLOAD DUP1 SWAP2 SUB SWAP1 REVERT JUMPDEST PUSH1 0x0 DUP1 PUSH1 0x0 SWAP1 SLOAD SWAP1 PUSH2 0x100 EXP SWAP1 DIV PUSH20 0xFFFFFFFFFFFFFFFFFFFFFFFFFFFFFFFFFFFFFFFF AND PUSH20 0xFFFFFFFFFFFFFFFFFFFFFFFFFFFFFFFFFFFFFFFF AND PUSH4 0x8FC5DAD8 DUP4 PUSH1 0x40 MLOAD DUP3 PUSH4 0xFFFFFFFF AND PUSH1 0xE0 SHL DUP2 MSTORE PUSH1 0x4 ADD PUSH2 0xA78 SWAP2 SWAP1 PUSH2 0x1EF1 JUMP JUMPDEST PUSH1 0x0 PUSH1 0x40 MLOAD DUP1 DUP4 SUB DUP2 PUSH1 0x0 DUP8 GAS CALL ISZERO DUP1 ISZERO PUSH2 0xA97 JUMPI RETURNDATASIZE PUSH1 0x0 DUP1 RETURNDATACOPY RETURNDATASIZE PUSH1 0x0 REVERT JUMPDEST POP POP POP POP PUSH1 0x40 MLOAD RETURNDATASIZE PUSH1 0x0 DUP3 RETURNDATACOPY RETURNDATASIZE PUSH1 0x1F NOT PUSH1 0x1F DUP3 ADD AND DUP3 ADD DUP1 PUSH1 0x40 MSTORE POP DUP2 ADD SWAP1 PUSH2 0xAC0 SWAP2 SWAP1 PUSH2 0x2017 JUMP JUMPDEST SWAP1 POP DUP1 PUSH1 0x40 ADD MLOAD PUSH1 0x5 DUP2 GT ISZERO PUSH2 0xAD9 JUMPI PUSH2 0xAD8 PUSH2 0x1E19 JUMP JUMPDEST JUMPDEST DUP2 PUSH1 0x0 ADD MLOAD PUSH32 0xEFE93F21A3369F1228A2589883BC377A76D7335DADDC712853688DE4617F82AB DUP4 PUSH1 0x20 ADD MLOAD PUSH1 0x40 MLOAD PUSH2 0xB11 SWAP2 SWAP1 PUSH2 0x1EF1 JUMP JUMPDEST PUSH1 0x40 MLOAD DUP1 SWAP2 SUB SWAP1 LOG3 PUSH1 0x2 PUSH1 0x5 DUP2 GT ISZERO PUSH2 0xB2D JUMPI PUSH2 0xB2C PUSH2 0x1E19 JUMP JUMPDEST JUMPDEST DUP2 PUSH1 0x40 ADD MLOAD PUSH1 0x5 DUP2 GT ISZERO PUSH2 0xB44 JUMPI PUSH2 0xB43 PUSH2 0x1E19 JUMP JUMPDEST JUMPDEST SUB PUSH2 0xD3A JUMPI PUSH1 0x3 DUP1 DUP2 GT ISZERO PUSH2 0xB5C JUMPI PUSH2 0xB5B PUSH2 0x1E19 JUMP JUMPDEST JUMPDEST DUP2 PUSH1 0x60 ADD MLOAD PUSH1 0x3 DUP2 GT ISZERO PUSH2 0xB73 JUMPI PUSH2 0xB72 PUSH2 0x1E19 JUMP JUMPDEST JUMPDEST SUB PUSH2 0xC42 JUMPI PUSH32 0x198DB6E425FB8AAFD1823C6CA50BE2D51E5764571A5AE0F0F21C6812E45DEF0B PUSH1 0x0 DUP1 SLOAD SWAP1 PUSH2 0x100 EXP SWAP1 DIV PUSH20 0xFFFFFFFFFFFFFFFFFFFFFFFFFFFFFFFFFFFFFFFF AND PUSH20 0xFFFFFFFFFFFFFFFFFFFFFFFFFFFFFFFFFFFFFFFF AND PUSH4 0xD5009584 PUSH1 0x40 MLOAD DUP2 PUSH4 0xFFFFFFFF AND PUSH1 0xE0 SHL DUP2 MSTORE PUSH1 0x4 ADD PUSH1 0x20 PUSH1 0x40 MLOAD DUP1 DUP4 SUB DUP2 DUP7 GAS STATICCALL ISZERO DUP1 ISZERO PUSH2 0xC04 JUMPI RETURNDATASIZE PUSH1 0x0 DUP1 RETURNDATACOPY RETURNDATASIZE PUSH1 0x0 REVERT JUMPDEST POP POP POP POP PUSH1 0x40 MLOAD RETURNDATASIZE PUSH1 0x1F NOT PUSH1 0x1F DUP3 ADD AND DUP3 ADD DUP1 PUSH1 0x40 MSTORE POP DUP2 ADD SWAP1 PUSH2 0xC28 SWAP2 SWAP1 PUSH2 0x2060 JUMP JUMPDEST PUSH1 0x40 MLOAD PUSH2 0xC35 SWAP2 SWAP1 PUSH2 0x1593 JUMP JUMPDEST PUSH1 0x40 MLOAD DUP1 SWAP2 SUB SWAP1 LOG1 PUSH2 0xD39 JUMP JUMPDEST PUSH1 0x2 PUSH1 0x3 DUP2 GT ISZERO PUSH2 0xC56 JUMPI PUSH2 0xC55 PUSH2 0x1E19 JUMP JUMPDEST JUMPDEST DUP2 PUSH1 0x60 ADD MLOAD PUSH1 0x3 DUP2 GT ISZERO PUSH2 0xC6D JUMPI PUSH2 0xC6C PUSH2 0x1E19 JUMP JUMPDEST JUMPDEST SUB PUSH2 0xD38 JUMPI PUSH32 0x274A3B0D5142EC9FC4E77BD3FFC173B4E7C6C64ECA73B31A6C6906B184257E7E PUSH1 0x0 DUP1 SLOAD SWAP1 PUSH2 0x100 EXP SWAP1 DIV PUSH20 0xFFFFFFFFFFFFFFFFFFFFFFFFFFFFFFFFFFFFFFFF AND PUSH20 0xFFFFFFFFFFFFFFFFFFFFFFFFFFFFFFFFFFFFFFFF AND PUSH4 0x1DF8BA77 PUSH1 0x40 MLOAD DUP2 PUSH4 0xFFFFFFFF AND PUSH1 0xE0 SHL DUP2 MSTORE PUSH1 0x4 ADD PUSH1 0x20 PUSH1 0x40 MLOAD DUP1 DUP4 SUB DUP2 DUP7 GAS STATICCALL ISZERO DUP1 ISZERO PUSH2 0xCFE JUMPI RETURNDATASIZE PUSH1 0x0 DUP1 RETURNDATACOPY RETURNDATASIZE PUSH1 0x0 REVERT JUMPDEST POP POP POP POP PUSH1 0x40 MLOAD RETURNDATASIZE PUSH1 0x1F NOT PUSH1 0x1F DUP3 ADD AND DUP3 ADD DUP1 PUSH1 0x40 MSTORE POP DUP2 ADD SWAP1 PUSH2 0xD22 SWAP2 SWAP1 PUSH2 0x208D JUMP JUMPDEST PUSH1 0x40 MLOAD PUSH2 0xD2F SWAP2 SWAP1 PUSH2 0x20BA JUMP JUMPDEST PUSH1 0x40 MLOAD DUP1 SWAP2 SUB SWAP1 LOG1 JUMPDEST JUMPDEST JUMPDEST POP POP JUMP JUMPDEST PUSH1 0x0 PUSH20 0xFFFFFFFFFFFFFFFFFFFFFFFFFFFFFFFFFFFFFFFF AND PUSH1 0x0 DUP1 SLOAD SWAP1 PUSH2 0x100 EXP SWAP1 DIV PUSH20 0xFFFFFFFFFFFFFFFFFFFFFFFFFFFFFFFFFFFFFFFF AND PUSH20 0xFFFFFFFFFFFFFFFFFFFFFFFFFFFFFFFFFFFFFFFF AND SUB PUSH2 0xDCD JUMPI PUSH1 0x40 MLOAD PUSH32 0x8C379A000000000000000000000000000000000000000000000000000000000 DUP2 MSTORE PUSH1 0x4 ADD PUSH2 0xDC4 SWAP1 PUSH2 0x1BAF JUMP JUMPDEST PUSH1 0x40 MLOAD DUP1 SWAP2 SUB SWAP1 REVERT JUMPDEST PUSH1 0x0 DUP1 SLOAD SWAP1 PUSH2 0x100 EXP SWAP1 DIV PUSH20 0xFFFFFFFFFFFFFFFFFFFFFFFFFFFFFFFFFFFFFFFF AND PUSH20 0xFFFFFFFFFFFFFFFFFFFFFFFFFFFFFFFFFFFFFFFF AND PUSH4 0x90CA27F3 DUP4 DUP4 PUSH1 0x40 MLOAD DUP4 PUSH4 0xFFFFFFFF AND PUSH1 0xE0 SHL DUP2 MSTORE PUSH1 0x4 ADD PUSH2 0xE28 SWAP3 SWAP2 SWAP1 PUSH2 0x211D JUMP JUMPDEST PUSH1 0x0 PUSH1 0x40 MLOAD DUP1 DUP4 SUB DUP2 PUSH1 0x0 DUP8 DUP1 EXTCODESIZE ISZERO DUP1 ISZERO PUSH2 0xE42 JUMPI PUSH1 0x0 DUP1 REVERT JUMPDEST POP GAS CALL ISZERO DUP1 ISZERO PUSH2 0xE56 JUMPI RETURNDATASIZE PUSH1 0x0 DUP1 RETURNDATACOPY RETURNDATASIZE PUSH1 0x0 REVERT JUMPDEST POP POP POP POP POP POP JUMP JUMPDEST PUSH1 0x0 PUSH20 0xFFFFFFFFFFFFFFFFFFFFFFFFFFFFFFFFFFFFFFFF AND PUSH1 0x0 DUP1 SLOAD SWAP1 PUSH2 0x100 EXP SWAP1 DIV PUSH20 0xFFFFFFFFFFFFFFFFFFFFFFFFFFFFFFFFFFFFFFFF AND PUSH20 0xFFFFFFFFFFFFFFFFFFFFFFFFFFFFFFFFFFFFFFFF AND SUB PUSH2 0xEED JUMPI PUSH1 0x40 MLOAD PUSH32 0x8C379A000000000000000000000000000000000000000000000000000000000 DUP2 MSTORE PUSH1 0x4 ADD PUSH2 0xEE4 SWAP1 PUSH2 0x1BAF JUMP JUMPDEST PUSH1 0x40 MLOAD DUP1 SWAP2 SUB SWAP1 REVERT JUMPDEST PUSH1 0x0 DUP1 PUSH1 0x0 SWAP1 SLOAD SWAP1 PUSH2 0x100 EXP SWAP1 DIV PUSH20 0xFFFFFFFFFFFFFFFFFFFFFFFFFFFFFFFFFFFFFFFF AND PUSH20 0xFFFFFFFFFFFFFFFFFFFFFFFFFFFFFFFFFFFFFFFF AND PUSH4 0x9E1BF985 DUP4 PUSH1 0x40 MLOAD DUP3 PUSH4 0xFFFFFFFF AND PUSH1 0xE0 SHL DUP2 MSTORE PUSH1 0x4 ADD PUSH2 0xF49 SWAP2 SWAP1 PUSH2 0x1EF1 JUMP JUMPDEST PUSH1 0x0 PUSH1 0x40 MLOAD DUP1 DUP4 SUB DUP2 PUSH1 0x0 DUP8 GAS CALL ISZERO DUP1 ISZERO PUSH2 0xF68 JUMPI RETURNDATASIZE PUSH1 0x0 DUP1 RETURNDATACOPY RETURNDATASIZE PUSH1 0x0 REVERT JUMPDEST POP POP POP POP PUSH1 0x40 MLOAD RETURNDATASIZE PUSH1 0x0 DUP3 RETURNDATACOPY RETURNDATASIZE PUSH1 0x1F NOT PUSH1 0x1F DUP3 ADD AND DUP3 ADD DUP1 PUSH1 0x40 MSTORE POP DUP2 ADD SWAP1 PUSH2 0xF91 SWAP2 SWAP1 PUSH2 0x2017 JUMP JUMPDEST SWAP1 POP DUP1 PUSH1 0x40 ADD MLOAD PUSH1 0x5 DUP2 GT ISZERO PUSH2 0xFAA JUMPI PUSH2 0xFA9 PUSH2 0x1E19 JUMP JUMPDEST JUMPDEST DUP2 PUSH1 0x0 ADD MLOAD PUSH32 0xEFE93F21A3369F1228A2589883BC377A76D7335DADDC712853688DE4617F82AB DUP4 PUSH1 0x20 ADD MLOAD PUSH1 0x40 MLOAD PUSH2 0xFE2 SWAP2 SWAP1 PUSH2 0x1EF1 JUMP JUMPDEST PUSH1 0x40 MLOAD DUP1 SWAP2 SUB SWAP1 LOG3 POP POP JUMP JUMPDEST PUSH1 0x0 PUSH20 0xFFFFFFFFFFFFFFFFFFFFFFFFFFFFFFFFFFFFFFFF AND PUSH1 0x0 DUP1 SLOAD SWAP1 PUSH2 0x100 EXP SWAP1 DIV PUSH20 0xFFFFFFFFFFFFFFFFFFFFFFFFFFFFFFFFFFFFFFFF AND PUSH20 0xFFFFFFFFFFFFFFFFFFFFFFFFFFFFFFFFFFFFFFFF AND SUB PUSH2 0x107D JUMPI PUSH1 0x40 MLOAD PUSH32 0x8C379A000000000000000000000000000000000000000000000000000000000 DUP2 MSTORE PUSH1 0x4 ADD PUSH2 0x1074 SWAP1 PUSH2 0x1BAF JUMP JUMPDEST PUSH1 0x40 MLOAD DUP1 SWAP2 SUB SWAP1 REVERT JUMPDEST PUSH1 0x0 DUP1 SLOAD SWAP1 PUSH2 0x100 EXP SWAP1 DIV PUSH20 0xFFFFFFFFFFFFFFFFFFFFFFFFFFFFFFFFFFFFFFFF AND PUSH20 0xFFFFFFFFFFFFFFFFFFFFFFFFFFFFFFFFFFFFFFFF AND PUSH4 0xB1583546 DUP4 DUP4 PUSH1 0x40 MLOAD DUP4 PUSH4 0xFFFFFFFF AND PUSH1 0xE0 SHL DUP2 MSTORE PUSH1 0x4 ADD PUSH2 0x10D8 SWAP3 SWAP2 SWAP1 PUSH2 0x215C JUMP JUMPDEST PUSH1 0x0 PUSH1 0x40 MLOAD DUP1 DUP4 SUB DUP2 PUSH1 0x0 DUP8 DUP1 EXTCODESIZE ISZERO DUP1 ISZERO PUSH2 0x10F2 JUMPI PUSH1 0x0 DUP1 REVERT JUMPDEST POP GAS CALL ISZERO DUP1 ISZERO PUSH2 0x1106 JUMPI RETURNDATASIZE PUSH1 0x0 DUP1 RETURNDATACOPY RETURNDATASIZE PUSH1 0x0 REVERT JUMPDEST POP POP POP POP POP POP JUMP JUMPDEST PUSH1 0x0 PUSH20 0xFFFFFFFFFFFFFFFFFFFFFFFFFFFFFFFFFFFFFFFF AND PUSH1 0x0 DUP1 SLOAD SWAP1 PUSH2 0x100 EXP SWAP1 DIV PUSH20 0xFFFFFFFFFFFFFFFFFFFFFFFFFFFFFFFFFFFFFFFF AND PUSH20 0xFFFFFFFFFFFFFFFFFFFFFFFFFFFFFFFFFFFFFFFF AND SUB PUSH2 0x119D JUMPI PUSH1 0x40 MLOAD PUSH32 0x8C379A000000000000000000000000000000000000000000000000000000000 DUP2 MSTORE PUSH1 0x4 ADD PUSH2 0x1194 SWAP1 PUSH2 0x1BAF JUMP JUMPDEST PUSH1 0x40 MLOAD DUP1 SWAP2 SUB SWAP1 REVERT JUMPDEST PUSH1 0x0 DUP1 SLOAD SWAP1 PUSH2 0x100 EXP SWAP1 DIV PUSH20 0xFFFFFFFFFFFFFFFFFFFFFFFFFFFFFFFFFFFFFFFF AND PUSH20 0xFFFFFFFFFFFFFFFFFFFFFFFFFFFFFFFFFFFFFFFF AND PUSH4 0xB7F59C99 DUP4 DUP4 PUSH1 0x40 MLOAD DUP4 PUSH4 0xFFFFFFFF AND PUSH1 0xE0 SHL DUP2 MSTORE PUSH1 0x4 ADD PUSH2 0x11F8 SWAP3 SWAP2 SWAP1 PUSH2 0x2194 JUMP JUMPDEST PUSH1 0x0 PUSH1 0x40 MLOAD DUP1 DUP4 SUB DUP2 PUSH1 0x0 DUP8 DUP1 EXTCODESIZE ISZERO DUP1 ISZERO PUSH2 0x1212 JUMPI PUSH1 0x0 DUP1 REVERT JUMPDEST POP GAS CALL ISZERO DUP1 ISZERO PUSH2 0x1226 JUMPI RETURNDATASIZE PUSH1 0x0 DUP1 RETURNDATACOPY RETURNDATASIZE PUSH1 0x0 REVERT JUMPDEST POP POP POP POP POP POP JUMP JUMPDEST PUSH1 0x0 PUSH20 0xFFFFFFFFFFFFFFFFFFFFFFFFFFFFFFFFFFFFFFFF AND PUSH1 0x0 DUP1 SLOAD SWAP1 PUSH2 0x100 EXP SWAP1 DIV PUSH20 0xFFFFFFFFFFFFFFFFFFFFFFFFFFFFFFFFFFFFFFFF AND PUSH20 0xFFFFFFFFFFFFFFFFFFFFFFFFFFFFFFFFFFFFFFFF AND SUB PUSH2 0x12BD JUMPI PUSH1 0x40 MLOAD PUSH32 0x8C379A000000000000000000000000000000000000000000000000000000000 DUP2 MSTORE PUSH1 0x4 ADD PUSH2 0x12B4 SWAP1 PUSH2 0x1BAF JUMP JUMPDEST PUSH1 0x40 MLOAD DUP1 SWAP2 SUB SWAP1 REVERT JUMPDEST PUSH1 0x0 DUP1 SLOAD SWAP1 PUSH2 0x100 EXP SWAP1 DIV PUSH20 0xFFFFFFFFFFFFFFFFFFFFFFFFFFFFFFFFFFFFFFFF AND PUSH20 0xFFFFFFFFFFFFFFFFFFFFFFFFFFFFFFFFFFFFFFFF AND PUSH4 0xC12E8063 CALLVALUE DUP4 PUSH1 0x40 MLOAD DUP4 PUSH4 0xFFFFFFFF AND PUSH1 0xE0 SHL DUP2 MSTORE PUSH1 0x4 ADD PUSH2 0x1317 SWAP2 SWAP1 PUSH2 0x21BD JUMP JUMPDEST PUSH1 0x0 PUSH1 0x40 MLOAD DUP1 DUP4 SUB DUP2 DUP6 DUP9 DUP1 EXTCODESIZE ISZERO DUP1 ISZERO PUSH2 0x1330 JUMPI PUSH1 0x0 DUP1 REVERT JUMPDEST POP GAS CALL ISZERO DUP1 ISZERO PUSH2 0x1344 JUMPI RETURNDATASIZE PUSH1 0x0 DUP1 RETURNDATACOPY RETURNDATASIZE PUSH1 0x0 REVERT JUMPDEST POP POP POP POP POP POP JUMP JUMPDEST PUSH1 0x0 PUSH20 0xFFFFFFFFFFFFFFFFFFFFFFFFFFFFFFFFFFFFFFFF AND PUSH1 0x0 DUP1 SLOAD SWAP1 PUSH2 0x100 EXP SWAP1 DIV PUSH20 0xFFFFFFFFFFFFFFFFFFFFFFFFFFFFFFFFFFFFFFFF AND PUSH20 0xFFFFFFFFFFFFFFFFFFFFFFFFFFFFFFFFFFFFFFFF AND SUB PUSH2 0x13DB JUMPI PUSH1 0x40 MLOAD PUSH32 0x8C379A000000000000000000000000000000000000000000000000000000000 DUP2 MSTORE PUSH1 0x4 ADD PUSH2 0x13D2 SWAP1 PUSH2 0x1BAF JUMP JUMPDEST PUSH1 0x40 MLOAD DUP1 SWAP2 SUB SWAP1 REVERT JUMPDEST PUSH1 0x0 DUP1 PUSH1 0x0 SWAP1 SLOAD SWAP1 PUSH2 0x100 EXP SWAP1 DIV PUSH20 0xFFFFFFFFFFFFFFFFFFFFFFFFFFFFFFFFFFFFFFFF AND PUSH20 0xFFFFFFFFFFFFFFFFFFFFFFFFFFFFFFFFFFFFFFFF AND PUSH4 0xEAF5D9DC DUP7 DUP7 DUP7 DUP7 PUSH1 0x40 MLOAD DUP6 PUSH4 0xFFFFFFFF AND PUSH1 0xE0 SHL DUP2 MSTORE PUSH1 0x4 ADD PUSH2 0x143D SWAP5 SWAP4 SWAP3 SWAP2 SWAP1 PUSH2 0x21D8 JUMP JUMPDEST PUSH1 0x0 PUSH1 0x40 MLOAD DUP1 DUP4 SUB DUP2 PUSH1 0x0 DUP8 GAS CALL ISZERO DUP1 ISZERO PUSH2 0x145C JUMPI RETURNDATASIZE PUSH1 0x0 DUP1 RETURNDATACOPY RETURNDATASIZE PUSH1 0x0 REVERT JUMPDEST POP POP POP POP PUSH1 0x40 MLOAD RETURNDATASIZE PUSH1 0x0 DUP3 RETURNDATACOPY RETURNDATASIZE PUSH1 0x1F NOT PUSH1 0x1F DUP3 ADD AND DUP3 ADD DUP1 PUSH1 0x40 MSTORE POP DUP2 ADD SWAP1 PUSH2 0x1485 SWAP2 SWAP1 PUSH2 0x2017 JUMP JUMPDEST SWAP1 POP DUP1 PUSH1 0x40 ADD MLOAD PUSH1 0x5 DUP2 GT ISZERO PUSH2 0x149E JUMPI PUSH2 0x149D PUSH2 0x1E19 JUMP JUMPDEST JUMPDEST DUP2 PUSH1 0x0 ADD MLOAD PUSH32 0xEFE93F21A3369F1228A2589883BC377A76D7335DADDC712853688DE4617F82AB DUP4 PUSH1 0x20 ADD MLOAD PUSH1 0x40 MLOAD PUSH2 0x14D6 SWAP2 SWAP1 PUSH2 0x1EF1 JUMP JUMPDEST PUSH1 0x40 MLOAD DUP1 SWAP2 SUB SWAP1 LOG3 POP POP POP POP POP JUMP JUMPDEST PUSH1 0x0 PUSH1 0x40 MLOAD SWAP1 POP SWAP1 JUMP JUMPDEST PUSH1 0x0 DUP1 REVERT JUMPDEST PUSH1 0x0 DUP1 REVERT JUMPDEST PUSH1 0x0 PUSH20 0xFFFFFFFFFFFFFFFFFFFFFFFFFFFFFFFFFFFFFFFF DUP3 AND SWAP1 POP SWAP2 SWAP1 POP JUMP JUMPDEST PUSH1 0x0 PUSH2 0x1524 DUP3 PUSH2 0x14F9 JUMP JUMPDEST SWAP1 POP SWAP2 SWAP1 POP JUMP JUMPDEST PUSH2 0x1534 DUP2 PUSH2 0x1519 JUMP JUMPDEST DUP2 EQ PUSH2 0x153F JUMPI PUSH1 0x0 DUP1 REVERT JUMPDEST POP JUMP JUMPDEST PUSH1 0x0 DUP2 CALLDATALOAD SWAP1 POP PUSH2 0x1551 DUP2 PUSH2 0x152B JUMP JUMPDEST SWAP3 SWAP2 POP POP JUMP JUMPDEST PUSH1 0x0 PUSH1 0x20 DUP3 DUP5 SUB SLT ISZERO PUSH2 0x156D JUMPI PUSH2 0x156C PUSH2 0x14EF JUMP JUMPDEST JUMPDEST PUSH1 0x0 PUSH2 0x157B DUP5 DUP3 DUP6 ADD PUSH2 0x1542 JUMP JUMPDEST SWAP2 POP POP SWAP3 SWAP2 POP POP JUMP JUMPDEST PUSH2 0x158D DUP2 PUSH2 0x1519 JUMP JUMPDEST DUP3 MSTORE POP POP JUMP JUMPDEST PUSH1 0x0 PUSH1 0x20 DUP3 ADD SWAP1 POP PUSH2 0x15A8 PUSH1 0x0 DUP4 ADD DUP5 PUSH2 0x1584 JUMP JUMPDEST SWAP3 SWAP2 POP POP JUMP JUMPDEST PUSH1 0x0 DUP1 REVERT JUMPDEST PUSH1 0x0 DUP1 REVERT JUMPDEST PUSH1 0x0 PUSH1 0x1F NOT PUSH1 0x1F DUP4 ADD AND SWAP1 POP SWAP2 SWAP1 POP JUMP JUMPDEST PUSH32 0x4E487B7100000000000000000000000000000000000000000000000000000000 PUSH1 0x0 MSTORE PUSH1 0x41 PUSH1 0x4 MSTORE PUSH1 0x24 PUSH1 0x0 REVERT JUMPDEST PUSH2 0x1601 DUP3 PUSH2 0x15B8 JUMP JUMPDEST DUP2 ADD DUP2 DUP2 LT PUSH8 0xFFFFFFFFFFFFFFFF DUP3 GT OR ISZERO PUSH2 0x1620 JUMPI PUSH2 0x161F PUSH2 0x15C9 JUMP JUMPDEST JUMPDEST DUP1 PUSH1 0x40 MSTORE POP POP POP JUMP JUMPDEST PUSH1 0x0 PUSH2 0x1633 PUSH2 0x14E5 JUMP JUMPDEST SWAP1 POP PUSH2 0x163F DUP3 DUP3 PUSH2 0x15F8 JUMP JUMPDEST SWAP2 SWAP1 POP JUMP JUMPDEST PUSH1 0x0 PUSH8 0xFFFFFFFFFFFFFFFF DUP3 GT ISZERO PUSH2 0x165F JUMPI PUSH2 0x165E PUSH2 0x15C9 JUMP JUMPDEST JUMPDEST PUSH2 0x1668 DUP3 PUSH2 0x15B8 JUMP JUMPDEST SWAP1 POP PUSH1 0x20 DUP2 ADD SWAP1 POP SWAP2 SWAP1 POP JUMP JUMPDEST DUP3 DUP2 DUP4 CALLDATACOPY PUSH1 0x0 DUP4 DUP4 ADD MSTORE POP POP POP JUMP JUMPDEST PUSH1 0x0 PUSH2 0x1697 PUSH2 0x1692 DUP5 PUSH2 0x1644 JUMP JUMPDEST PUSH2 0x1629 JUMP JUMPDEST SWAP1 POP DUP3 DUP2 MSTORE PUSH1 0x20 DUP2 ADD DUP5 DUP5 DUP5 ADD GT ISZERO PUSH2 0x16B3 JUMPI PUSH2 0x16B2 PUSH2 0x15B3 JUMP JUMPDEST JUMPDEST PUSH2 0x16BE DUP5 DUP3 DUP6 PUSH2 0x1675 JUMP JUMPDEST POP SWAP4 SWAP3 POP POP POP JUMP JUMPDEST PUSH1 0x0 DUP3 PUSH1 0x1F DUP4 ADD SLT PUSH2 0x16DB JUMPI PUSH2 0x16DA PUSH2 0x15AE JUMP JUMPDEST JUMPDEST DUP2 CALLDATALOAD PUSH2 0x16EB DUP5 DUP3 PUSH1 0x20 DUP7 ADD PUSH2 0x1684 JUMP JUMPDEST SWAP2 POP POP SWAP3 SWAP2 POP POP JUMP JUMPDEST PUSH1 0x0 DUP2 SWAP1 POP SWAP2 SWAP1 POP JUMP JUMPDEST PUSH2 0x1707 DUP2 PUSH2 0x16F4 JUMP JUMPDEST DUP2 EQ PUSH2 0x1712 JUMPI PUSH1 0x0 DUP1 REVERT JUMPDEST POP JUMP JUMPDEST PUSH1 0x0 DUP2 CALLDATALOAD SWAP1 POP PUSH2 0x1724 DUP2 PUSH2 0x16FE JUMP JUMPDEST SWAP3 SWAP2 POP POP JUMP JUMPDEST PUSH1 0x0 DUP1 PUSH1 0x40 DUP4 DUP6 SUB SLT ISZERO PUSH2 0x1741 JUMPI PUSH2 0x1740 PUSH2 0x14EF JUMP JUMPDEST JUMPDEST PUSH1 0x0 DUP4 ADD CALLDATALOAD PUSH8 0xFFFFFFFFFFFFFFFF DUP2 GT ISZERO PUSH2 0x175F JUMPI PUSH2 0x175E PUSH2 0x14F4 JUMP JUMPDEST JUMPDEST PUSH2 0x176B DUP6 DUP3 DUP7 ADD PUSH2 0x16C6 JUMP JUMPDEST SWAP3 POP POP PUSH1 0x20 PUSH2 0x177C DUP6 DUP3 DUP7 ADD PUSH2 0x1715 JUMP JUMPDEST SWAP2 POP POP SWAP3 POP SWAP3 SWAP1 POP JUMP JUMPDEST PUSH1 0x4 DUP2 LT PUSH2 0x1793 JUMPI PUSH1 0x0 DUP1 REVERT JUMPDEST POP JUMP JUMPDEST PUSH1 0x0 DUP2 CALLDATALOAD SWAP1 POP PUSH2 0x17A5 DUP2 PUSH2 0x1786 JUMP JUMPDEST SWAP3 SWAP2 POP POP JUMP JUMPDEST PUSH1 0x0 DUP1 PUSH1 0x0 DUP1 PUSH1 0x0 PUSH1 0xA0 DUP7 DUP9 SUB SLT ISZERO PUSH2 0x17C7 JUMPI PUSH2 0x17C6 PUSH2 0x14EF JUMP JUMPDEST JUMPDEST PUSH1 0x0 DUP7 ADD CALLDATALOAD PUSH8 0xFFFFFFFFFFFFFFFF DUP2 GT ISZERO PUSH2 0x17E5 JUMPI PUSH2 0x17E4 PUSH2 0x14F4 JUMP JUMPDEST JUMPDEST PUSH2 0x17F1 DUP9 DUP3 DUP10 ADD PUSH2 0x16C6 JUMP JUMPDEST SWAP6 POP POP PUSH1 0x20 DUP7 ADD CALLDATALOAD PUSH8 0xFFFFFFFFFFFFFFFF DUP2 GT ISZERO PUSH2 0x1812 JUMPI PUSH2 0x1811 PUSH2 0x14F4 JUMP JUMPDEST JUMPDEST PUSH2 0x181E DUP9 DUP3 DUP10 ADD PUSH2 0x16C6 JUMP JUMPDEST SWAP5 POP POP PUSH1 0x40 PUSH2 0x182F DUP9 DUP3 DUP10 ADD PUSH2 0x1796 JUMP JUMPDEST SWAP4 POP POP PUSH1 0x60 PUSH2 0x1840 DUP9 DUP3 DUP10 ADD PUSH2 0x1715 JUMP JUMPDEST SWAP3 POP POP PUSH1 0x80 PUSH2 0x1851 DUP9 DUP3 DUP10 ADD PUSH2 0x1542 JUMP JUMPDEST SWAP2 POP POP SWAP3 SWAP6 POP SWAP3 SWAP6 SWAP1 SWAP4 POP JUMP JUMPDEST PUSH1 0x0 PUSH1 0x20 DUP3 DUP5 SUB SLT ISZERO PUSH2 0x1874 JUMPI PUSH2 0x1873 PUSH2 0x14EF JUMP JUMPDEST JUMPDEST PUSH1 0x0 DUP3 ADD CALLDATALOAD PUSH8 0xFFFFFFFFFFFFFFFF DUP2 GT ISZERO PUSH2 0x1892 JUMPI PUSH2 0x1891 PUSH2 0x14F4 JUMP JUMPDEST JUMPDEST PUSH2 0x189E DUP5 DUP3 DUP6 ADD PUSH2 0x16C6 JUMP JUMPDEST SWAP2 POP POP SWAP3 SWAP2 POP POP JUMP JUMPDEST PUSH1 0x4 DUP2 LT PUSH2 0x18B4 JUMPI PUSH1 0x0 DUP1 REVERT JUMPDEST POP JUMP JUMPDEST PUSH1 0x0 DUP2 CALLDATALOAD SWAP1 POP PUSH2 0x18C6 DUP2 PUSH2 0x18A7 JUMP JUMPDEST SWAP3 SWAP2 POP POP JUMP JUMPDEST PUSH1 0x0 DUP1 PUSH1 0x40 DUP4 DUP6 SUB SLT ISZERO PUSH2 0x18E3 JUMPI PUSH2 0x18E2 PUSH2 0x14EF JUMP JUMPDEST JUMPDEST PUSH1 0x0 DUP4 ADD CALLDATALOAD PUSH8 0xFFFFFFFFFFFFFFFF DUP2 GT ISZERO PUSH2 0x1901 JUMPI PUSH2 0x1900 PUSH2 0x14F4 JUMP JUMPDEST JUMPDEST PUSH2 0x190D DUP6 DUP3 DUP7 ADD PUSH2 0x16C6 JUMP JUMPDEST SWAP3 POP POP PUSH1 0x20 PUSH2 0x191E DUP6 DUP3 DUP7 ADD PUSH2 0x18B7 JUMP JUMPDEST SWAP2 POP POP SWAP3 POP SWAP3 SWAP1 POP JUMP JUMPDEST PUSH1 0x0 PUSH2 0xFFFF DUP3 AND SWAP1 POP SWAP2 SWAP1 POP JUMP JUMPDEST PUSH2 0x193F DUP2 PUSH2 0x1928 JUMP JUMPDEST DUP2 EQ PUSH2 0x194A JUMPI PUSH1 0x0 DUP1 REVERT JUMPDEST POP JUMP JUMPDEST PUSH1 0x0 DUP2 CALLDATALOAD SWAP1 POP PUSH2 0x195C DUP2 PUSH2 0x1936 JUMP JUMPDEST SWAP3 SWAP2 POP POP JUMP JUMPDEST PUSH1 0x0 DUP1 PUSH1 0x40 DUP4 DUP6 SUB SLT ISZERO PUSH2 0x1979 JUMPI PUSH2 0x1978 PUSH2 0x14EF JUMP JUMPDEST JUMPDEST PUSH1 0x0 PUSH2 0x1987 DUP6 DUP3 DUP7 ADD PUSH2 0x1542 JUMP JUMPDEST SWAP3 POP POP PUSH1 0x20 PUSH2 0x1998 DUP6 DUP3 DUP7 ADD PUSH2 0x194D JUMP JUMPDEST SWAP2 POP POP SWAP3 POP SWAP3 SWAP1 POP JUMP JUMPDEST PUSH1 0x0 DUP2 ISZERO ISZERO SWAP1 POP SWAP2 SWAP1 POP JUMP JUMPDEST PUSH2 0x19B7 DUP2 PUSH2 0x19A2 JUMP JUMPDEST DUP2 EQ PUSH2 0x19C2 JUMPI PUSH1 0x0 DUP1 REVERT JUMPDEST POP JUMP JUMPDEST PUSH1 0x0 DUP2 CALLDATALOAD SWAP1 POP PUSH2 0x19D4 DUP2 PUSH2 0x19AE JUMP JUMPDEST SWAP3 SWAP2 POP POP JUMP JUMPDEST PUSH1 0x0 DUP1 PUSH1 0x40 DUP4 DUP6 SUB SLT ISZERO PUSH2 0x19F1 JUMPI PUSH2 0x19F0 PUSH2 0x14EF JUMP JUMPDEST JUMPDEST PUSH1 0x0 PUSH2 0x19FF DUP6 DUP3 DUP7 ADD PUSH2 0x1542 JUMP JUMPDEST SWAP3 POP POP PUSH1 0x20 PUSH2 0x1A10 DUP6 DUP3 DUP7 ADD PUSH2 0x19C5 JUMP JUMPDEST SWAP2 POP POP SWAP3 POP SWAP3 SWAP1 POP JUMP JUMPDEST PUSH1 0x0 PUSH1 0x20 DUP3 DUP5 SUB SLT ISZERO PUSH2 0x1A30 JUMPI PUSH2 0x1A2F PUSH2 0x14EF JUMP JUMPDEST JUMPDEST PUSH1 0x0 PUSH2 0x1A3E DUP5 DUP3 DUP6 ADD PUSH2 0x194D JUMP JUMPDEST SWAP2 POP POP SWAP3 SWAP2 POP POP JUMP JUMPDEST PUSH1 0x0 DUP1 PUSH1 0x0 DUP1 PUSH1 0x80 DUP6 DUP8 SUB SLT ISZERO PUSH2 0x1A61 JUMPI PUSH2 0x1A60 PUSH2 0x14EF JUMP JUMPDEST JUMPDEST PUSH1 0x0 DUP6 ADD CALLDATALOAD PUSH8 0xFFFFFFFFFFFFFFFF DUP2 GT ISZERO PUSH2 0x1A7F JUMPI PUSH2 0x1A7E PUSH2 0x14F4 JUMP JUMPDEST JUMPDEST PUSH2 0x1A8B DUP8 DUP3 DUP9 ADD PUSH2 0x16C6 JUMP JUMPDEST SWAP5 POP POP PUSH1 0x20 DUP6 ADD CALLDATALOAD PUSH8 0xFFFFFFFFFFFFFFFF DUP2 GT ISZERO PUSH2 0x1AAC JUMPI PUSH2 0x1AAB PUSH2 0x14F4 JUMP JUMPDEST JUMPDEST PUSH2 0x1AB8 DUP8 DUP3 DUP9 ADD PUSH2 0x16C6 JUMP JUMPDEST SWAP4 POP POP PUSH1 0x40 PUSH2 0x1AC9 DUP8 DUP3 DUP9 ADD PUSH2 0x1715 JUMP JUMPDEST SWAP3 POP POP PUSH1 0x60 PUSH2 0x1ADA DUP8 DUP3 DUP9 ADD PUSH2 0x1542 JUMP JUMPDEST SWAP2 POP POP SWAP3 SWAP6 SWAP2 SWAP5 POP SWAP3 POP JUMP JUMPDEST PUSH1 0x0 DUP3 DUP3 MSTORE PUSH1 0x20 DUP3 ADD SWAP1 POP SWAP3 SWAP2 POP POP JUMP JUMPDEST PUSH32 0x596F7520646F206E6F742068617665207065726D697373696F6E000000000000 PUSH1 0x0 DUP3 ADD MSTORE POP JUMP JUMPDEST PUSH1 0x0 PUSH2 0x1B2D PUSH1 0x1A DUP4 PUSH2 0x1AE6 JUMP JUMPDEST SWAP2 POP PUSH2 0x1B38 DUP3 PUSH2 0x1AF7 JUMP JUMPDEST PUSH1 0x20 DUP3 ADD SWAP1 POP SWAP2 SWAP1 POP JUMP JUMPDEST PUSH1 0x0 PUSH1 0x20 DUP3 ADD SWAP1 POP DUP2 DUP2 SUB PUSH1 0x0 DUP4 ADD MSTORE PUSH2 0x1B5C DUP2 PUSH2 0x1B20 JUMP JUMPDEST SWAP1 POP SWAP2 SWAP1 POP JUMP JUMPDEST PUSH32 0x596F75206D757374207570677261642066697273740000000000000000000000 PUSH1 0x0 DUP3 ADD MSTORE POP JUMP JUMPDEST PUSH1 0x0 PUSH2 0x1B99 PUSH1 0x15 DUP4 PUSH2 0x1AE6 JUMP JUMPDEST SWAP2 POP PUSH2 0x1BA4 DUP3 PUSH2 0x1B63 JUMP JUMPDEST PUSH1 0x20 DUP3 ADD SWAP1 POP SWAP2 SWAP1 POP JUMP JUMPDEST PUSH1 0x0 PUSH1 0x20 DUP3 ADD SWAP1 POP DUP2 DUP2 SUB PUSH1 0x0 DUP4 ADD MSTORE PUSH2 0x1BC8 DUP2 PUSH2 0x1B8C JUMP JUMPDEST SWAP1 POP SWAP2 SWAP1 POP JUMP JUMPDEST PUSH1 0x0 DUP2 MLOAD SWAP1 POP SWAP2 SWAP1 POP JUMP JUMPDEST PUSH1 0x0 JUMPDEST DUP4 DUP2 LT ISZERO PUSH2 0x1BF8 JUMPI DUP1 DUP3 ADD MLOAD DUP2 DUP5 ADD MSTORE PUSH1 0x20 DUP2 ADD SWAP1 POP PUSH2 0x1BDD JUMP JUMPDEST PUSH1 0x0 DUP5 DUP5 ADD MSTORE POP POP POP POP JUMP JUMPDEST PUSH1 0x0 PUSH2 0x1C0F DUP3 PUSH2 0x1BCF JUMP JUMPDEST PUSH2 0x1C19 DUP2 DUP6 PUSH2 0x1AE6 JUMP JUMPDEST SWAP4 POP PUSH2 0x1C29 DUP2 DUP6 PUSH1 0x20 DUP7 ADD PUSH2 0x1BDA JUMP JUMPDEST PUSH2 0x1C32 DUP2 PUSH2 0x15B8 JUMP JUMPDEST DUP5 ADD SWAP2 POP POP SWAP3 SWAP2 POP POP JUMP JUMPDEST PUSH2 0x1C46 DUP2 PUSH2 0x16F4 JUMP JUMPDEST DUP3 MSTORE POP POP JUMP JUMPDEST PUSH1 0x0 PUSH1 0x40 DUP3 ADD SWAP1 POP DUP2 DUP2 SUB PUSH1 0x0 DUP4 ADD MSTORE PUSH2 0x1C66 DUP2 DUP6 PUSH2 0x1C04 JUMP JUMPDEST SWAP1 POP PUSH2 0x1C75 PUSH1 0x20 DUP4 ADD DUP5 PUSH2 0x1C3D JUMP JUMPDEST SWAP4 SWAP3 POP POP POP JUMP JUMPDEST PUSH1 0x0 DUP1 REVERT JUMPDEST PUSH1 0x0 DUP1 REVERT JUMPDEST PUSH1 0x0 DUP2 MLOAD SWAP1 POP PUSH2 0x1C95 DUP2 PUSH2 0x152B JUMP JUMPDEST SWAP3 SWAP2 POP POP JUMP JUMPDEST PUSH1 0x0 DUP2 MLOAD SWAP1 POP PUSH2 0x1CAA DUP2 PUSH2 0x16FE JUMP JUMPDEST SWAP3 SWAP2 POP POP JUMP JUMPDEST PUSH1 0x0 PUSH2 0x1CC3 PUSH2 0x1CBE DUP5 PUSH2 0x1644 JUMP JUMPDEST PUSH2 0x1629 JUMP JUMPDEST SWAP1 POP DUP3 DUP2 MSTORE PUSH1 0x20 DUP2 ADD DUP5 DUP5 DUP5 ADD GT ISZERO PUSH2 0x1CDF JUMPI PUSH2 0x1CDE PUSH2 0x15B3 JUMP JUMPDEST JUMPDEST PUSH2 0x1CEA DUP5 DUP3 DUP6 PUSH2 0x1BDA JUMP JUMPDEST POP SWAP4 SWAP3 POP POP POP JUMP JUMPDEST PUSH1 0x0 DUP3 PUSH1 0x1F DUP4 ADD SLT PUSH2 0x1D07 JUMPI PUSH2 0x1D06 PUSH2 0x15AE JUMP JUMPDEST JUMPDEST DUP2 MLOAD PUSH2 0x1D17 DUP5 DUP3 PUSH1 0x20 DUP7 ADD PUSH2 0x1CB0 JUMP JUMPDEST SWAP2 POP POP SWAP3 SWAP2 POP POP JUMP JUMPDEST PUSH1 0x0 PUSH1 0x60 DUP3 DUP5 SUB SLT ISZERO PUSH2 0x1D36 JUMPI PUSH2 0x1D35 PUSH2 0x1C7C JUMP JUMPDEST JUMPDEST PUSH2 0x1D40 PUSH1 0x60 PUSH2 0x1629 JUMP JUMPDEST SWAP1 POP PUSH1 0x0 PUSH2 0x1D50 DUP5 DUP3 DUP6 ADD PUSH2 0x1C86 JUMP JUMPDEST PUSH1 0x0 DUP4 ADD MSTORE POP PUSH1 0x20 PUSH2 0x1D64 DUP5 DUP3 DUP6 ADD PUSH2 0x1C9B JUMP JUMPDEST PUSH1 0x20 DUP4 ADD MSTORE POP PUSH1 0x40 DUP3 ADD MLOAD PUSH8 0xFFFFFFFFFFFFFFFF DUP2 GT ISZERO PUSH2 0x1D88 JUMPI PUSH2 0x1D87 PUSH2 0x1C81 JUMP JUMPDEST JUMPDEST PUSH2 0x1D94 DUP5 DUP3 DUP6 ADD PUSH2 0x1CF2 JUMP JUMPDEST PUSH1 0x40 DUP4 ADD MSTORE POP SWAP3 SWAP2 POP POP JUMP JUMPDEST PUSH1 0x0 PUSH1 0x20 DUP3 DUP5 SUB SLT ISZERO PUSH2 0x1DB6 JUMPI PUSH2 0x1DB5 PUSH2 0x14EF JUMP JUMPDEST JUMPDEST PUSH1 0x0 DUP3 ADD MLOAD PUSH8 0xFFFFFFFFFFFFFFFF DUP2 GT ISZERO PUSH2 0x1DD4 JUMPI PUSH2 0x1DD3 PUSH2 0x14F4 JUMP JUMPDEST JUMPDEST PUSH2 0x1DE0 DUP5 DUP3 DUP6 ADD PUSH2 0x1D20 JUMP JUMPDEST SWAP2 POP POP SWAP3 SWAP2 POP POP JUMP JUMPDEST PUSH1 0x0 PUSH1 0x40 DUP3 ADD SWAP1 POP PUSH2 0x1DFE PUSH1 0x0 DUP4 ADD DUP6 PUSH2 0x1584 JUMP JUMPDEST DUP2 DUP2 SUB PUSH1 0x20 DUP4 ADD MSTORE PUSH2 0x1E10 DUP2 DUP5 PUSH2 0x1C04 JUMP JUMPDEST SWAP1 POP SWAP4 SWAP3 POP POP POP JUMP JUMPDEST PUSH32 0x4E487B7100000000000000000000000000000000000000000000000000000000 PUSH1 0x0 MSTORE PUSH1 0x21 PUSH1 0x4 MSTORE PUSH1 0x24 PUSH1 0x0 REVERT JUMPDEST PUSH1 0x4 DUP2 LT PUSH2 0x1E59 JUMPI PUSH2 0x1E58 PUSH2 0x1E19 JUMP JUMPDEST JUMPDEST POP JUMP JUMPDEST PUSH1 0x0 DUP2 SWAP1 POP PUSH2 0x1E6A DUP3 PUSH2 0x1E48 JUMP JUMPDEST SWAP2 SWAP1 POP JUMP JUMPDEST PUSH1 0x0 PUSH2 0x1E7A DUP3 PUSH2 0x1E5C JUMP JUMPDEST SWAP1 POP SWAP2 SWAP1 POP JUMP JUMPDEST PUSH2 0x1E8A DUP2 PUSH2 0x1E6F JUMP JUMPDEST DUP3 MSTORE POP POP JUMP JUMPDEST PUSH1 0x0 PUSH1 0xA0 DUP3 ADD SWAP1 POP DUP2 DUP2 SUB PUSH1 0x0 DUP4 ADD MSTORE PUSH2 0x1EAA DUP2 DUP9 PUSH2 0x1C04 JUMP JUMPDEST SWAP1 POP DUP2 DUP2 SUB PUSH1 0x20 DUP4 ADD MSTORE PUSH2 0x1EBE DUP2 DUP8 PUSH2 0x1C04 JUMP JUMPDEST SWAP1 POP PUSH2 0x1ECD PUSH1 0x40 DUP4 ADD DUP7 PUSH2 0x1E81 JUMP JUMPDEST PUSH2 0x1EDA PUSH1 0x60 DUP4 ADD DUP6 PUSH2 0x1C3D JUMP JUMPDEST PUSH2 0x1EE7 PUSH1 0x80 DUP4 ADD DUP5 PUSH2 0x1584 JUMP JUMPDEST SWAP7 SWAP6 POP POP POP POP POP POP JUMP JUMPDEST PUSH1 0x0 PUSH1 0x20 DUP3 ADD SWAP1 POP DUP2 DUP2 SUB PUSH1 0x0 DUP4 ADD MSTORE PUSH2 0x1F0B DUP2 DUP5 PUSH2 0x1C04 JUMP JUMPDEST SWAP1 POP SWAP3 SWAP2 POP POP JUMP JUMPDEST PUSH1 0x0 DUP2 SWAP1 POP SWAP2 SWAP1 POP JUMP JUMPDEST PUSH2 0x1F26 DUP2 PUSH2 0x1F13 JUMP JUMPDEST DUP2 EQ PUSH2 0x1F31 JUMPI PUSH1 0x0 DUP1 REVERT JUMPDEST POP JUMP JUMPDEST PUSH1 0x0 DUP2 MLOAD SWAP1 POP PUSH2 0x1F43 DUP2 PUSH2 0x1F1D JUMP JUMPDEST SWAP3 SWAP2 POP POP JUMP JUMPDEST PUSH1 0x6 DUP2 LT PUSH2 0x1F56 JUMPI PUSH1 0x0 DUP1 REVERT JUMPDEST POP JUMP JUMPDEST PUSH1 0x0 DUP2 MLOAD SWAP1 POP PUSH2 0x1F68 DUP2 PUSH2 0x1F49 JUMP JUMPDEST SWAP3 SWAP2 POP POP JUMP JUMPDEST PUSH1 0x0 DUP2 MLOAD SWAP1 POP PUSH2 0x1F7D DUP2 PUSH2 0x1786 JUMP JUMPDEST SWAP3 SWAP2 POP POP JUMP JUMPDEST PUSH1 0x0 PUSH1 0x80 DUP3 DUP5 SUB SLT ISZERO PUSH2 0x1F99 JUMPI PUSH2 0x1F98 PUSH2 0x1C7C JUMP JUMPDEST JUMPDEST PUSH2 0x1FA3 PUSH1 0x80 PUSH2 0x1629 JUMP JUMPDEST SWAP1 POP PUSH1 0x0 PUSH2 0x1FB3 DUP5 DUP3 DUP6 ADD PUSH2 0x1F34 JUMP JUMPDEST PUSH1 0x0 DUP4 ADD MSTORE POP PUSH1 0x20 DUP3 ADD MLOAD PUSH8 0xFFFFFFFFFFFFFFFF DUP2 GT ISZERO PUSH2 0x1FD7 JUMPI PUSH2 0x1FD6 PUSH2 0x1C81 JUMP JUMPDEST JUMPDEST PUSH2 0x1FE3 DUP5 DUP3 DUP6 ADD PUSH2 0x1CF2 JUMP JUMPDEST PUSH1 0x20 DUP4 ADD MSTORE POP PUSH1 0x40 PUSH2 0x1FF7 DUP5 DUP3 DUP6 ADD PUSH2 0x1F59 JUMP JUMPDEST PUSH1 0x40 DUP4 ADD MSTORE POP PUSH1 0x60 PUSH2 0x200B DUP5 DUP3 DUP6 ADD PUSH2 0x1F6E JUMP JUMPDEST PUSH1 0x60 DUP4 ADD MSTORE POP SWAP3 SWAP2 POP POP JUMP JUMPDEST PUSH1 0x0 PUSH1 0x20 DUP3 DUP5 SUB SLT ISZERO PUSH2 0x202D JUMPI PUSH2 0x202C PUSH2 0x14EF JUMP JUMPDEST JUMPDEST PUSH1 0x0 DUP3 ADD MLOAD PUSH8 0xFFFFFFFFFFFFFFFF DUP2 GT ISZERO PUSH2 0x204B JUMPI PUSH2 0x204A PUSH2 0x14F4 JUMP JUMPDEST JUMPDEST PUSH2 0x2057 DUP5 DUP3 DUP6 ADD PUSH2 0x1F83 JUMP JUMPDEST SWAP2 POP POP SWAP3 SWAP2 POP POP JUMP JUMPDEST PUSH1 0x0 PUSH1 0x20 DUP3 DUP5 SUB SLT ISZERO PUSH2 0x2076 JUMPI PUSH2 0x2075 PUSH2 0x14EF JUMP JUMPDEST JUMPDEST PUSH1 0x0 PUSH2 0x2084 DUP5 DUP3 DUP6 ADD PUSH2 0x1C86 JUMP JUMPDEST SWAP2 POP POP SWAP3 SWAP2 POP POP JUMP JUMPDEST PUSH1 0x0 PUSH1 0x20 DUP3 DUP5 SUB SLT ISZERO PUSH2 0x20A3 JUMPI PUSH2 0x20A2 PUSH2 0x14EF JUMP JUMPDEST JUMPDEST PUSH1 0x0 PUSH2 0x20B1 DUP5 DUP3 DUP6 ADD PUSH2 0x1C9B JUMP JUMPDEST SWAP2 POP POP SWAP3 SWAP2 POP POP JUMP JUMPDEST PUSH1 0x0 PUSH1 0x20 DUP3 ADD SWAP1 POP PUSH2 0x20CF PUSH1 0x0 DUP4 ADD DUP5 PUSH2 0x1C3D JUMP JUMPDEST SWAP3 SWAP2 POP POP JUMP JUMPDEST PUSH1 0x4 DUP2 LT PUSH2 0x20E6 JUMPI PUSH2 0x20E5 PUSH2 0x1E19 JUMP JUMPDEST JUMPDEST POP JUMP JUMPDEST PUSH1 0x0 DUP2 SWAP1 POP PUSH2 0x20F7 DUP3 PUSH2 0x20D5 JUMP JUMPDEST SWAP2 SWAP1 POP JUMP JUMPDEST PUSH1 0x0 PUSH2 0x2107 DUP3 PUSH2 0x20E9 JUMP JUMPDEST SWAP1 POP SWAP2 SWAP1 POP JUMP JUMPDEST PUSH2 0x2117 DUP2 PUSH2 0x20FC JUMP JUMPDEST DUP3 MSTORE POP POP JUMP JUMPDEST PUSH1 0x0 PUSH1 0x40 DUP3 ADD SWAP1 POP DUP2 DUP2 SUB PUSH1 0x0 DUP4 ADD MSTORE PUSH2 0x2137 DUP2 DUP6 PUSH2 0x1C04 JUMP JUMPDEST SWAP1 POP PUSH2 0x2146 PUSH1 0x20 DUP4 ADD DUP5 PUSH2 0x210E JUMP JUMPDEST SWAP4 SWAP3 POP POP POP JUMP JUMPDEST PUSH2 0x2156 DUP2 PUSH2 0x1928 JUMP JUMPDEST DUP3 MSTORE POP POP JUMP JUMPDEST PUSH1 0x0 PUSH1 0x40 DUP3 ADD SWAP1 POP PUSH2 0x2171 PUSH1 0x0 DUP4 ADD DUP6 PUSH2 0x1584 JUMP JUMPDEST PUSH2 0x217E PUSH1 0x20 DUP4 ADD DUP5 PUSH2 0x214D JUMP JUMPDEST SWAP4 SWAP3 POP POP POP JUMP JUMPDEST PUSH2 0x218E DUP2 PUSH2 0x19A2 JUMP JUMPDEST DUP3 MSTORE POP POP JUMP JUMPDEST PUSH1 0x0 PUSH1 0x40 DUP3 ADD SWAP1 POP PUSH2 0x21A9 PUSH1 0x0 DUP4 ADD DUP6 PUSH2 0x1584 JUMP JUMPDEST PUSH2 0x21B6 PUSH1 0x20 DUP4 ADD DUP5 PUSH2 0x2185 JUMP JUMPDEST SWAP4 SWAP3 POP POP POP JUMP JUMPDEST PUSH1 0x0 PUSH1 0x20 DUP3 ADD SWAP1 POP PUSH2 0x21D2 PUSH1 0x0 DUP4 ADD DUP5 PUSH2 0x214D JUMP JUMPDEST SWAP3 SWAP2 POP POP JUMP JUMPDEST PUSH1 0x0 PUSH1 0x80 DUP3 ADD SWAP1 POP DUP2 DUP2 SUB PUSH1 0x0 DUP4 ADD MSTORE PUSH2 0x21F2 DUP2 DUP8 PUSH2 0x1C04 JUMP JUMPDEST SWAP1 POP DUP2 DUP2 SUB PUSH1 0x20 DUP4 ADD MSTORE PUSH2 0x2206 DUP2 DUP7 PUSH2 0x1C04 JUMP JUMPDEST SWAP1 POP PUSH2 0x2215 PUSH1 0x40 DUP4 ADD DUP6 PUSH2 0x1C3D JUMP JUMPDEST PUSH2 0x2222 PUSH1 0x60 DUP4 ADD DUP5 PUSH2 0x1584 JUMP JUMPDEST SWAP6 SWAP5 POP POP POP POP POP JUMP INVALID LOG2 PUSH5 0x6970667358 0x22 SLT KECCAK256 ADDRESS GT 0xFB PUSH1 0x46 0xB4 MSTORE8 0xAF 0xEE SSTORE 0xC0 0xB9 0xDA PUSH30 0x9C3D641E66062066C4957EC6337E0F577DBC64736F6C634300081C003300 "
        },
        "methodIdentifiers": {
          "addResident(address,uint16)": "b1583546",
          "addTopic(string,string,uint8,uint256,address)": "43b8c6b1",
          "closeVoting(string)": "8fc5dad8",
          "editTopic(string,string,uint256,address)": "eaf5d9dc",
          "getImplementAddress()": "10b2b981",
          "openVoting(string)": "9e1bf985",
          "owner()": "8da5cb5b",
          "payQuota(uint16)": "c12e8063",
          "removeResident(address)": "597de987",
          "removeTopic(string)": "7b57ee49",
          "setConsuelor(address,bool)": "b7f59c99",
          "transfer(string,uint256)": "12cb70c7",
          "upgrade(address)": "0900f010",
          "vote(string,uint8)": "90ca27f3"
        }
      }
    }
  }
}