{
  "contracts/Condominium.sol": {
    "Condominium": {
      "abi": [
        {
          "inputs": [],
          "stateMutability": "nonpayable",
          "type": "constructor"
        },
        {
          "inputs": [
            {
              "internalType": "address",
              "name": "resident",
              "type": "address"
            },
            {
              "internalType": "uint16",
              "name": "residenceId",
              "type": "uint16"
            }
          ],
          "name": "addResident",
          "outputs": [],
          "stateMutability": "nonpayable",
          "type": "function"
        },
        {
          "inputs": [
            {
              "internalType": "string",
              "name": "title",
              "type": "string"
            },
            {
              "internalType": "string",
              "name": "description",
              "type": "string"
            },
            {
              "internalType": "enum CondominiumLib.Category",
              "name": "category",
              "type": "uint8"
            },
            {
              "internalType": "uint256",
              "name": "amount",
              "type": "uint256"
            },
            {
              "internalType": "address",
              "name": "responsible",
              "type": "address"
            }
          ],
          "name": "addTopic",
          "outputs": [],
          "stateMutability": "nonpayable",
          "type": "function"
        },
        {
          "inputs": [
            {
              "internalType": "string",
              "name": "title",
              "type": "string"
            }
          ],
          "name": "closeVoting",
          "outputs": [
            {
              "components": [
                {
                  "internalType": "bytes32",
                  "name": "id",
                  "type": "bytes32"
                },
                {
                  "internalType": "string",
                  "name": "title",
                  "type": "string"
                },
                {
                  "internalType": "enum CondominiumLib.Status",
                  "name": "status",
                  "type": "uint8"
                },
                {
                  "internalType": "enum CondominiumLib.Category",
                  "name": "category",
                  "type": "uint8"
                }
              ],
              "internalType": "struct CondominiumLib.TopicUpdate",
              "name": "",
              "type": "tuple"
            }
          ],
          "stateMutability": "nonpayable",
          "type": "function"
        },
        {
          "inputs": [
            {
              "internalType": "address",
              "name": "",
              "type": "address"
            }
          ],
          "name": "counselors",
          "outputs": [
            {
              "internalType": "bool",
              "name": "",
              "type": "bool"
            }
          ],
          "stateMutability": "view",
          "type": "function"
        },
        {
          "inputs": [
            {
              "internalType": "string",
              "name": "topicToEdit",
              "type": "string"
            },
            {
              "internalType": "string",
              "name": "description",
              "type": "string"
            },
            {
              "internalType": "uint256",
              "name": "amount",
              "type": "uint256"
            },
            {
              "internalType": "address",
              "name": "responsible",
              "type": "address"
            }
          ],
          "name": "editTopic",
          "outputs": [
            {
              "components": [
                {
                  "internalType": "bytes32",
                  "name": "id",
                  "type": "bytes32"
                },
                {
                  "internalType": "string",
                  "name": "title",
                  "type": "string"
                },
                {
                  "internalType": "enum CondominiumLib.Status",
                  "name": "status",
                  "type": "uint8"
                },
                {
                  "internalType": "enum CondominiumLib.Category",
                  "name": "category",
                  "type": "uint8"
                }
              ],
              "internalType": "struct CondominiumLib.TopicUpdate",
              "name": "",
              "type": "tuple"
            }
          ],
          "stateMutability": "nonpayable",
          "type": "function"
        },
        {
          "inputs": [],
          "name": "getManager",
          "outputs": [
            {
              "internalType": "address",
              "name": "",
              "type": "address"
            }
          ],
          "stateMutability": "view",
          "type": "function"
        },
        {
          "inputs": [],
          "name": "getQuota",
          "outputs": [
            {
              "internalType": "uint256",
              "name": "",
              "type": "uint256"
            }
          ],
          "stateMutability": "view",
          "type": "function"
        },
        {
          "inputs": [
            {
              "internalType": "string",
              "name": "title",
              "type": "string"
            }
          ],
          "name": "getTopic",
          "outputs": [
            {
              "components": [
                {
                  "internalType": "string",
                  "name": "title",
                  "type": "string"
                },
                {
                  "internalType": "string",
                  "name": "description",
                  "type": "string"
                },
                {
                  "internalType": "enum CondominiumLib.Status",
                  "name": "status",
                  "type": "uint8"
                },
                {
                  "internalType": "uint256",
                  "name": "createdDate",
                  "type": "uint256"
                },
                {
                  "internalType": "uint256",
                  "name": "startDate",
                  "type": "uint256"
                },
                {
                  "internalType": "uint256",
                  "name": "endDate",
                  "type": "uint256"
                },
                {
                  "internalType": "enum CondominiumLib.Category",
                  "name": "category",
                  "type": "uint8"
                },
                {
                  "internalType": "uint256",
                  "name": "amount",
                  "type": "uint256"
                },
                {
                  "internalType": "address",
                  "name": "responsible",
                  "type": "address"
                }
              ],
              "internalType": "struct CondominiumLib.Topic",
              "name": "",
              "type": "tuple"
            }
          ],
          "stateMutability": "view",
          "type": "function"
        },
        {
          "inputs": [
            {
              "internalType": "address",
              "name": "resident",
              "type": "address"
            }
          ],
          "name": "isResident",
          "outputs": [
            {
              "internalType": "bool",
              "name": "",
              "type": "bool"
            }
          ],
          "stateMutability": "view",
          "type": "function"
        },
        {
          "inputs": [],
          "name": "manager",
          "outputs": [
            {
              "internalType": "address",
              "name": "",
              "type": "address"
            }
          ],
          "stateMutability": "view",
          "type": "function"
        },
        {
          "inputs": [],
          "name": "monthlyQuota",
          "outputs": [
            {
              "internalType": "uint256",
              "name": "",
              "type": "uint256"
            }
          ],
          "stateMutability": "view",
          "type": "function"
        },
        {
          "inputs": [
            {
              "internalType": "string",
              "name": "title",
              "type": "string"
            }
          ],
          "name": "numberOfVotes",
          "outputs": [
            {
              "internalType": "uint256",
              "name": "",
              "type": "uint256"
            }
          ],
          "stateMutability": "view",
          "type": "function"
        },
        {
          "inputs": [
            {
              "internalType": "string",
              "name": "title",
              "type": "string"
            }
          ],
          "name": "openVoting",
          "outputs": [
            {
              "components": [
                {
                  "internalType": "bytes32",
                  "name": "id",
                  "type": "bytes32"
                },
                {
                  "internalType": "string",
                  "name": "title",
                  "type": "string"
                },
                {
                  "internalType": "enum CondominiumLib.Status",
                  "name": "status",
                  "type": "uint8"
                },
                {
                  "internalType": "enum CondominiumLib.Category",
                  "name": "category",
                  "type": "uint8"
                }
              ],
              "internalType": "struct CondominiumLib.TopicUpdate",
              "name": "",
              "type": "tuple"
            }
          ],
          "stateMutability": "nonpayable",
          "type": "function"
        },
        {
          "inputs": [
            {
              "internalType": "uint16",
              "name": "residenceId",
              "type": "uint16"
            }
          ],
          "name": "payQuota",
          "outputs": [],
          "stateMutability": "payable",
          "type": "function"
        },
        {
          "inputs": [
            {
              "internalType": "uint16",
              "name": "",
              "type": "uint16"
            }
          ],
          "name": "payments",
          "outputs": [
            {
              "internalType": "uint256",
              "name": "",
              "type": "uint256"
            }
          ],
          "stateMutability": "view",
          "type": "function"
        },
        {
          "inputs": [
            {
              "internalType": "address",
              "name": "resident",
              "type": "address"
            }
          ],
          "name": "removeResident",
          "outputs": [],
          "stateMutability": "nonpayable",
          "type": "function"
        },
        {
          "inputs": [
            {
              "internalType": "string",
              "name": "title",
              "type": "string"
            }
          ],
          "name": "removeTopic",
          "outputs": [
            {
              "components": [
                {
                  "internalType": "bytes32",
                  "name": "id",
                  "type": "bytes32"
                },
                {
                  "internalType": "string",
                  "name": "title",
                  "type": "string"
                },
                {
                  "internalType": "enum CondominiumLib.Status",
                  "name": "status",
                  "type": "uint8"
                },
                {
                  "internalType": "enum CondominiumLib.Category",
                  "name": "category",
                  "type": "uint8"
                }
              ],
              "internalType": "struct CondominiumLib.TopicUpdate",
              "name": "",
              "type": "tuple"
            }
          ],
          "stateMutability": "nonpayable",
          "type": "function"
        },
        {
          "inputs": [
            {
              "internalType": "uint16",
              "name": "residenceId",
              "type": "uint16"
            }
          ],
          "name": "residenceExists",
          "outputs": [
            {
              "internalType": "bool",
              "name": "",
              "type": "bool"
            }
          ],
          "stateMutability": "view",
          "type": "function"
        },
        {
          "inputs": [
            {
              "internalType": "uint16",
              "name": "",
              "type": "uint16"
            }
          ],
          "name": "residences",
          "outputs": [
            {
              "internalType": "bool",
              "name": "",
              "type": "bool"
            }
          ],
          "stateMutability": "view",
          "type": "function"
        },
        {
          "inputs": [
            {
              "internalType": "address",
              "name": "",
              "type": "address"
            }
          ],
          "name": "residents",
          "outputs": [
            {
              "internalType": "uint16",
              "name": "",
              "type": "uint16"
            }
          ],
          "stateMutability": "view",
          "type": "function"
        },
        {
          "inputs": [
            {
              "internalType": "address",
              "name": "resident",
              "type": "address"
            },
            {
              "internalType": "bool",
              "name": "isEntering",
              "type": "bool"
            }
          ],
          "name": "setConsuelor",
          "outputs": [],
          "stateMutability": "nonpayable",
          "type": "function"
        },
        {
          "inputs": [
            {
              "internalType": "string",
              "name": "title",
              "type": "string"
            }
          ],
          "name": "topicExists",
          "outputs": [
            {
              "internalType": "bool",
              "name": "",
              "type": "bool"
            }
          ],
          "stateMutability": "view",
          "type": "function"
        },
        {
          "inputs": [
            {
              "internalType": "bytes32",
              "name": "",
              "type": "bytes32"
            }
          ],
          "name": "topics",
          "outputs": [
            {
              "internalType": "string",
              "name": "title",
              "type": "string"
            },
            {
              "internalType": "string",
              "name": "description",
              "type": "string"
            },
            {
              "internalType": "enum CondominiumLib.Status",
              "name": "status",
              "type": "uint8"
            },
            {
              "internalType": "uint256",
              "name": "createdDate",
              "type": "uint256"
            },
            {
              "internalType": "uint256",
              "name": "startDate",
              "type": "uint256"
            },
            {
              "internalType": "uint256",
              "name": "endDate",
              "type": "uint256"
            },
            {
              "internalType": "enum CondominiumLib.Category",
              "name": "category",
              "type": "uint8"
            },
            {
              "internalType": "uint256",
              "name": "amount",
              "type": "uint256"
            },
            {
              "internalType": "address",
              "name": "responsible",
              "type": "address"
            }
          ],
          "stateMutability": "view",
          "type": "function"
        },
        {
          "inputs": [
            {
              "internalType": "string",
              "name": "topicTitle",
              "type": "string"
            },
            {
              "internalType": "uint256",
              "name": "amount",
              "type": "uint256"
            }
          ],
          "name": "transfer",
          "outputs": [
            {
              "components": [
                {
                  "internalType": "address",
                  "name": "to",
                  "type": "address"
                },
                {
                  "internalType": "uint256",
                  "name": "amount",
                  "type": "uint256"
                },
                {
                  "internalType": "string",
                  "name": "topic",
                  "type": "string"
                }
              ],
              "internalType": "struct CondominiumLib.TransferReceipt",
              "name": "",
              "type": "tuple"
            }
          ],
          "stateMutability": "nonpayable",
          "type": "function"
        },
        {
          "inputs": [
            {
              "internalType": "string",
              "name": "title",
              "type": "string"
            },
            {
              "internalType": "enum CondominiumLib.Options",
              "name": "option",
              "type": "uint8"
            }
          ],
          "name": "vote",
          "outputs": [],
          "stateMutability": "nonpayable",
          "type": "function"
        },
        {
          "inputs": [
            {
              "internalType": "bytes32",
              "name": "",
              "type": "bytes32"
            },
            {
              "internalType": "uint256",
              "name": "",
              "type": "uint256"
            }
          ],
          "name": "votes",
          "outputs": [
            {
              "internalType": "address",
              "name": "resident",
              "type": "address"
            },
            {
              "internalType": "uint16",
              "name": "residence",
              "type": "uint16"
            },
            {
              "internalType": "enum CondominiumLib.Options",
              "name": "option",
              "type": "uint8"
            },
            {
              "internalType": "uint256",
              "name": "timestamp",
              "type": "uint256"
            }
          ],
          "stateMutability": "view",
          "type": "function"
        }
      ],
      "evm": {
        "bytecode": {
          "linkReferences": {},
          "object": "6080604052662386f26fc1000060015534801561001b57600080fd5b50336000806101000a81548173ffffffffffffffffffffffffffffffffffffffff021916908373ffffffffffffffffffffffffffffffffffffffff16021790555060005b60028161ffff161161012b5760005b60058161ffff1611610117576000600190505b60058161ffff161161010357600160026000836064866100a1919061016e565b6103e8886100af919061016e565b6100b991906101ab565b6100c391906101ab565b61ffff1661ffff16815260200190815260200160002060006101000a81548160ff02191690831515021790555080806100fb906101e1565b915050610081565b50808061010f906101e1565b91505061006e565b508080610123906101e1565b91505061005f565b5061020b565b600061ffff82169050919050565b7f4e487b7100000000000000000000000000000000000000000000000000000000600052601160045260246000fd5b600061017982610131565b915061018483610131565b925082820261019281610131565b91508082146101a4576101a361013f565b5b5092915050565b60006101b682610131565b91506101c183610131565b9250828201905061ffff8111156101db576101da61013f565b5b92915050565b60006101ec82610131565b915061ffff8203610200576101ff61013f565b5b600182019050919050565b614b4c8061021a6000396000f3fe6080604052600436106101815760003560e01c806378b5749d116100d1578063b15835461161008a578063c12e806311610064578063c12e806314610635578063d500958414610651578063e4d65d541461067c578063eaf5d9dc146106b957610181565b8063b1583546146105a6578063b7f59c99146105cf578063bc2f89f3146105f857610181565b806378b5749d1461044c5780637b57ee49146104895780638fc5dad8146104c657806390ca27f314610503578063967d59e41461052c5780639e1bf9851461056957610181565b806343b8c6b11161013e5780634de53265116101185780634de532651461037e578063597de987146103bb57806368aca335146103e4578063783bb57d1461042157610181565b806343b8c6b1146102ed578063474502d814610316578063481c6a751461035357610181565b80630847a4fb146101865780630f2fbeec146101c657806312cb70c71461020b5780631794230c146102485780631df8ba77146102855780632f9f21fe146102b0575b600080fd5b34801561019257600080fd5b506101ad60048036038101906101a89190612f34565b6106f6565b6040516101bd9493929190613058565b60405180910390f35b3480156101d257600080fd5b506101ed60048036038101906101e8919061309d565b61077e565b604051610202999897969594939291906131ea565b60405180910390f35b34801561021757600080fd5b50610232600480360381019061022d91906133ba565b610916565b60405161023f91906134ce565b60405180910390f35b34801561025457600080fd5b5061026f600480360381019061026a919061351c565b610bb9565b60405161027c9190613549565b60405180910390f35b34801561029157600080fd5b5061029a610bd1565b6040516102a79190613549565b60405180910390f35b3480156102bc57600080fd5b506102d760048036038101906102d29190613564565b610bdb565b6040516102e49190613549565b60405180910390f35b3480156102f957600080fd5b50610314600480360381019061030f91906135fe565b610c07565b005b34801561032257600080fd5b5061033d60048036038101906103389190613564565b61107a565b60405161034a919061379b565b60405180910390f35b34801561035f57600080fd5b506103686112cd565b60405161037591906137bd565b60405180910390f35b34801561038a57600080fd5b506103a560048036038101906103a091906137d8565b6112f1565b6040516103b29190613820565b60405180910390f35b3480156103c757600080fd5b506103e260048036038101906103dd91906137d8565b611311565b005b3480156103f057600080fd5b5061040b600480360381019061040691906137d8565b61147f565b6040516104189190613820565b60405180910390f35b34801561042d57600080fd5b506104366114dc565b6040516104439190613549565b60405180910390f35b34801561045857600080fd5b50610473600480360381019061046e9190613564565b6114e2565b6040516104809190613820565b60405180910390f35b34801561049557600080fd5b506104b060048036038101906104ab9190613564565b6114fa565b6040516104bd91906138ad565b60405180910390f35b3480156104d257600080fd5b506104ed60048036038101906104e89190613564565b611758565b6040516104fa91906138ad565b60405180910390f35b34801561050f57600080fd5b5061052a600480360381019061052591906138f4565b611d87565b005b34801561053857600080fd5b50610553600480360381019061054e919061351c565b6122e6565b6040516105609190613820565b60405180910390f35b34801561057557600080fd5b50610590600480360381019061058b9190613564565b612318565b60405161059d91906138ad565b60405180910390f35b3480156105b257600080fd5b506105cd60048036038101906105c89190613950565b61252a565b005b3480156105db57600080fd5b506105f660048036038101906105f191906139bc565b612723565b005b34801561060457600080fd5b5061061f600480360381019061061a919061351c565b61292a565b60405161062c9190613820565b60405180910390f35b61064f600480360381019061064a919061351c565b61294a565b005b34801561065d57600080fd5b50610666612a65565b60405161067391906137bd565b60405180910390f35b34801561068857600080fd5b506106a3600480360381019061069e91906137d8565b612a8e565b6040516106b091906139fc565b60405180910390f35b3480156106c557600080fd5b506106e060048036038101906106db9190613a17565b612aaf565b6040516106ed91906138ad565b60405180910390f35b6007602052816000526040600020818154811061071257600080fd5b9060005260206000209060020201600091509150508060000160009054906101000a900473ffffffffffffffffffffffffffffffffffffffff16908060000160149054906101000a900461ffff16908060000160169054906101000a900460ff16908060010154905084565b60066020528060005260406000206000915090508060000180546107a190613ae5565b80601f01602080910402602001604051908101604052809291908181526020018280546107cd90613ae5565b801561081a5780601f106107ef5761010080835404028352916020019161081a565b820191906000526020600020905b8154815290600101906020018083116107fd57829003601f168201915b50505050509080600101805461082f90613ae5565b80601f016020809104026020016040519081016040528092919081815260200182805461085b90613ae5565b80156108a85780601f1061087d576101008083540402835291602001916108a8565b820191906000526020600020905b81548152906001019060200180831161088b57829003601f168201915b5050505050908060020160009054906101000a900460ff16908060030154908060040154908060050154908060060160009054906101000a900460ff16908060070154908060080160009054906101000a900473ffffffffffffffffffffffffffffffffffffffff16905089565b61091e612d4b565b60008054906101000a900473ffffffffffffffffffffffffffffffffffffffff1673ffffffffffffffffffffffffffffffffffffffff163273ffffffffffffffffffffffffffffffffffffffff16146109ac576040517f08c379a00000000000000000000000000000000000000000000000000000000081526004016109a390613b88565b60405180910390fd5b814710156109ef576040517f08c379a00000000000000000000000000000000000000000000000000000000081526004016109e690613bf4565b60405180910390fd5b60006109fa8461107a565b905060026005811115610a1057610a0f612fd2565b5b81604001516005811115610a2757610a26612fd2565b5b148015610a5c575060016003811115610a4357610a42612fd2565b5b8160c001516003811115610a5a57610a59612fd2565b5b145b610a9b576040517f08c379a0000000000000000000000000000000000000000000000000000000008152600401610a9290613c86565b60405180910390fd5b828160e001511015610ae2576040517f08c379a0000000000000000000000000000000000000000000000000000000008152600401610ad990613d18565b60405180910390fd5b80610100015173ffffffffffffffffffffffffffffffffffffffff166108fc849081150290604051600060405180830381858888f19350505050158015610b2d573d6000803e3d6000fd5b5060008480519060200120905060056006600083815260200190815260200160002060020160006101000a81548160ff02191690836005811115610b7457610b73612fd2565b5b0217905550604051806060016040528083610100015173ffffffffffffffffffffffffffffffffffffffff168152602001858152602001868152509250505092915050565b60056020528060005260406000206000915090505481565b6000600154905090565b600080828051906020012090506007600082815260200190815260200160002080549050915050919050565b60008054906101000a900473ffffffffffffffffffffffffffffffffffffffff1673ffffffffffffffffffffffffffffffffffffffff163273ffffffffffffffffffffffffffffffffffffffff161480610c665750610c653261147f565b5b610ca5576040517f08c379a0000000000000000000000000000000000000000000000000000000008152600401610c9c90613daa565b60405180910390fd5b60008054906101000a900473ffffffffffffffffffffffffffffffffffffffff1673ffffffffffffffffffffffffffffffffffffffff163273ffffffffffffffffffffffffffffffffffffffff161480610d74575062278d0060056000600360003273ffffffffffffffffffffffffffffffffffffffff1673ffffffffffffffffffffffffffffffffffffffff16815260200190815260200160002060009054906101000a900461ffff1661ffff1661ffff16815260200190815260200160002054610d719190613df9565b42105b610db3576040517f08c379a0000000000000000000000000000000000000000000000000000000008152600401610daa90613e79565b60405180910390fd5b610dbc856114e2565b15610dfc576040517f08c379a0000000000000000000000000000000000000000000000000000000008152600401610df390613ee5565b60405180910390fd5b6000821115610e9c5760026003811115610e1957610e18612fd2565b5b836003811115610e2c57610e2b612fd2565b5b1480610e5c575060016003811115610e4757610e46612fd2565b5b836003811115610e5a57610e59612fd2565b5b145b610e9b576040517f08c379a0000000000000000000000000000000000000000000000000000000008152600401610e9290613f51565b60405180910390fd5b5b600060405180610120016040528087815260200186815260200160006005811115610eca57610ec9612fd2565b5b81526020014281526020016000815260200160008152602001856003811115610ef657610ef5612fd2565b5b8152602001848152602001600073ffffffffffffffffffffffffffffffffffffffff168473ffffffffffffffffffffffffffffffffffffffff1603610f3b5732610f3d565b835b73ffffffffffffffffffffffffffffffffffffffff1681525090508060066000888051906020012081526020019081526020016000206000820151816000019081610f88919061411d565b506020820151816001019081610f9e919061411d565b5060408201518160020160006101000a81548160ff02191690836005811115610fca57610fc9612fd2565b5b0217905550606082015181600301556080820151816004015560a0820151816005015560c08201518160060160006101000a81548160ff0219169083600381111561101857611017612fd2565b5b021790555060e082015181600701556101008201518160080160006101000a81548173ffffffffffffffffffffffffffffffffffffffff021916908373ffffffffffffffffffffffffffffffffffffffff160217905550905050505050505050565b611082612d82565b60008280519060200120905060066000828152602001908152602001600020604051806101200160405290816000820180546110bd90613ae5565b80601f01602080910402602001604051908101604052809291908181526020018280546110e990613ae5565b80156111365780601f1061110b57610100808354040283529160200191611136565b820191906000526020600020905b81548152906001019060200180831161111957829003601f168201915b5050505050815260200160018201805461114f90613ae5565b80601f016020809104026020016040519081016040528092919081815260200182805461117b90613ae5565b80156111c85780601f1061119d576101008083540402835291602001916111c8565b820191906000526020600020905b8154815290600101906020018083116111ab57829003601f168201915b505050505081526020016002820160009054906101000a900460ff1660058111156111f6576111f5612fd2565b5b600581111561120857611207612fd2565b5b81526020016003820154815260200160048201548152602001600582015481526020016006820160009054906101000a900460ff16600381111561124f5761124e612fd2565b5b600381111561126157611260612fd2565b5b8152602001600782015481526020016008820160009054906101000a900473ffffffffffffffffffffffffffffffffffffffff1673ffffffffffffffffffffffffffffffffffffffff1673ffffffffffffffffffffffffffffffffffffffff1681525050915050919050565b60008054906101000a900473ffffffffffffffffffffffffffffffffffffffff1681565b60046020528060005260406000206000915054906101000a900460ff1681565b60008054906101000a900473ffffffffffffffffffffffffffffffffffffffff1673ffffffffffffffffffffffffffffffffffffffff163273ffffffffffffffffffffffffffffffffffffffff161461139f576040517f08c379a000000000000000000000000000000000000000000000000000000000815260040161139690613b88565b60405180910390fd5b600460008273ffffffffffffffffffffffffffffffffffffffff1673ffffffffffffffffffffffffffffffffffffffff16815260200190815260200160002060009054906101000a900460ff161561142c576040517f08c379a00000000000000000000000000000000000000000000000000000000081526004016114239061423b565b60405180910390fd5b600360008273ffffffffffffffffffffffffffffffffffffffff1673ffffffffffffffffffffffffffffffffffffffff16815260200190815260200160002060006101000a81549061ffff021916905550565b600080600360008473ffffffffffffffffffffffffffffffffffffffff1673ffffffffffffffffffffffffffffffffffffffff16815260200190815260200160002060009054906101000a900461ffff1661ffff16119050919050565b60015481565b6000806114ee8361107a565b60600151119050919050565b611502612e08565b60008054906101000a900473ffffffffffffffffffffffffffffffffffffffff1673ffffffffffffffffffffffffffffffffffffffff163273ffffffffffffffffffffffffffffffffffffffff1614611590576040517f08c379a000000000000000000000000000000000000000000000000000000000815260040161158790613b88565b60405180910390fd5b600061159b8361107a565b90506115a6836114e2565b6115e5576040517f08c379a00000000000000000000000000000000000000000000000000000000081526004016115dc906142a7565b60405180910390fd5b600060058111156115f9576115f8612fd2565b5b816040015160058111156116105761160f612fd2565b5b14611650576040517f08c379a000000000000000000000000000000000000000000000000000000000815260040161164790614339565b60405180910390fd5b60008380519060200120905060066000828152602001908152602001600020600080820160006116809190612e57565b6001820160006116909190612e57565b6002820160006101000a81549060ff02191690556003820160009055600482016000905560058201600090556006820160006101000a81549060ff021916905560078201600090556008820160006101000a81549073ffffffffffffffffffffffffffffffffffffffff02191690555050604051806080016040528082815260200183600001518152602001600460058111156117305761172f612fd2565b5b81526020018360c00151600381111561174c5761174b612fd2565b5b81525092505050919050565b611760612e08565b60008054906101000a900473ffffffffffffffffffffffffffffffffffffffff1673ffffffffffffffffffffffffffffffffffffffff163273ffffffffffffffffffffffffffffffffffffffff16146117ee576040517f08c379a00000000000000000000000000000000000000000000000000000000081526004016117e590613b88565b60405180910390fd5b60006117f98361107a565b90506000816060015111611842576040517f08c379a0000000000000000000000000000000000000000000000000000000008152600401611839906143a5565b60405180910390fd5b6001600581111561185657611855612fd2565b5b8160400151600581111561186d5761186c612fd2565b5b146118ad576040517f08c379a00000000000000000000000000000000000000000000000000000000081526004016118a490614411565b60405180910390fd5b600060059050600160038111156118c7576118c6612fd2565b5b8260c0015160038111156118de576118dd612fd2565b5b036118ec57600a905061195b565b6003808111156118ff576118fe612fd2565b5b8260c00151600381111561191657611915612fd2565b5b0361192457600f905061195a565b6002600381111561193857611937612fd2565b5b8260c00151600381111561194f5761194e612fd2565b5b0361195957601490505b5b5b8060ff1661196885610bdb565b10156119a9576040517f08c379a00000000000000000000000000000000000000000000000000000000081526004016119a0906144a3565b60405180910390fd5b60008060008087805190602001209050600060076000838152602001908152602001600020805480602002602001604051908101604052809291908181526020016000905b82821015611adb57838290600052602060002090600202016040518060800160405290816000820160009054906101000a900473ffffffffffffffffffffffffffffffffffffffff1673ffffffffffffffffffffffffffffffffffffffff1673ffffffffffffffffffffffffffffffffffffffff1681526020016000820160149054906101000a900461ffff1661ffff1661ffff1681526020016000820160169054906101000a900460ff166003811115611aac57611aab612fd2565b5b6003811115611abe57611abd612fd2565b5b8152602001600182015481525050815260200190600101906119ee565b50505050905060005b81518160ff161015611bd35760016003811115611b0457611b03612fd2565b5b828260ff1681518110611b1a57611b196144c3565b5b6020026020010151604001516003811115611b3857611b37612fd2565b5b03611b50578580611b48906144ff565b965050611bc0565b60026003811115611b6457611b63612fd2565b5b828260ff1681518110611b7a57611b796144c3565b5b6020026020010151604001516003811115611b9857611b97612fd2565b5b03611bb0578480611ba8906144ff565b955050611bbf565b8380611bbb906144ff565b9450505b5b8080611bcb906144ff565b915050611ae4565b5060008460ff168660ff1611611bea576003611bed565b60025b9050806006600085815260200190815260200160002060020160006101000a81548160ff02191690836005811115611c2857611c27612fd2565b5b021790555042600660008581526020019081526020016000206005018190555060026005811115611c5c57611c5b612fd2565b5b816005811115611c6f57611c6e612fd2565b5b03611d2b5760026003811115611c8857611c87612fd2565b5b8860c001516003811115611c9f57611c9e612fd2565b5b03611cb4578760e00151600181905550611d2a565b600380811115611cc757611cc6612fd2565b5b8860c001516003811115611cde57611cdd612fd2565b5b03611d29578761010001516000806101000a81548173ffffffffffffffffffffffffffffffffffffffff021916908373ffffffffffffffffffffffffffffffffffffffff1602179055505b5b5b604051806080016040528084815260200189600001518152602001826005811115611d5957611d58612fd2565b5b81526020018960c001516003811115611d7557611d74612fd2565b5b81525098505050505050505050919050565b60008054906101000a900473ffffffffffffffffffffffffffffffffffffffff1673ffffffffffffffffffffffffffffffffffffffff163273ffffffffffffffffffffffffffffffffffffffff161480611de65750611de53261147f565b5b611e25576040517f08c379a0000000000000000000000000000000000000000000000000000000008152600401611e1c90613daa565b60405180910390fd5b60008054906101000a900473ffffffffffffffffffffffffffffffffffffffff1673ffffffffffffffffffffffffffffffffffffffff163273ffffffffffffffffffffffffffffffffffffffff161480611ef4575062278d0060056000600360003273ffffffffffffffffffffffffffffffffffffffff1673ffffffffffffffffffffffffffffffffffffffff16815260200190815260200160002060009054906101000a900461ffff1661ffff1661ffff16815260200190815260200160002054611ef19190613df9565b42105b611f33576040517f08c379a0000000000000000000000000000000000000000000000000000000008152600401611f2a90613e79565b60405180910390fd5b60006003811115611f4757611f46612fd2565b5b816003811115611f5a57611f59612fd2565b5b03611f9a576040517f08c379a0000000000000000000000000000000000000000000000000000000008152600401611f9190614574565b60405180910390fd5b6000611fa58361107a565b90506000816060015111611fee576040517f08c379a0000000000000000000000000000000000000000000000000000000008152600401611fe5906143a5565b60405180910390fd5b6001600581111561200257612001612fd2565b5b8160400151600581111561201957612018612fd2565b5b14612059576040517f08c379a0000000000000000000000000000000000000000000000000000000008152600401612050906145e0565b60405180910390fd5b6000600360003273ffffffffffffffffffffffffffffffffffffffff1673ffffffffffffffffffffffffffffffffffffffff16815260200190815260200160002060009054906101000a900461ffff169050600084805190602001209050600060076000838152602001908152602001600020905060005b81805490508160ff1610156121a8573373ffffffffffffffffffffffffffffffffffffffff16828260ff168154811061210d5761210c6144c3565b5b906000526020600020906002020160000160009054906101000a900473ffffffffffffffffffffffffffffffffffffffff1673ffffffffffffffffffffffffffffffffffffffff1603612195576040517f08c379a000000000000000000000000000000000000000000000000000000000815260040161218c90614672565b60405180910390fd5b80806121a0906144ff565b9150506120d1565b50600060405180608001604052803273ffffffffffffffffffffffffffffffffffffffff1681526020018561ffff1681526020018760038111156121ef576121ee612fd2565b5b81526020014281525090506007600084815260200190815260200160002081908060018154018082558091505060019003906000526020600020906002020160009091909190915060008201518160000160006101000a81548173ffffffffffffffffffffffffffffffffffffffff021916908373ffffffffffffffffffffffffffffffffffffffff16021790555060208201518160000160146101000a81548161ffff021916908361ffff16021790555060408201518160000160166101000a81548160ff021916908360038111156122cc576122cb612fd2565b5b021790555060608201518160010155505050505050505050565b6000600260008361ffff1661ffff16815260200190815260200160002060009054906101000a900460ff169050919050565b612320612e08565b60008054906101000a900473ffffffffffffffffffffffffffffffffffffffff1673ffffffffffffffffffffffffffffffffffffffff163273ffffffffffffffffffffffffffffffffffffffff16146123ae576040517f08c379a00000000000000000000000000000000000000000000000000000000081526004016123a590613b88565b60405180910390fd5b60006123b98361107a565b90506000816060015111612402576040517f08c379a00000000000000000000000000000000000000000000000000000000081526004016123f9906143a5565b60405180910390fd5b6000600581111561241657612415612fd2565b5b8160400151600581111561242d5761242c612fd2565b5b1461246d576040517f08c379a000000000000000000000000000000000000000000000000000000000815260040161246490614704565b60405180910390fd5b60008380519060200120905060016006600083815260200190815260200160002060020160006101000a81548160ff021916908360058111156124b3576124b2612fd2565b5b02179055504260066000838152602001908152602001600020600401819055506040518060800160405280828152602001836000015181526020016001600581111561250257612501612fd2565b5b81526020018360c00151600381111561251e5761251d612fd2565b5b81525092505050919050565b60008054906101000a900473ffffffffffffffffffffffffffffffffffffffff1673ffffffffffffffffffffffffffffffffffffffff163273ffffffffffffffffffffffffffffffffffffffff1614806125cd5750600460003273ffffffffffffffffffffffffffffffffffffffff1673ffffffffffffffffffffffffffffffffffffffff16815260200190815260200160002060009054906101000a900460ff165b61260c576040517f08c379a000000000000000000000000000000000000000000000000000000000815260040161260390614796565b60405180910390fd5b81600073ffffffffffffffffffffffffffffffffffffffff168173ffffffffffffffffffffffffffffffffffffffff160361267c576040517f08c379a000000000000000000000000000000000000000000000000000000000815260040161267390614802565b60405180910390fd5b612685826122e6565b6126c4576040517f08c379a00000000000000000000000000000000000000000000000000000000081526004016126bb9061486e565b60405180910390fd5b81600360008573ffffffffffffffffffffffffffffffffffffffff1673ffffffffffffffffffffffffffffffffffffffff16815260200190815260200160002060006101000a81548161ffff021916908361ffff160217905550505050565b60008054906101000a900473ffffffffffffffffffffffffffffffffffffffff1673ffffffffffffffffffffffffffffffffffffffff163273ffffffffffffffffffffffffffffffffffffffff16146127b1576040517f08c379a00000000000000000000000000000000000000000000000000000000081526004016127a890613b88565b60405180910390fd5b81600073ffffffffffffffffffffffffffffffffffffffff168173ffffffffffffffffffffffffffffffffffffffff1603612821576040517f08c379a000000000000000000000000000000000000000000000000000000000815260040161281890614802565b60405180910390fd5b81156128cc576128308361147f565b61286f576040517f08c379a0000000000000000000000000000000000000000000000000000000008152600401612866906148da565b60405180910390fd5b6001600460008573ffffffffffffffffffffffffffffffffffffffff1673ffffffffffffffffffffffffffffffffffffffff16815260200190815260200160002060006101000a81548160ff021916908315150217905550612925565b6000600460008573ffffffffffffffffffffffffffffffffffffffff1673ffffffffffffffffffffffffffffffffffffffff16815260200190815260200160002060006101000a81548160ff0219169083151502179055505b505050565b60026020528060005260406000206000915054906101000a900460ff1681565b612953816122e6565b612992576040517f08c379a000000000000000000000000000000000000000000000000000000000815260040161298990614946565b60405180910390fd5b6001543410156129d7576040517f08c379a00000000000000000000000000000000000000000000000000000000081526004016129ce906149b2565b60405180910390fd5b62278d00600560008361ffff1661ffff16815260200190815260200160002054612a019190613df9565b4211612a42576040517f08c379a0000000000000000000000000000000000000000000000000000000008152600401612a3990614a1e565b60405180910390fd5b42600560008361ffff1661ffff1681526020019081526020016000208190555050565b60008060009054906101000a900473ffffffffffffffffffffffffffffffffffffffff16905090565b60036020528060005260406000206000915054906101000a900461ffff1681565b612ab7612e08565b60008054906101000a900473ffffffffffffffffffffffffffffffffffffffff1673ffffffffffffffffffffffffffffffffffffffff163273ffffffffffffffffffffffffffffffffffffffff1614612b45576040517f08c379a0000000000000000000000000000000000000000000000000000000008152600401612b3c90613b88565b60405180910390fd5b6000612b508661107a565b90506000816060015111612b99576040517f08c379a0000000000000000000000000000000000000000000000000000000008152600401612b9090614a8a565b60405180910390fd5b60006005811115612bad57612bac612fd2565b5b81604001516005811115612bc457612bc3612fd2565b5b14612c04576040517f08c379a0000000000000000000000000000000000000000000000000000000008152600401612bfb90614af6565b60405180910390fd5b600086805190602001209050600086511115612c3f5785600660008381526020019081526020016000206001019081612c3d919061411d565b505b6000851115612c64578460066000838152602001908152602001600020600701819055505b600073ffffffffffffffffffffffffffffffffffffffff168473ffffffffffffffffffffffffffffffffffffffff1614612cee57836006600083815260200190815260200160002060080160006101000a81548173ffffffffffffffffffffffffffffffffffffffff021916908373ffffffffffffffffffffffffffffffffffffffff1602179055505b60405180608001604052808281526020018360000151815260200183604001516005811115612d2057612d1f612fd2565b5b81526020018360c001516003811115612d3c57612d3b612fd2565b5b81525092505050949350505050565b6040518060600160405280600073ffffffffffffffffffffffffffffffffffffffff16815260200160008152602001606081525090565b604051806101200160405280606081526020016060815260200160006005811115612db057612daf612fd2565b5b815260200160008152602001600081526020016000815260200160006003811115612dde57612ddd612fd2565b5b815260200160008152602001600073ffffffffffffffffffffffffffffffffffffffff1681525090565b6040518060800160405280600080191681526020016060815260200160006005811115612e3857612e37612fd2565b5b815260200160006003811115612e5157612e50612fd2565b5b81525090565b508054612e6390613ae5565b6000825580601f10612e755750612e94565b601f016020900490600052602060002090810190612e939190612e97565b5b50565b5b80821115612eb0576000816000905550600101612e98565b5090565b6000604051905090565b600080fd5b600080fd5b6000819050919050565b612edb81612ec8565b8114612ee657600080fd5b50565b600081359050612ef881612ed2565b92915050565b6000819050919050565b612f1181612efe565b8114612f1c57600080fd5b50565b600081359050612f2e81612f08565b92915050565b60008060408385031215612f4b57612f4a612ebe565b5b6000612f5985828601612ee9565b9250506020612f6a85828601612f1f565b9150509250929050565b600073ffffffffffffffffffffffffffffffffffffffff82169050919050565b6000612f9f82612f74565b9050919050565b612faf81612f94565b82525050565b600061ffff82169050919050565b612fcc81612fb5565b82525050565b7f4e487b7100000000000000000000000000000000000000000000000000000000600052602160045260246000fd5b6004811061301257613011612fd2565b5b50565b600081905061302382613001565b919050565b600061303382613015565b9050919050565b61304381613028565b82525050565b61305281612efe565b82525050565b600060808201905061306d6000830187612fa6565b61307a6020830186612fc3565b613087604083018561303a565b6130946060830184613049565b95945050505050565b6000602082840312156130b3576130b2612ebe565b5b60006130c184828501612ee9565b91505092915050565b600081519050919050565b600082825260208201905092915050565b60005b838110156131045780820151818401526020810190506130e9565b60008484015250505050565b6000601f19601f8301169050919050565b600061312c826130ca565b61313681856130d5565b93506131468185602086016130e6565b61314f81613110565b840191505092915050565b6006811061316b5761316a612fd2565b5b50565b600081905061317c8261315a565b919050565b600061318c8261316e565b9050919050565b61319c81613181565b82525050565b600481106131b3576131b2612fd2565b5b50565b60008190506131c4826131a2565b919050565b60006131d4826131b6565b9050919050565b6131e4816131c9565b82525050565b6000610120820190508181036000830152613205818c613121565b90508181036020830152613219818b613121565b9050613228604083018a613193565b6132356060830189613049565b6132426080830188613049565b61324f60a0830187613049565b61325c60c08301866131db565b61326960e0830185613049565b613277610100830184612fa6565b9a9950505050505050505050565b600080fd5b600080fd5b7f4e487b7100000000000000000000000000000000000000000000000000000000600052604160045260246000fd5b6132c782613110565b810181811067ffffffffffffffff821117156132e6576132e561328f565b5b80604052505050565b60006132f9612eb4565b905061330582826132be565b919050565b600067ffffffffffffffff8211156133255761332461328f565b5b61332e82613110565b9050602081019050919050565b82818337600083830152505050565b600061335d6133588461330a565b6132ef565b9050828152602081018484840111156133795761337861328a565b5b61338484828561333b565b509392505050565b600082601f8301126133a1576133a0613285565b5b81356133b184826020860161334a565b91505092915050565b600080604083850312156133d1576133d0612ebe565b5b600083013567ffffffffffffffff8111156133ef576133ee612ec3565b5b6133fb8582860161338c565b925050602061340c85828601612f1f565b9150509250929050565b61341f81612f94565b82525050565b61342e81612efe565b82525050565b600082825260208201905092915050565b6000613450826130ca565b61345a8185613434565b935061346a8185602086016130e6565b61347381613110565b840191505092915050565b60006060830160008301516134966000860182613416565b5060208301516134a96020860182613425565b50604083015184820360408601526134c18282613445565b9150508091505092915050565b600060208201905081810360008301526134e8818461347e565b905092915050565b6134f981612fb5565b811461350457600080fd5b50565b600081359050613516816134f0565b92915050565b60006020828403121561353257613531612ebe565b5b600061354084828501613507565b91505092915050565b600060208201905061355e6000830184613049565b92915050565b60006020828403121561357a57613579612ebe565b5b600082013567ffffffffffffffff81111561359857613597612ec3565b5b6135a48482850161338c565b91505092915050565b600481106135ba57600080fd5b50565b6000813590506135cc816135ad565b92915050565b6135db81612f94565b81146135e657600080fd5b50565b6000813590506135f8816135d2565b92915050565b600080600080600060a0868803121561361a57613619612ebe565b5b600086013567ffffffffffffffff81111561363857613637612ec3565b5b6136448882890161338c565b955050602086013567ffffffffffffffff81111561366557613664612ec3565b5b6136718882890161338c565b9450506040613682888289016135bd565b935050606061369388828901612f1f565b92505060806136a4888289016135e9565b9150509295509295909350565b6136ba81613181565b82525050565b6136c9816131c9565b82525050565b60006101208301600083015184820360008601526136ed8282613445565b915050602083015184820360208601526137078282613445565b915050604083015161371c60408601826136b1565b50606083015161372f6060860182613425565b5060808301516137426080860182613425565b5060a083015161375560a0860182613425565b5060c083015161376860c08601826136c0565b5060e083015161377b60e0860182613425565b50610100830151613790610100860182613416565b508091505092915050565b600060208201905081810360008301526137b581846136cf565b905092915050565b60006020820190506137d26000830184612fa6565b92915050565b6000602082840312156137ee576137ed612ebe565b5b60006137fc848285016135e9565b91505092915050565b60008115159050919050565b61381a81613805565b82525050565b60006020820190506138356000830184613811565b92915050565b61384481612ec8565b82525050565b6000608083016000830151613862600086018261383b565b506020830151848203602086015261387a8282613445565b915050604083015161388f60408601826136b1565b5060608301516138a260608601826136c0565b508091505092915050565b600060208201905081810360008301526138c7818461384a565b905092915050565b600481106138dc57600080fd5b50565b6000813590506138ee816138cf565b92915050565b6000806040838503121561390b5761390a612ebe565b5b600083013567ffffffffffffffff81111561392957613928612ec3565b5b6139358582860161338c565b9250506020613946858286016138df565b9150509250929050565b6000806040838503121561396757613966612ebe565b5b6000613975858286016135e9565b925050602061398685828601613507565b9150509250929050565b61399981613805565b81146139a457600080fd5b50565b6000813590506139b681613990565b92915050565b600080604083850312156139d3576139d2612ebe565b5b60006139e1858286016135e9565b92505060206139f2858286016139a7565b9150509250929050565b6000602082019050613a116000830184612fc3565b92915050565b60008060008060808587031215613a3157613a30612ebe565b5b600085013567ffffffffffffffff811115613a4f57613a4e612ec3565b5b613a5b8782880161338c565b945050602085013567ffffffffffffffff811115613a7c57613a7b612ec3565b5b613a888782880161338c565b9350506040613a9987828801612f1f565b9250506060613aaa878288016135e9565b91505092959194509250565b7f4e487b7100000000000000000000000000000000000000000000000000000000600052602260045260246000fd5b60006002820490506001821680613afd57607f821691505b602082108103613b1057613b0f613ab6565b5b50919050565b7f4f6e6c79206d616e616765722063616e2063616c6c20746869732066756e637460008201527f696f6e0000000000000000000000000000000000000000000000000000000000602082015250565b6000613b726023836130d5565b9150613b7d82613b16565b604082019050919050565b60006020820190508181036000830152613ba181613b65565b9050919050565b7f496e73756666696369656e7420666f756e647300000000000000000000000000600082015250565b6000613bde6013836130d5565b9150613be982613ba8565b602082019050919050565b60006020820190508181036000830152613c0d81613bd1565b9050919050565b7f4f6e6c7920415050524f564544205350454e5420746f706963732063616e206260008201527f65207573656420666f72207472616e7366657273000000000000000000000000602082015250565b6000613c706034836130d5565b9150613c7b82613c14565b604082019050919050565b60006020820190508181036000830152613c9f81613c63565b9050919050565b7f54686520616d6f756e74206d757374206265206c657373206f7220657175616c60008201527f2074686520415050524f56454420746f70696300000000000000000000000000602082015250565b6000613d026033836130d5565b9150613d0d82613ca6565b604082019050919050565b60006020820190508181036000830152613d3181613cf5565b9050919050565b7f4f6e6c7920746865206d616e61676572206f72207265736964656e747320636160008201527f6e2063616c6c20746869732066756e6374696f6e000000000000000000000000602082015250565b6000613d946034836130d5565b9150613d9f82613d38565b604082019050919050565b60006020820190508181036000830152613dc381613d87565b9050919050565b7f4e487b7100000000000000000000000000000000000000000000000000000000600052601160045260246000fd5b6000613e0482612efe565b9150613e0f83612efe565b9250828201905080821115613e2757613e26613dca565b5b92915050565b7f546865207265736964656e74206d7573742062652064656661756c7465720000600082015250565b6000613e63601e836130d5565b9150613e6e82613e2d565b602082019050919050565b60006020820190508181036000830152613e9281613e56565b9050919050565b7f546f70696320616c726561647920657869737473000000000000000000000000600082015250565b6000613ecf6014836130d5565b9150613eda82613e99565b602082019050919050565b60006020820190508181036000830152613efe81613ec2565b9050919050565b7f57726f6e672063617465676f7279000000000000000000000000000000000000600082015250565b6000613f3b600e836130d5565b9150613f4682613f05565b602082019050919050565b60006020820190508181036000830152613f6a81613f2e565b9050919050565b60008190508160005260206000209050919050565b60006020601f8301049050919050565b600082821b905092915050565b600060088302613fd37fffffffffffffffffffffffffffffffffffffffffffffffffffffffffffffffff82613f96565b613fdd8683613f96565b95508019841693508086168417925050509392505050565b6000819050919050565b600061401a61401561401084612efe565b613ff5565b612efe565b9050919050565b6000819050919050565b61403483613fff565b61404861404082614021565b848454613fa3565b825550505050565b600090565b61405d614050565b61406881848461402b565b505050565b5b8181101561408c57614081600082614055565b60018101905061406e565b5050565b601f8211156140d1576140a281613f71565b6140ab84613f86565b810160208510156140ba578190505b6140ce6140c685613f86565b83018261406d565b50505b505050565b600082821c905092915050565b60006140f4600019846008026140d6565b1980831691505092915050565b600061410d83836140e3565b9150826002028217905092915050565b614126826130ca565b67ffffffffffffffff81111561413f5761413e61328f565b5b6141498254613ae5565b614154828285614090565b600060209050601f8311600181146141875760008415614175578287015190505b61417f8582614101565b8655506141e7565b601f19841661419586613f71565b60005b828110156141bd57848901518255600182019150602085019450602081019050614198565b868310156141da57848901516141d6601f8916826140e3565b8355505b6001600288020188555050505b505050505050565b7f54686520636f756e63696c2063616e6e6f742062652072656d6f766564000000600082015250565b6000614225601d836130d5565b9150614230826141ef565b602082019050919050565b6000602082019050818103600083015261425481614218565b9050919050565b7f546f70696320646f6573206e6f74206578697374000000000000000000000000600082015250565b60006142916014836130d5565b915061429c8261425b565b602082019050919050565b600060208201905081810360008301526142c081614284565b9050919050565b7f4f6e6c7920746f7069637320696e2049444c45207374617475732063616e206260008201527f652072656d6f7665640000000000000000000000000000000000000000000000602082015250565b60006143236029836130d5565b915061432e826142c7565b604082019050919050565b6000602082019050818103600083015261435281614316565b9050919050565b7f54686520746f70696320646f6573206e6f742065786973740000000000000000600082015250565b600061438f6018836130d5565b915061439a82614359565b602082019050919050565b600060208201905081810360008301526143be81614382565b9050919050565b7f4f6e6c7920564f54494e4720746f7069732063616e20626520636c6f73656400600082015250565b60006143fb601f836130d5565b9150614406826143c5565b602082019050919050565b6000602082019050818103600083015261442a816143ee565b9050919050565b7f596f752063616e6e6f742066696e697368206120766f74696e6720776974686f60008201527f757420746865206d696e696d756d20766f746573000000000000000000000000602082015250565b600061448d6034836130d5565b915061449882614431565b604082019050919050565b600060208201905081810360008301526144bc81614480565b9050919050565b7f4e487b7100000000000000000000000000000000000000000000000000000000600052603260045260246000fd5b600060ff82169050919050565b600061450a826144f2565b915060ff820361451d5761451c613dca565b5b600182019050919050565b7f546865206f7074696f6e2063616e6e6f7420626520454d505459000000000000600082015250565b600061455e601a836130d5565b915061456982614528565b602082019050919050565b6000602082019050818103600083015261458d81614551565b9050919050565b7f4f6e6c7920564f54494e4720746f706963732063616e20626520766f74656400600082015250565b60006145ca601f836130d5565b91506145d582614594565b602082019050919050565b600060208201905081810360008301526145f9816145bd565b9050919050565b7f41207265736964656e63652073686f756c6420766f7465206f6e6c79206f6e6360008201527f6500000000000000000000000000000000000000000000000000000000000000602082015250565b600061465c6021836130d5565b915061466782614600565b604082019050919050565b6000602082019050818103600083015261468b8161464f565b9050919050565b7f4f6e6c792049444c4520746f7069732063616e206265206f70656e20666f722060008201527f766f74696e670000000000000000000000000000000000000000000000000000602082015250565b60006146ee6026836130d5565b91506146f982614692565b604082019050919050565b6000602082019050818103600083015261471d816146e1565b9050919050565b7f4f6e6c7920746865206d616e61676572206f722074686520636f756e63696c2060008201527f63616e2063616c6c20746869732066756e6374696f6e00000000000000000000602082015250565b60006147806036836130d5565b915061478b82614724565b604082019050919050565b600060208201905081810360008301526147af81614773565b9050919050565b7f496e76616c696420616464726573730000000000000000000000000000000000600082015250565b60006147ec600f836130d5565b91506147f7826147b6565b602082019050919050565b6000602082019050818103600083015261481b816147df565b9050919050565b7f5265736964656e636520646f6573206e6f742065786973740000000000000000600082015250565b60006148586018836130d5565b915061486382614822565b602082019050919050565b600060208201905081810360008301526148878161484b565b9050919050565b7f54686520636f6e7375656c6f72206d7573742062652061207265736964656e74600082015250565b60006148c46020836130d5565b91506148cf8261488e565b602082019050919050565b600060208201905081810360008301526148f3816148b7565b9050919050565b7f546865207265736964656e636520646f6573206e6f7420657869737473000000600082015250565b6000614930601d836130d5565b915061493b826148fa565b602082019050919050565b6000602082019050818103600083015261495f81614923565b9050919050565b7f57726f6e672076616c7565000000000000000000000000000000000000000000600082015250565b600061499c600b836130d5565b91506149a782614966565b602082019050919050565b600060208201905081810360008301526149cb8161498f565b9050919050565b7f596f752063616e6e6f74207061792074776963652061206d6f6e746800000000600082015250565b6000614a08601c836130d5565b9150614a13826149d2565b602082019050919050565b60006020820190508181036000830152614a37816149fb565b9050919050565b7f5468697320746f70696320646f6573206e6f7420657869737473000000000000600082015250565b6000614a74601a836130d5565b9150614a7f82614a3e565b602082019050919050565b60006020820190508181036000830152614aa381614a67565b9050919050565b7f4f6e6c792049444c4520746f706963732063616e206265206564697465640000600082015250565b6000614ae0601e836130d5565b9150614aeb82614aaa565b602082019050919050565b60006020820190508181036000830152614b0f81614ad3565b905091905056fea2646970667358221220f463129874fd58810fd855305f609aa7fa675e7f2324d04347d21e37e2bd358764736f6c634300081c0033",
          "opcodes": "PUSH1 0x80 PUSH1 0x40 MSTORE PUSH7 0x2386F26FC10000 PUSH1 0x1 SSTORE CALLVALUE DUP1 ISZERO PUSH2 0x1B JUMPI PUSH1 0x0 DUP1 REVERT JUMPDEST POP CALLER PUSH1 0x0 DUP1 PUSH2 0x100 EXP DUP2 SLOAD DUP2 PUSH20 0xFFFFFFFFFFFFFFFFFFFFFFFFFFFFFFFFFFFFFFFF MUL NOT AND SWAP1 DUP4 PUSH20 0xFFFFFFFFFFFFFFFFFFFFFFFFFFFFFFFFFFFFFFFF AND MUL OR SWAP1 SSTORE POP PUSH1 0x0 JUMPDEST PUSH1 0x2 DUP2 PUSH2 0xFFFF AND GT PUSH2 0x12B JUMPI PUSH1 0x0 JUMPDEST PUSH1 0x5 DUP2 PUSH2 0xFFFF AND GT PUSH2 0x117 JUMPI PUSH1 0x0 PUSH1 0x1 SWAP1 POP JUMPDEST PUSH1 0x5 DUP2 PUSH2 0xFFFF AND GT PUSH2 0x103 JUMPI PUSH1 0x1 PUSH1 0x2 PUSH1 0x0 DUP4 PUSH1 0x64 DUP7 PUSH2 0xA1 SWAP2 SWAP1 PUSH2 0x16E JUMP JUMPDEST PUSH2 0x3E8 DUP9 PUSH2 0xAF SWAP2 SWAP1 PUSH2 0x16E JUMP JUMPDEST PUSH2 0xB9 SWAP2 SWAP1 PUSH2 0x1AB JUMP JUMPDEST PUSH2 0xC3 SWAP2 SWAP1 PUSH2 0x1AB JUMP JUMPDEST PUSH2 0xFFFF AND PUSH2 0xFFFF AND DUP2 MSTORE PUSH1 0x20 ADD SWAP1 DUP2 MSTORE PUSH1 0x20 ADD PUSH1 0x0 KECCAK256 PUSH1 0x0 PUSH2 0x100 EXP DUP2 SLOAD DUP2 PUSH1 0xFF MUL NOT AND SWAP1 DUP4 ISZERO ISZERO MUL OR SWAP1 SSTORE POP DUP1 DUP1 PUSH2 0xFB SWAP1 PUSH2 0x1E1 JUMP JUMPDEST SWAP2 POP POP PUSH2 0x81 JUMP JUMPDEST POP DUP1 DUP1 PUSH2 0x10F SWAP1 PUSH2 0x1E1 JUMP JUMPDEST SWAP2 POP POP PUSH2 0x6E JUMP JUMPDEST POP DUP1 DUP1 PUSH2 0x123 SWAP1 PUSH2 0x1E1 JUMP JUMPDEST SWAP2 POP POP PUSH2 0x5F JUMP JUMPDEST POP PUSH2 0x20B JUMP JUMPDEST PUSH1 0x0 PUSH2 0xFFFF DUP3 AND SWAP1 POP SWAP2 SWAP1 POP JUMP JUMPDEST PUSH32 0x4E487B7100000000000000000000000000000000000000000000000000000000 PUSH1 0x0 MSTORE PUSH1 0x11 PUSH1 0x4 MSTORE PUSH1 0x24 PUSH1 0x0 REVERT JUMPDEST PUSH1 0x0 PUSH2 0x179 DUP3 PUSH2 0x131 JUMP JUMPDEST SWAP2 POP PUSH2 0x184 DUP4 PUSH2 0x131 JUMP JUMPDEST SWAP3 POP DUP3 DUP3 MUL PUSH2 0x192 DUP2 PUSH2 0x131 JUMP JUMPDEST SWAP2 POP DUP1 DUP3 EQ PUSH2 0x1A4 JUMPI PUSH2 0x1A3 PUSH2 0x13F JUMP JUMPDEST JUMPDEST POP SWAP3 SWAP2 POP POP JUMP JUMPDEST PUSH1 0x0 PUSH2 0x1B6 DUP3 PUSH2 0x131 JUMP JUMPDEST SWAP2 POP PUSH2 0x1C1 DUP4 PUSH2 0x131 JUMP JUMPDEST SWAP3 POP DUP3 DUP3 ADD SWAP1 POP PUSH2 0xFFFF DUP2 GT ISZERO PUSH2 0x1DB JUMPI PUSH2 0x1DA PUSH2 0x13F JUMP JUMPDEST JUMPDEST SWAP3 SWAP2 POP POP JUMP JUMPDEST PUSH1 0x0 PUSH2 0x1EC DUP3 PUSH2 0x131 JUMP JUMPDEST SWAP2 POP PUSH2 0xFFFF DUP3 SUB PUSH2 0x200 JUMPI PUSH2 0x1FF PUSH2 0x13F JUMP JUMPDEST JUMPDEST PUSH1 0x1 DUP3 ADD SWAP1 POP SWAP2 SWAP1 POP JUMP JUMPDEST PUSH2 0x4B4C DUP1 PUSH2 0x21A PUSH1 0x0 CODECOPY PUSH1 0x0 RETURN INVALID PUSH1 0x80 PUSH1 0x40 MSTORE PUSH1 0x4 CALLDATASIZE LT PUSH2 0x181 JUMPI PUSH1 0x0 CALLDATALOAD PUSH1 0xE0 SHR DUP1 PUSH4 0x78B5749D GT PUSH2 0xD1 JUMPI DUP1 PUSH4 0xB1583546 GT PUSH2 0x8A JUMPI DUP1 PUSH4 0xC12E8063 GT PUSH2 0x64 JUMPI DUP1 PUSH4 0xC12E8063 EQ PUSH2 0x635 JUMPI DUP1 PUSH4 0xD5009584 EQ PUSH2 0x651 JUMPI DUP1 PUSH4 0xE4D65D54 EQ PUSH2 0x67C JUMPI DUP1 PUSH4 0xEAF5D9DC EQ PUSH2 0x6B9 JUMPI PUSH2 0x181 JUMP JUMPDEST DUP1 PUSH4 0xB1583546 EQ PUSH2 0x5A6 JUMPI DUP1 PUSH4 0xB7F59C99 EQ PUSH2 0x5CF JUMPI DUP1 PUSH4 0xBC2F89F3 EQ PUSH2 0x5F8 JUMPI PUSH2 0x181 JUMP JUMPDEST DUP1 PUSH4 0x78B5749D EQ PUSH2 0x44C JUMPI DUP1 PUSH4 0x7B57EE49 EQ PUSH2 0x489 JUMPI DUP1 PUSH4 0x8FC5DAD8 EQ PUSH2 0x4C6 JUMPI DUP1 PUSH4 0x90CA27F3 EQ PUSH2 0x503 JUMPI DUP1 PUSH4 0x967D59E4 EQ PUSH2 0x52C JUMPI DUP1 PUSH4 0x9E1BF985 EQ PUSH2 0x569 JUMPI PUSH2 0x181 JUMP JUMPDEST DUP1 PUSH4 0x43B8C6B1 GT PUSH2 0x13E JUMPI DUP1 PUSH4 0x4DE53265 GT PUSH2 0x118 JUMPI DUP1 PUSH4 0x4DE53265 EQ PUSH2 0x37E JUMPI DUP1 PUSH4 0x597DE987 EQ PUSH2 0x3BB JUMPI DUP1 PUSH4 0x68ACA335 EQ PUSH2 0x3E4 JUMPI DUP1 PUSH4 0x783BB57D EQ PUSH2 0x421 JUMPI PUSH2 0x181 JUMP JUMPDEST DUP1 PUSH4 0x43B8C6B1 EQ PUSH2 0x2ED JUMPI DUP1 PUSH4 0x474502D8 EQ PUSH2 0x316 JUMPI DUP1 PUSH4 0x481C6A75 EQ PUSH2 0x353 JUMPI PUSH2 0x181 JUMP JUMPDEST DUP1 PUSH4 0x847A4FB EQ PUSH2 0x186 JUMPI DUP1 PUSH4 0xF2FBEEC EQ PUSH2 0x1C6 JUMPI DUP1 PUSH4 0x12CB70C7 EQ PUSH2 0x20B JUMPI DUP1 PUSH4 0x1794230C EQ PUSH2 0x248 JUMPI DUP1 PUSH4 0x1DF8BA77 EQ PUSH2 0x285 JUMPI DUP1 PUSH4 0x2F9F21FE EQ PUSH2 0x2B0 JUMPI JUMPDEST PUSH1 0x0 DUP1 REVERT JUMPDEST CALLVALUE DUP1 ISZERO PUSH2 0x192 JUMPI PUSH1 0x0 DUP1 REVERT JUMPDEST POP PUSH2 0x1AD PUSH1 0x4 DUP1 CALLDATASIZE SUB DUP2 ADD SWAP1 PUSH2 0x1A8 SWAP2 SWAP1 PUSH2 0x2F34 JUMP JUMPDEST PUSH2 0x6F6 JUMP JUMPDEST PUSH1 0x40 MLOAD PUSH2 0x1BD SWAP5 SWAP4 SWAP3 SWAP2 SWAP1 PUSH2 0x3058 JUMP JUMPDEST PUSH1 0x40 MLOAD DUP1 SWAP2 SUB SWAP1 RETURN JUMPDEST CALLVALUE DUP1 ISZERO PUSH2 0x1D2 JUMPI PUSH1 0x0 DUP1 REVERT JUMPDEST POP PUSH2 0x1ED PUSH1 0x4 DUP1 CALLDATASIZE SUB DUP2 ADD SWAP1 PUSH2 0x1E8 SWAP2 SWAP1 PUSH2 0x309D JUMP JUMPDEST PUSH2 0x77E JUMP JUMPDEST PUSH1 0x40 MLOAD PUSH2 0x202 SWAP10 SWAP9 SWAP8 SWAP7 SWAP6 SWAP5 SWAP4 SWAP3 SWAP2 SWAP1 PUSH2 0x31EA JUMP JUMPDEST PUSH1 0x40 MLOAD DUP1 SWAP2 SUB SWAP1 RETURN JUMPDEST CALLVALUE DUP1 ISZERO PUSH2 0x217 JUMPI PUSH1 0x0 DUP1 REVERT JUMPDEST POP PUSH2 0x232 PUSH1 0x4 DUP1 CALLDATASIZE SUB DUP2 ADD SWAP1 PUSH2 0x22D SWAP2 SWAP1 PUSH2 0x33BA JUMP JUMPDEST PUSH2 0x916 JUMP JUMPDEST PUSH1 0x40 MLOAD PUSH2 0x23F SWAP2 SWAP1 PUSH2 0x34CE JUMP JUMPDEST PUSH1 0x40 MLOAD DUP1 SWAP2 SUB SWAP1 RETURN JUMPDEST CALLVALUE DUP1 ISZERO PUSH2 0x254 JUMPI PUSH1 0x0 DUP1 REVERT JUMPDEST POP PUSH2 0x26F PUSH1 0x4 DUP1 CALLDATASIZE SUB DUP2 ADD SWAP1 PUSH2 0x26A SWAP2 SWAP1 PUSH2 0x351C JUMP JUMPDEST PUSH2 0xBB9 JUMP JUMPDEST PUSH1 0x40 MLOAD PUSH2 0x27C SWAP2 SWAP1 PUSH2 0x3549 JUMP JUMPDEST PUSH1 0x40 MLOAD DUP1 SWAP2 SUB SWAP1 RETURN JUMPDEST CALLVALUE DUP1 ISZERO PUSH2 0x291 JUMPI PUSH1 0x0 DUP1 REVERT JUMPDEST POP PUSH2 0x29A PUSH2 0xBD1 JUMP JUMPDEST PUSH1 0x40 MLOAD PUSH2 0x2A7 SWAP2 SWAP1 PUSH2 0x3549 JUMP JUMPDEST PUSH1 0x40 MLOAD DUP1 SWAP2 SUB SWAP1 RETURN JUMPDEST CALLVALUE DUP1 ISZERO PUSH2 0x2BC JUMPI PUSH1 0x0 DUP1 REVERT JUMPDEST POP PUSH2 0x2D7 PUSH1 0x4 DUP1 CALLDATASIZE SUB DUP2 ADD SWAP1 PUSH2 0x2D2 SWAP2 SWAP1 PUSH2 0x3564 JUMP JUMPDEST PUSH2 0xBDB JUMP JUMPDEST PUSH1 0x40 MLOAD PUSH2 0x2E4 SWAP2 SWAP1 PUSH2 0x3549 JUMP JUMPDEST PUSH1 0x40 MLOAD DUP1 SWAP2 SUB SWAP1 RETURN JUMPDEST CALLVALUE DUP1 ISZERO PUSH2 0x2F9 JUMPI PUSH1 0x0 DUP1 REVERT JUMPDEST POP PUSH2 0x314 PUSH1 0x4 DUP1 CALLDATASIZE SUB DUP2 ADD SWAP1 PUSH2 0x30F SWAP2 SWAP1 PUSH2 0x35FE JUMP JUMPDEST PUSH2 0xC07 JUMP JUMPDEST STOP JUMPDEST CALLVALUE DUP1 ISZERO PUSH2 0x322 JUMPI PUSH1 0x0 DUP1 REVERT JUMPDEST POP PUSH2 0x33D PUSH1 0x4 DUP1 CALLDATASIZE SUB DUP2 ADD SWAP1 PUSH2 0x338 SWAP2 SWAP1 PUSH2 0x3564 JUMP JUMPDEST PUSH2 0x107A JUMP JUMPDEST PUSH1 0x40 MLOAD PUSH2 0x34A SWAP2 SWAP1 PUSH2 0x379B JUMP JUMPDEST PUSH1 0x40 MLOAD DUP1 SWAP2 SUB SWAP1 RETURN JUMPDEST CALLVALUE DUP1 ISZERO PUSH2 0x35F JUMPI PUSH1 0x0 DUP1 REVERT JUMPDEST POP PUSH2 0x368 PUSH2 0x12CD JUMP JUMPDEST PUSH1 0x40 MLOAD PUSH2 0x375 SWAP2 SWAP1 PUSH2 0x37BD JUMP JUMPDEST PUSH1 0x40 MLOAD DUP1 SWAP2 SUB SWAP1 RETURN JUMPDEST CALLVALUE DUP1 ISZERO PUSH2 0x38A JUMPI PUSH1 0x0 DUP1 REVERT JUMPDEST POP PUSH2 0x3A5 PUSH1 0x4 DUP1 CALLDATASIZE SUB DUP2 ADD SWAP1 PUSH2 0x3A0 SWAP2 SWAP1 PUSH2 0x37D8 JUMP JUMPDEST PUSH2 0x12F1 JUMP JUMPDEST PUSH1 0x40 MLOAD PUSH2 0x3B2 SWAP2 SWAP1 PUSH2 0x3820 JUMP JUMPDEST PUSH1 0x40 MLOAD DUP1 SWAP2 SUB SWAP1 RETURN JUMPDEST CALLVALUE DUP1 ISZERO PUSH2 0x3C7 JUMPI PUSH1 0x0 DUP1 REVERT JUMPDEST POP PUSH2 0x3E2 PUSH1 0x4 DUP1 CALLDATASIZE SUB DUP2 ADD SWAP1 PUSH2 0x3DD SWAP2 SWAP1 PUSH2 0x37D8 JUMP JUMPDEST PUSH2 0x1311 JUMP JUMPDEST STOP JUMPDEST CALLVALUE DUP1 ISZERO PUSH2 0x3F0 JUMPI PUSH1 0x0 DUP1 REVERT JUMPDEST POP PUSH2 0x40B PUSH1 0x4 DUP1 CALLDATASIZE SUB DUP2 ADD SWAP1 PUSH2 0x406 SWAP2 SWAP1 PUSH2 0x37D8 JUMP JUMPDEST PUSH2 0x147F JUMP JUMPDEST PUSH1 0x40 MLOAD PUSH2 0x418 SWAP2 SWAP1 PUSH2 0x3820 JUMP JUMPDEST PUSH1 0x40 MLOAD DUP1 SWAP2 SUB SWAP1 RETURN JUMPDEST CALLVALUE DUP1 ISZERO PUSH2 0x42D JUMPI PUSH1 0x0 DUP1 REVERT JUMPDEST POP PUSH2 0x436 PUSH2 0x14DC JUMP JUMPDEST PUSH1 0x40 MLOAD PUSH2 0x443 SWAP2 SWAP1 PUSH2 0x3549 JUMP JUMPDEST PUSH1 0x40 MLOAD DUP1 SWAP2 SUB SWAP1 RETURN JUMPDEST CALLVALUE DUP1 ISZERO PUSH2 0x458 JUMPI PUSH1 0x0 DUP1 REVERT JUMPDEST POP PUSH2 0x473 PUSH1 0x4 DUP1 CALLDATASIZE SUB DUP2 ADD SWAP1 PUSH2 0x46E SWAP2 SWAP1 PUSH2 0x3564 JUMP JUMPDEST PUSH2 0x14E2 JUMP JUMPDEST PUSH1 0x40 MLOAD PUSH2 0x480 SWAP2 SWAP1 PUSH2 0x3820 JUMP JUMPDEST PUSH1 0x40 MLOAD DUP1 SWAP2 SUB SWAP1 RETURN JUMPDEST CALLVALUE DUP1 ISZERO PUSH2 0x495 JUMPI PUSH1 0x0 DUP1 REVERT JUMPDEST POP PUSH2 0x4B0 PUSH1 0x4 DUP1 CALLDATASIZE SUB DUP2 ADD SWAP1 PUSH2 0x4AB SWAP2 SWAP1 PUSH2 0x3564 JUMP JUMPDEST PUSH2 0x14FA JUMP JUMPDEST PUSH1 0x40 MLOAD PUSH2 0x4BD SWAP2 SWAP1 PUSH2 0x38AD JUMP JUMPDEST PUSH1 0x40 MLOAD DUP1 SWAP2 SUB SWAP1 RETURN JUMPDEST CALLVALUE DUP1 ISZERO PUSH2 0x4D2 JUMPI PUSH1 0x0 DUP1 REVERT JUMPDEST POP PUSH2 0x4ED PUSH1 0x4 DUP1 CALLDATASIZE SUB DUP2 ADD SWAP1 PUSH2 0x4E8 SWAP2 SWAP1 PUSH2 0x3564 JUMP JUMPDEST PUSH2 0x1758 JUMP JUMPDEST PUSH1 0x40 MLOAD PUSH2 0x4FA SWAP2 SWAP1 PUSH2 0x38AD JUMP JUMPDEST PUSH1 0x40 MLOAD DUP1 SWAP2 SUB SWAP1 RETURN JUMPDEST CALLVALUE DUP1 ISZERO PUSH2 0x50F JUMPI PUSH1 0x0 DUP1 REVERT JUMPDEST POP PUSH2 0x52A PUSH1 0x4 DUP1 CALLDATASIZE SUB DUP2 ADD SWAP1 PUSH2 0x525 SWAP2 SWAP1 PUSH2 0x38F4 JUMP JUMPDEST PUSH2 0x1D87 JUMP JUMPDEST STOP JUMPDEST CALLVALUE DUP1 ISZERO PUSH2 0x538 JUMPI PUSH1 0x0 DUP1 REVERT JUMPDEST POP PUSH2 0x553 PUSH1 0x4 DUP1 CALLDATASIZE SUB DUP2 ADD SWAP1 PUSH2 0x54E SWAP2 SWAP1 PUSH2 0x351C JUMP JUMPDEST PUSH2 0x22E6 JUMP JUMPDEST PUSH1 0x40 MLOAD PUSH2 0x560 SWAP2 SWAP1 PUSH2 0x3820 JUMP JUMPDEST PUSH1 0x40 MLOAD DUP1 SWAP2 SUB SWAP1 RETURN JUMPDEST CALLVALUE DUP1 ISZERO PUSH2 0x575 JUMPI PUSH1 0x0 DUP1 REVERT JUMPDEST POP PUSH2 0x590 PUSH1 0x4 DUP1 CALLDATASIZE SUB DUP2 ADD SWAP1 PUSH2 0x58B SWAP2 SWAP1 PUSH2 0x3564 JUMP JUMPDEST PUSH2 0x2318 JUMP JUMPDEST PUSH1 0x40 MLOAD PUSH2 0x59D SWAP2 SWAP1 PUSH2 0x38AD JUMP JUMPDEST PUSH1 0x40 MLOAD DUP1 SWAP2 SUB SWAP1 RETURN JUMPDEST CALLVALUE DUP1 ISZERO PUSH2 0x5B2 JUMPI PUSH1 0x0 DUP1 REVERT JUMPDEST POP PUSH2 0x5CD PUSH1 0x4 DUP1 CALLDATASIZE SUB DUP2 ADD SWAP1 PUSH2 0x5C8 SWAP2 SWAP1 PUSH2 0x3950 JUMP JUMPDEST PUSH2 0x252A JUMP JUMPDEST STOP JUMPDEST CALLVALUE DUP1 ISZERO PUSH2 0x5DB JUMPI PUSH1 0x0 DUP1 REVERT JUMPDEST POP PUSH2 0x5F6 PUSH1 0x4 DUP1 CALLDATASIZE SUB DUP2 ADD SWAP1 PUSH2 0x5F1 SWAP2 SWAP1 PUSH2 0x39BC JUMP JUMPDEST PUSH2 0x2723 JUMP JUMPDEST STOP JUMPDEST CALLVALUE DUP1 ISZERO PUSH2 0x604 JUMPI PUSH1 0x0 DUP1 REVERT JUMPDEST POP PUSH2 0x61F PUSH1 0x4 DUP1 CALLDATASIZE SUB DUP2 ADD SWAP1 PUSH2 0x61A SWAP2 SWAP1 PUSH2 0x351C JUMP JUMPDEST PUSH2 0x292A JUMP JUMPDEST PUSH1 0x40 MLOAD PUSH2 0x62C SWAP2 SWAP1 PUSH2 0x3820 JUMP JUMPDEST PUSH1 0x40 MLOAD DUP1 SWAP2 SUB SWAP1 RETURN JUMPDEST PUSH2 0x64F PUSH1 0x4 DUP1 CALLDATASIZE SUB DUP2 ADD SWAP1 PUSH2 0x64A SWAP2 SWAP1 PUSH2 0x351C JUMP JUMPDEST PUSH2 0x294A JUMP JUMPDEST STOP JUMPDEST CALLVALUE DUP1 ISZERO PUSH2 0x65D JUMPI PUSH1 0x0 DUP1 REVERT JUMPDEST POP PUSH2 0x666 PUSH2 0x2A65 JUMP JUMPDEST PUSH1 0x40 MLOAD PUSH2 0x673 SWAP2 SWAP1 PUSH2 0x37BD JUMP JUMPDEST PUSH1 0x40 MLOAD DUP1 SWAP2 SUB SWAP1 RETURN JUMPDEST CALLVALUE DUP1 ISZERO PUSH2 0x688 JUMPI PUSH1 0x0 DUP1 REVERT JUMPDEST POP PUSH2 0x6A3 PUSH1 0x4 DUP1 CALLDATASIZE SUB DUP2 ADD SWAP1 PUSH2 0x69E SWAP2 SWAP1 PUSH2 0x37D8 JUMP JUMPDEST PUSH2 0x2A8E JUMP JUMPDEST PUSH1 0x40 MLOAD PUSH2 0x6B0 SWAP2 SWAP1 PUSH2 0x39FC JUMP JUMPDEST PUSH1 0x40 MLOAD DUP1 SWAP2 SUB SWAP1 RETURN JUMPDEST CALLVALUE DUP1 ISZERO PUSH2 0x6C5 JUMPI PUSH1 0x0 DUP1 REVERT JUMPDEST POP PUSH2 0x6E0 PUSH1 0x4 DUP1 CALLDATASIZE SUB DUP2 ADD SWAP1 PUSH2 0x6DB SWAP2 SWAP1 PUSH2 0x3A17 JUMP JUMPDEST PUSH2 0x2AAF JUMP JUMPDEST PUSH1 0x40 MLOAD PUSH2 0x6ED SWAP2 SWAP1 PUSH2 0x38AD JUMP JUMPDEST PUSH1 0x40 MLOAD DUP1 SWAP2 SUB SWAP1 RETURN JUMPDEST PUSH1 0x7 PUSH1 0x20 MSTORE DUP2 PUSH1 0x0 MSTORE PUSH1 0x40 PUSH1 0x0 KECCAK256 DUP2 DUP2 SLOAD DUP2 LT PUSH2 0x712 JUMPI PUSH1 0x0 DUP1 REVERT JUMPDEST SWAP1 PUSH1 0x0 MSTORE PUSH1 0x20 PUSH1 0x0 KECCAK256 SWAP1 PUSH1 0x2 MUL ADD PUSH1 0x0 SWAP2 POP SWAP2 POP POP DUP1 PUSH1 0x0 ADD PUSH1 0x0 SWAP1 SLOAD SWAP1 PUSH2 0x100 EXP SWAP1 DIV PUSH20 0xFFFFFFFFFFFFFFFFFFFFFFFFFFFFFFFFFFFFFFFF AND SWAP1 DUP1 PUSH1 0x0 ADD PUSH1 0x14 SWAP1 SLOAD SWAP1 PUSH2 0x100 EXP SWAP1 DIV PUSH2 0xFFFF AND SWAP1 DUP1 PUSH1 0x0 ADD PUSH1 0x16 SWAP1 SLOAD SWAP1 PUSH2 0x100 EXP SWAP1 DIV PUSH1 0xFF AND SWAP1 DUP1 PUSH1 0x1 ADD SLOAD SWAP1 POP DUP5 JUMP JUMPDEST PUSH1 0x6 PUSH1 0x20 MSTORE DUP1 PUSH1 0x0 MSTORE PUSH1 0x40 PUSH1 0x0 KECCAK256 PUSH1 0x0 SWAP2 POP SWAP1 POP DUP1 PUSH1 0x0 ADD DUP1 SLOAD PUSH2 0x7A1 SWAP1 PUSH2 0x3AE5 JUMP JUMPDEST DUP1 PUSH1 0x1F ADD PUSH1 0x20 DUP1 SWAP2 DIV MUL PUSH1 0x20 ADD PUSH1 0x40 MLOAD SWAP1 DUP2 ADD PUSH1 0x40 MSTORE DUP1 SWAP3 SWAP2 SWAP1 DUP2 DUP2 MSTORE PUSH1 0x20 ADD DUP3 DUP1 SLOAD PUSH2 0x7CD SWAP1 PUSH2 0x3AE5 JUMP JUMPDEST DUP1 ISZERO PUSH2 0x81A JUMPI DUP1 PUSH1 0x1F LT PUSH2 0x7EF JUMPI PUSH2 0x100 DUP1 DUP4 SLOAD DIV MUL DUP4 MSTORE SWAP2 PUSH1 0x20 ADD SWAP2 PUSH2 0x81A JUMP JUMPDEST DUP3 ADD SWAP2 SWAP1 PUSH1 0x0 MSTORE PUSH1 0x20 PUSH1 0x0 KECCAK256 SWAP1 JUMPDEST DUP2 SLOAD DUP2 MSTORE SWAP1 PUSH1 0x1 ADD SWAP1 PUSH1 0x20 ADD DUP1 DUP4 GT PUSH2 0x7FD JUMPI DUP3 SWAP1 SUB PUSH1 0x1F AND DUP3 ADD SWAP2 JUMPDEST POP POP POP POP POP SWAP1 DUP1 PUSH1 0x1 ADD DUP1 SLOAD PUSH2 0x82F SWAP1 PUSH2 0x3AE5 JUMP JUMPDEST DUP1 PUSH1 0x1F ADD PUSH1 0x20 DUP1 SWAP2 DIV MUL PUSH1 0x20 ADD PUSH1 0x40 MLOAD SWAP1 DUP2 ADD PUSH1 0x40 MSTORE DUP1 SWAP3 SWAP2 SWAP1 DUP2 DUP2 MSTORE PUSH1 0x20 ADD DUP3 DUP1 SLOAD PUSH2 0x85B SWAP1 PUSH2 0x3AE5 JUMP JUMPDEST DUP1 ISZERO PUSH2 0x8A8 JUMPI DUP1 PUSH1 0x1F LT PUSH2 0x87D JUMPI PUSH2 0x100 DUP1 DUP4 SLOAD DIV MUL DUP4 MSTORE SWAP2 PUSH1 0x20 ADD SWAP2 PUSH2 0x8A8 JUMP JUMPDEST DUP3 ADD SWAP2 SWAP1 PUSH1 0x0 MSTORE PUSH1 0x20 PUSH1 0x0 KECCAK256 SWAP1 JUMPDEST DUP2 SLOAD DUP2 MSTORE SWAP1 PUSH1 0x1 ADD SWAP1 PUSH1 0x20 ADD DUP1 DUP4 GT PUSH2 0x88B JUMPI DUP3 SWAP1 SUB PUSH1 0x1F AND DUP3 ADD SWAP2 JUMPDEST POP POP POP POP POP SWAP1 DUP1 PUSH1 0x2 ADD PUSH1 0x0 SWAP1 SLOAD SWAP1 PUSH2 0x100 EXP SWAP1 DIV PUSH1 0xFF AND SWAP1 DUP1 PUSH1 0x3 ADD SLOAD SWAP1 DUP1 PUSH1 0x4 ADD SLOAD SWAP1 DUP1 PUSH1 0x5 ADD SLOAD SWAP1 DUP1 PUSH1 0x6 ADD PUSH1 0x0 SWAP1 SLOAD SWAP1 PUSH2 0x100 EXP SWAP1 DIV PUSH1 0xFF AND SWAP1 DUP1 PUSH1 0x7 ADD SLOAD SWAP1 DUP1 PUSH1 0x8 ADD PUSH1 0x0 SWAP1 SLOAD SWAP1 PUSH2 0x100 EXP SWAP1 DIV PUSH20 0xFFFFFFFFFFFFFFFFFFFFFFFFFFFFFFFFFFFFFFFF AND SWAP1 POP DUP10 JUMP JUMPDEST PUSH2 0x91E PUSH2 0x2D4B JUMP JUMPDEST PUSH1 0x0 DUP1 SLOAD SWAP1 PUSH2 0x100 EXP SWAP1 DIV PUSH20 0xFFFFFFFFFFFFFFFFFFFFFFFFFFFFFFFFFFFFFFFF AND PUSH20 0xFFFFFFFFFFFFFFFFFFFFFFFFFFFFFFFFFFFFFFFF AND ORIGIN PUSH20 0xFFFFFFFFFFFFFFFFFFFFFFFFFFFFFFFFFFFFFFFF AND EQ PUSH2 0x9AC JUMPI PUSH1 0x40 MLOAD PUSH32 0x8C379A000000000000000000000000000000000000000000000000000000000 DUP2 MSTORE PUSH1 0x4 ADD PUSH2 0x9A3 SWAP1 PUSH2 0x3B88 JUMP JUMPDEST PUSH1 0x40 MLOAD DUP1 SWAP2 SUB SWAP1 REVERT JUMPDEST DUP2 SELFBALANCE LT ISZERO PUSH2 0x9EF JUMPI PUSH1 0x40 MLOAD PUSH32 0x8C379A000000000000000000000000000000000000000000000000000000000 DUP2 MSTORE PUSH1 0x4 ADD PUSH2 0x9E6 SWAP1 PUSH2 0x3BF4 JUMP JUMPDEST PUSH1 0x40 MLOAD DUP1 SWAP2 SUB SWAP1 REVERT JUMPDEST PUSH1 0x0 PUSH2 0x9FA DUP5 PUSH2 0x107A JUMP JUMPDEST SWAP1 POP PUSH1 0x2 PUSH1 0x5 DUP2 GT ISZERO PUSH2 0xA10 JUMPI PUSH2 0xA0F PUSH2 0x2FD2 JUMP JUMPDEST JUMPDEST DUP2 PUSH1 0x40 ADD MLOAD PUSH1 0x5 DUP2 GT ISZERO PUSH2 0xA27 JUMPI PUSH2 0xA26 PUSH2 0x2FD2 JUMP JUMPDEST JUMPDEST EQ DUP1 ISZERO PUSH2 0xA5C JUMPI POP PUSH1 0x1 PUSH1 0x3 DUP2 GT ISZERO PUSH2 0xA43 JUMPI PUSH2 0xA42 PUSH2 0x2FD2 JUMP JUMPDEST JUMPDEST DUP2 PUSH1 0xC0 ADD MLOAD PUSH1 0x3 DUP2 GT ISZERO PUSH2 0xA5A JUMPI PUSH2 0xA59 PUSH2 0x2FD2 JUMP JUMPDEST JUMPDEST EQ JUMPDEST PUSH2 0xA9B JUMPI PUSH1 0x40 MLOAD PUSH32 0x8C379A000000000000000000000000000000000000000000000000000000000 DUP2 MSTORE PUSH1 0x4 ADD PUSH2 0xA92 SWAP1 PUSH2 0x3C86 JUMP JUMPDEST PUSH1 0x40 MLOAD DUP1 SWAP2 SUB SWAP1 REVERT JUMPDEST DUP3 DUP2 PUSH1 0xE0 ADD MLOAD LT ISZERO PUSH2 0xAE2 JUMPI PUSH1 0x40 MLOAD PUSH32 0x8C379A000000000000000000000000000000000000000000000000000000000 DUP2 MSTORE PUSH1 0x4 ADD PUSH2 0xAD9 SWAP1 PUSH2 0x3D18 JUMP JUMPDEST PUSH1 0x40 MLOAD DUP1 SWAP2 SUB SWAP1 REVERT JUMPDEST DUP1 PUSH2 0x100 ADD MLOAD PUSH20 0xFFFFFFFFFFFFFFFFFFFFFFFFFFFFFFFFFFFFFFFF AND PUSH2 0x8FC DUP5 SWAP1 DUP2 ISZERO MUL SWAP1 PUSH1 0x40 MLOAD PUSH1 0x0 PUSH1 0x40 MLOAD DUP1 DUP4 SUB DUP2 DUP6 DUP9 DUP9 CALL SWAP4 POP POP POP POP ISZERO DUP1 ISZERO PUSH2 0xB2D JUMPI RETURNDATASIZE PUSH1 0x0 DUP1 RETURNDATACOPY RETURNDATASIZE PUSH1 0x0 REVERT JUMPDEST POP PUSH1 0x0 DUP5 DUP1 MLOAD SWAP1 PUSH1 0x20 ADD KECCAK256 SWAP1 POP PUSH1 0x5 PUSH1 0x6 PUSH1 0x0 DUP4 DUP2 MSTORE PUSH1 0x20 ADD SWAP1 DUP2 MSTORE PUSH1 0x20 ADD PUSH1 0x0 KECCAK256 PUSH1 0x2 ADD PUSH1 0x0 PUSH2 0x100 EXP DUP2 SLOAD DUP2 PUSH1 0xFF MUL NOT AND SWAP1 DUP4 PUSH1 0x5 DUP2 GT ISZERO PUSH2 0xB74 JUMPI PUSH2 0xB73 PUSH2 0x2FD2 JUMP JUMPDEST JUMPDEST MUL OR SWAP1 SSTORE POP PUSH1 0x40 MLOAD DUP1 PUSH1 0x60 ADD PUSH1 0x40 MSTORE DUP1 DUP4 PUSH2 0x100 ADD MLOAD PUSH20 0xFFFFFFFFFFFFFFFFFFFFFFFFFFFFFFFFFFFFFFFF AND DUP2 MSTORE PUSH1 0x20 ADD DUP6 DUP2 MSTORE PUSH1 0x20 ADD DUP7 DUP2 MSTORE POP SWAP3 POP POP POP SWAP3 SWAP2 POP POP JUMP JUMPDEST PUSH1 0x5 PUSH1 0x20 MSTORE DUP1 PUSH1 0x0 MSTORE PUSH1 0x40 PUSH1 0x0 KECCAK256 PUSH1 0x0 SWAP2 POP SWAP1 POP SLOAD DUP2 JUMP JUMPDEST PUSH1 0x0 PUSH1 0x1 SLOAD SWAP1 POP SWAP1 JUMP JUMPDEST PUSH1 0x0 DUP1 DUP3 DUP1 MLOAD SWAP1 PUSH1 0x20 ADD KECCAK256 SWAP1 POP PUSH1 0x7 PUSH1 0x0 DUP3 DUP2 MSTORE PUSH1 0x20 ADD SWAP1 DUP2 MSTORE PUSH1 0x20 ADD PUSH1 0x0 KECCAK256 DUP1 SLOAD SWAP1 POP SWAP2 POP POP SWAP2 SWAP1 POP JUMP JUMPDEST PUSH1 0x0 DUP1 SLOAD SWAP1 PUSH2 0x100 EXP SWAP1 DIV PUSH20 0xFFFFFFFFFFFFFFFFFFFFFFFFFFFFFFFFFFFFFFFF AND PUSH20 0xFFFFFFFFFFFFFFFFFFFFFFFFFFFFFFFFFFFFFFFF AND ORIGIN PUSH20 0xFFFFFFFFFFFFFFFFFFFFFFFFFFFFFFFFFFFFFFFF AND EQ DUP1 PUSH2 0xC66 JUMPI POP PUSH2 0xC65 ORIGIN PUSH2 0x147F JUMP JUMPDEST JUMPDEST PUSH2 0xCA5 JUMPI PUSH1 0x40 MLOAD PUSH32 0x8C379A000000000000000000000000000000000000000000000000000000000 DUP2 MSTORE PUSH1 0x4 ADD PUSH2 0xC9C SWAP1 PUSH2 0x3DAA JUMP JUMPDEST PUSH1 0x40 MLOAD DUP1 SWAP2 SUB SWAP1 REVERT JUMPDEST PUSH1 0x0 DUP1 SLOAD SWAP1 PUSH2 0x100 EXP SWAP1 DIV PUSH20 0xFFFFFFFFFFFFFFFFFFFFFFFFFFFFFFFFFFFFFFFF AND PUSH20 0xFFFFFFFFFFFFFFFFFFFFFFFFFFFFFFFFFFFFFFFF AND ORIGIN PUSH20 0xFFFFFFFFFFFFFFFFFFFFFFFFFFFFFFFFFFFFFFFF AND EQ DUP1 PUSH2 0xD74 JUMPI POP PUSH3 0x278D00 PUSH1 0x5 PUSH1 0x0 PUSH1 0x3 PUSH1 0x0 ORIGIN PUSH20 0xFFFFFFFFFFFFFFFFFFFFFFFFFFFFFFFFFFFFFFFF AND PUSH20 0xFFFFFFFFFFFFFFFFFFFFFFFFFFFFFFFFFFFFFFFF AND DUP2 MSTORE PUSH1 0x20 ADD SWAP1 DUP2 MSTORE PUSH1 0x20 ADD PUSH1 0x0 KECCAK256 PUSH1 0x0 SWAP1 SLOAD SWAP1 PUSH2 0x100 EXP SWAP1 DIV PUSH2 0xFFFF AND PUSH2 0xFFFF AND PUSH2 0xFFFF AND DUP2 MSTORE PUSH1 0x20 ADD SWAP1 DUP2 MSTORE PUSH1 0x20 ADD PUSH1 0x0 KECCAK256 SLOAD PUSH2 0xD71 SWAP2 SWAP1 PUSH2 0x3DF9 JUMP JUMPDEST TIMESTAMP LT JUMPDEST PUSH2 0xDB3 JUMPI PUSH1 0x40 MLOAD PUSH32 0x8C379A000000000000000000000000000000000000000000000000000000000 DUP2 MSTORE PUSH1 0x4 ADD PUSH2 0xDAA SWAP1 PUSH2 0x3E79 JUMP JUMPDEST PUSH1 0x40 MLOAD DUP1 SWAP2 SUB SWAP1 REVERT JUMPDEST PUSH2 0xDBC DUP6 PUSH2 0x14E2 JUMP JUMPDEST ISZERO PUSH2 0xDFC JUMPI PUSH1 0x40 MLOAD PUSH32 0x8C379A000000000000000000000000000000000000000000000000000000000 DUP2 MSTORE PUSH1 0x4 ADD PUSH2 0xDF3 SWAP1 PUSH2 0x3EE5 JUMP JUMPDEST PUSH1 0x40 MLOAD DUP1 SWAP2 SUB SWAP1 REVERT JUMPDEST PUSH1 0x0 DUP3 GT ISZERO PUSH2 0xE9C JUMPI PUSH1 0x2 PUSH1 0x3 DUP2 GT ISZERO PUSH2 0xE19 JUMPI PUSH2 0xE18 PUSH2 0x2FD2 JUMP JUMPDEST JUMPDEST DUP4 PUSH1 0x3 DUP2 GT ISZERO PUSH2 0xE2C JUMPI PUSH2 0xE2B PUSH2 0x2FD2 JUMP JUMPDEST JUMPDEST EQ DUP1 PUSH2 0xE5C JUMPI POP PUSH1 0x1 PUSH1 0x3 DUP2 GT ISZERO PUSH2 0xE47 JUMPI PUSH2 0xE46 PUSH2 0x2FD2 JUMP JUMPDEST JUMPDEST DUP4 PUSH1 0x3 DUP2 GT ISZERO PUSH2 0xE5A JUMPI PUSH2 0xE59 PUSH2 0x2FD2 JUMP JUMPDEST JUMPDEST EQ JUMPDEST PUSH2 0xE9B JUMPI PUSH1 0x40 MLOAD PUSH32 0x8C379A000000000000000000000000000000000000000000000000000000000 DUP2 MSTORE PUSH1 0x4 ADD PUSH2 0xE92 SWAP1 PUSH2 0x3F51 JUMP JUMPDEST PUSH1 0x40 MLOAD DUP1 SWAP2 SUB SWAP1 REVERT JUMPDEST JUMPDEST PUSH1 0x0 PUSH1 0x40 MLOAD DUP1 PUSH2 0x120 ADD PUSH1 0x40 MSTORE DUP1 DUP8 DUP2 MSTORE PUSH1 0x20 ADD DUP7 DUP2 MSTORE PUSH1 0x20 ADD PUSH1 0x0 PUSH1 0x5 DUP2 GT ISZERO PUSH2 0xECA JUMPI PUSH2 0xEC9 PUSH2 0x2FD2 JUMP JUMPDEST JUMPDEST DUP2 MSTORE PUSH1 0x20 ADD TIMESTAMP DUP2 MSTORE PUSH1 0x20 ADD PUSH1 0x0 DUP2 MSTORE PUSH1 0x20 ADD PUSH1 0x0 DUP2 MSTORE PUSH1 0x20 ADD DUP6 PUSH1 0x3 DUP2 GT ISZERO PUSH2 0xEF6 JUMPI PUSH2 0xEF5 PUSH2 0x2FD2 JUMP JUMPDEST JUMPDEST DUP2 MSTORE PUSH1 0x20 ADD DUP5 DUP2 MSTORE PUSH1 0x20 ADD PUSH1 0x0 PUSH20 0xFFFFFFFFFFFFFFFFFFFFFFFFFFFFFFFFFFFFFFFF AND DUP5 PUSH20 0xFFFFFFFFFFFFFFFFFFFFFFFFFFFFFFFFFFFFFFFF AND SUB PUSH2 0xF3B JUMPI ORIGIN PUSH2 0xF3D JUMP JUMPDEST DUP4 JUMPDEST PUSH20 0xFFFFFFFFFFFFFFFFFFFFFFFFFFFFFFFFFFFFFFFF AND DUP2 MSTORE POP SWAP1 POP DUP1 PUSH1 0x6 PUSH1 0x0 DUP9 DUP1 MLOAD SWAP1 PUSH1 0x20 ADD KECCAK256 DUP2 MSTORE PUSH1 0x20 ADD SWAP1 DUP2 MSTORE PUSH1 0x20 ADD PUSH1 0x0 KECCAK256 PUSH1 0x0 DUP3 ADD MLOAD DUP2 PUSH1 0x0 ADD SWAP1 DUP2 PUSH2 0xF88 SWAP2 SWAP1 PUSH2 0x411D JUMP JUMPDEST POP PUSH1 0x20 DUP3 ADD MLOAD DUP2 PUSH1 0x1 ADD SWAP1 DUP2 PUSH2 0xF9E SWAP2 SWAP1 PUSH2 0x411D JUMP JUMPDEST POP PUSH1 0x40 DUP3 ADD MLOAD DUP2 PUSH1 0x2 ADD PUSH1 0x0 PUSH2 0x100 EXP DUP2 SLOAD DUP2 PUSH1 0xFF MUL NOT AND SWAP1 DUP4 PUSH1 0x5 DUP2 GT ISZERO PUSH2 0xFCA JUMPI PUSH2 0xFC9 PUSH2 0x2FD2 JUMP JUMPDEST JUMPDEST MUL OR SWAP1 SSTORE POP PUSH1 0x60 DUP3 ADD MLOAD DUP2 PUSH1 0x3 ADD SSTORE PUSH1 0x80 DUP3 ADD MLOAD DUP2 PUSH1 0x4 ADD SSTORE PUSH1 0xA0 DUP3 ADD MLOAD DUP2 PUSH1 0x5 ADD SSTORE PUSH1 0xC0 DUP3 ADD MLOAD DUP2 PUSH1 0x6 ADD PUSH1 0x0 PUSH2 0x100 EXP DUP2 SLOAD DUP2 PUSH1 0xFF MUL NOT AND SWAP1 DUP4 PUSH1 0x3 DUP2 GT ISZERO PUSH2 0x1018 JUMPI PUSH2 0x1017 PUSH2 0x2FD2 JUMP JUMPDEST JUMPDEST MUL OR SWAP1 SSTORE POP PUSH1 0xE0 DUP3 ADD MLOAD DUP2 PUSH1 0x7 ADD SSTORE PUSH2 0x100 DUP3 ADD MLOAD DUP2 PUSH1 0x8 ADD PUSH1 0x0 PUSH2 0x100 EXP DUP2 SLOAD DUP2 PUSH20 0xFFFFFFFFFFFFFFFFFFFFFFFFFFFFFFFFFFFFFFFF MUL NOT AND SWAP1 DUP4 PUSH20 0xFFFFFFFFFFFFFFFFFFFFFFFFFFFFFFFFFFFFFFFF AND MUL OR SWAP1 SSTORE POP SWAP1 POP POP POP POP POP POP POP POP JUMP JUMPDEST PUSH2 0x1082 PUSH2 0x2D82 JUMP JUMPDEST PUSH1 0x0 DUP3 DUP1 MLOAD SWAP1 PUSH1 0x20 ADD KECCAK256 SWAP1 POP PUSH1 0x6 PUSH1 0x0 DUP3 DUP2 MSTORE PUSH1 0x20 ADD SWAP1 DUP2 MSTORE PUSH1 0x20 ADD PUSH1 0x0 KECCAK256 PUSH1 0x40 MLOAD DUP1 PUSH2 0x120 ADD PUSH1 0x40 MSTORE SWAP1 DUP2 PUSH1 0x0 DUP3 ADD DUP1 SLOAD PUSH2 0x10BD SWAP1 PUSH2 0x3AE5 JUMP JUMPDEST DUP1 PUSH1 0x1F ADD PUSH1 0x20 DUP1 SWAP2 DIV MUL PUSH1 0x20 ADD PUSH1 0x40 MLOAD SWAP1 DUP2 ADD PUSH1 0x40 MSTORE DUP1 SWAP3 SWAP2 SWAP1 DUP2 DUP2 MSTORE PUSH1 0x20 ADD DUP3 DUP1 SLOAD PUSH2 0x10E9 SWAP1 PUSH2 0x3AE5 JUMP JUMPDEST DUP1 ISZERO PUSH2 0x1136 JUMPI DUP1 PUSH1 0x1F LT PUSH2 0x110B JUMPI PUSH2 0x100 DUP1 DUP4 SLOAD DIV MUL DUP4 MSTORE SWAP2 PUSH1 0x20 ADD SWAP2 PUSH2 0x1136 JUMP JUMPDEST DUP3 ADD SWAP2 SWAP1 PUSH1 0x0 MSTORE PUSH1 0x20 PUSH1 0x0 KECCAK256 SWAP1 JUMPDEST DUP2 SLOAD DUP2 MSTORE SWAP1 PUSH1 0x1 ADD SWAP1 PUSH1 0x20 ADD DUP1 DUP4 GT PUSH2 0x1119 JUMPI DUP3 SWAP1 SUB PUSH1 0x1F AND DUP3 ADD SWAP2 JUMPDEST POP POP POP POP POP DUP2 MSTORE PUSH1 0x20 ADD PUSH1 0x1 DUP3 ADD DUP1 SLOAD PUSH2 0x114F SWAP1 PUSH2 0x3AE5 JUMP JUMPDEST DUP1 PUSH1 0x1F ADD PUSH1 0x20 DUP1 SWAP2 DIV MUL PUSH1 0x20 ADD PUSH1 0x40 MLOAD SWAP1 DUP2 ADD PUSH1 0x40 MSTORE DUP1 SWAP3 SWAP2 SWAP1 DUP2 DUP2 MSTORE PUSH1 0x20 ADD DUP3 DUP1 SLOAD PUSH2 0x117B SWAP1 PUSH2 0x3AE5 JUMP JUMPDEST DUP1 ISZERO PUSH2 0x11C8 JUMPI DUP1 PUSH1 0x1F LT PUSH2 0x119D JUMPI PUSH2 0x100 DUP1 DUP4 SLOAD DIV MUL DUP4 MSTORE SWAP2 PUSH1 0x20 ADD SWAP2 PUSH2 0x11C8 JUMP JUMPDEST DUP3 ADD SWAP2 SWAP1 PUSH1 0x0 MSTORE PUSH1 0x20 PUSH1 0x0 KECCAK256 SWAP1 JUMPDEST DUP2 SLOAD DUP2 MSTORE SWAP1 PUSH1 0x1 ADD SWAP1 PUSH1 0x20 ADD DUP1 DUP4 GT PUSH2 0x11AB JUMPI DUP3 SWAP1 SUB PUSH1 0x1F AND DUP3 ADD SWAP2 JUMPDEST POP POP POP POP POP DUP2 MSTORE PUSH1 0x20 ADD PUSH1 0x2 DUP3 ADD PUSH1 0x0 SWAP1 SLOAD SWAP1 PUSH2 0x100 EXP SWAP1 DIV PUSH1 0xFF AND PUSH1 0x5 DUP2 GT ISZERO PUSH2 0x11F6 JUMPI PUSH2 0x11F5 PUSH2 0x2FD2 JUMP JUMPDEST JUMPDEST PUSH1 0x5 DUP2 GT ISZERO PUSH2 0x1208 JUMPI PUSH2 0x1207 PUSH2 0x2FD2 JUMP JUMPDEST JUMPDEST DUP2 MSTORE PUSH1 0x20 ADD PUSH1 0x3 DUP3 ADD SLOAD DUP2 MSTORE PUSH1 0x20 ADD PUSH1 0x4 DUP3 ADD SLOAD DUP2 MSTORE PUSH1 0x20 ADD PUSH1 0x5 DUP3 ADD SLOAD DUP2 MSTORE PUSH1 0x20 ADD PUSH1 0x6 DUP3 ADD PUSH1 0x0 SWAP1 SLOAD SWAP1 PUSH2 0x100 EXP SWAP1 DIV PUSH1 0xFF AND PUSH1 0x3 DUP2 GT ISZERO PUSH2 0x124F JUMPI PUSH2 0x124E PUSH2 0x2FD2 JUMP JUMPDEST JUMPDEST PUSH1 0x3 DUP2 GT ISZERO PUSH2 0x1261 JUMPI PUSH2 0x1260 PUSH2 0x2FD2 JUMP JUMPDEST JUMPDEST DUP2 MSTORE PUSH1 0x20 ADD PUSH1 0x7 DUP3 ADD SLOAD DUP2 MSTORE PUSH1 0x20 ADD PUSH1 0x8 DUP3 ADD PUSH1 0x0 SWAP1 SLOAD SWAP1 PUSH2 0x100 EXP SWAP1 DIV PUSH20 0xFFFFFFFFFFFFFFFFFFFFFFFFFFFFFFFFFFFFFFFF AND PUSH20 0xFFFFFFFFFFFFFFFFFFFFFFFFFFFFFFFFFFFFFFFF AND PUSH20 0xFFFFFFFFFFFFFFFFFFFFFFFFFFFFFFFFFFFFFFFF AND DUP2 MSTORE POP POP SWAP2 POP POP SWAP2 SWAP1 POP JUMP JUMPDEST PUSH1 0x0 DUP1 SLOAD SWAP1 PUSH2 0x100 EXP SWAP1 DIV PUSH20 0xFFFFFFFFFFFFFFFFFFFFFFFFFFFFFFFFFFFFFFFF AND DUP2 JUMP JUMPDEST PUSH1 0x4 PUSH1 0x20 MSTORE DUP1 PUSH1 0x0 MSTORE PUSH1 0x40 PUSH1 0x0 KECCAK256 PUSH1 0x0 SWAP2 POP SLOAD SWAP1 PUSH2 0x100 EXP SWAP1 DIV PUSH1 0xFF AND DUP2 JUMP JUMPDEST PUSH1 0x0 DUP1 SLOAD SWAP1 PUSH2 0x100 EXP SWAP1 DIV PUSH20 0xFFFFFFFFFFFFFFFFFFFFFFFFFFFFFFFFFFFFFFFF AND PUSH20 0xFFFFFFFFFFFFFFFFFFFFFFFFFFFFFFFFFFFFFFFF AND ORIGIN PUSH20 0xFFFFFFFFFFFFFFFFFFFFFFFFFFFFFFFFFFFFFFFF AND EQ PUSH2 0x139F JUMPI PUSH1 0x40 MLOAD PUSH32 0x8C379A000000000000000000000000000000000000000000000000000000000 DUP2 MSTORE PUSH1 0x4 ADD PUSH2 0x1396 SWAP1 PUSH2 0x3B88 JUMP JUMPDEST PUSH1 0x40 MLOAD DUP1 SWAP2 SUB SWAP1 REVERT JUMPDEST PUSH1 0x4 PUSH1 0x0 DUP3 PUSH20 0xFFFFFFFFFFFFFFFFFFFFFFFFFFFFFFFFFFFFFFFF AND PUSH20 0xFFFFFFFFFFFFFFFFFFFFFFFFFFFFFFFFFFFFFFFF AND DUP2 MSTORE PUSH1 0x20 ADD SWAP1 DUP2 MSTORE PUSH1 0x20 ADD PUSH1 0x0 KECCAK256 PUSH1 0x0 SWAP1 SLOAD SWAP1 PUSH2 0x100 EXP SWAP1 DIV PUSH1 0xFF AND ISZERO PUSH2 0x142C JUMPI PUSH1 0x40 MLOAD PUSH32 0x8C379A000000000000000000000000000000000000000000000000000000000 DUP2 MSTORE PUSH1 0x4 ADD PUSH2 0x1423 SWAP1 PUSH2 0x423B JUMP JUMPDEST PUSH1 0x40 MLOAD DUP1 SWAP2 SUB SWAP1 REVERT JUMPDEST PUSH1 0x3 PUSH1 0x0 DUP3 PUSH20 0xFFFFFFFFFFFFFFFFFFFFFFFFFFFFFFFFFFFFFFFF AND PUSH20 0xFFFFFFFFFFFFFFFFFFFFFFFFFFFFFFFFFFFFFFFF AND DUP2 MSTORE PUSH1 0x20 ADD SWAP1 DUP2 MSTORE PUSH1 0x20 ADD PUSH1 0x0 KECCAK256 PUSH1 0x0 PUSH2 0x100 EXP DUP2 SLOAD SWAP1 PUSH2 0xFFFF MUL NOT AND SWAP1 SSTORE POP JUMP JUMPDEST PUSH1 0x0 DUP1 PUSH1 0x3 PUSH1 0x0 DUP5 PUSH20 0xFFFFFFFFFFFFFFFFFFFFFFFFFFFFFFFFFFFFFFFF AND PUSH20 0xFFFFFFFFFFFFFFFFFFFFFFFFFFFFFFFFFFFFFFFF AND DUP2 MSTORE PUSH1 0x20 ADD SWAP1 DUP2 MSTORE PUSH1 0x20 ADD PUSH1 0x0 KECCAK256 PUSH1 0x0 SWAP1 SLOAD SWAP1 PUSH2 0x100 EXP SWAP1 DIV PUSH2 0xFFFF AND PUSH2 0xFFFF AND GT SWAP1 POP SWAP2 SWAP1 POP JUMP JUMPDEST PUSH1 0x1 SLOAD DUP2 JUMP JUMPDEST PUSH1 0x0 DUP1 PUSH2 0x14EE DUP4 PUSH2 0x107A JUMP JUMPDEST PUSH1 0x60 ADD MLOAD GT SWAP1 POP SWAP2 SWAP1 POP JUMP JUMPDEST PUSH2 0x1502 PUSH2 0x2E08 JUMP JUMPDEST PUSH1 0x0 DUP1 SLOAD SWAP1 PUSH2 0x100 EXP SWAP1 DIV PUSH20 0xFFFFFFFFFFFFFFFFFFFFFFFFFFFFFFFFFFFFFFFF AND PUSH20 0xFFFFFFFFFFFFFFFFFFFFFFFFFFFFFFFFFFFFFFFF AND ORIGIN PUSH20 0xFFFFFFFFFFFFFFFFFFFFFFFFFFFFFFFFFFFFFFFF AND EQ PUSH2 0x1590 JUMPI PUSH1 0x40 MLOAD PUSH32 0x8C379A000000000000000000000000000000000000000000000000000000000 DUP2 MSTORE PUSH1 0x4 ADD PUSH2 0x1587 SWAP1 PUSH2 0x3B88 JUMP JUMPDEST PUSH1 0x40 MLOAD DUP1 SWAP2 SUB SWAP1 REVERT JUMPDEST PUSH1 0x0 PUSH2 0x159B DUP4 PUSH2 0x107A JUMP JUMPDEST SWAP1 POP PUSH2 0x15A6 DUP4 PUSH2 0x14E2 JUMP JUMPDEST PUSH2 0x15E5 JUMPI PUSH1 0x40 MLOAD PUSH32 0x8C379A000000000000000000000000000000000000000000000000000000000 DUP2 MSTORE PUSH1 0x4 ADD PUSH2 0x15DC SWAP1 PUSH2 0x42A7 JUMP JUMPDEST PUSH1 0x40 MLOAD DUP1 SWAP2 SUB SWAP1 REVERT JUMPDEST PUSH1 0x0 PUSH1 0x5 DUP2 GT ISZERO PUSH2 0x15F9 JUMPI PUSH2 0x15F8 PUSH2 0x2FD2 JUMP JUMPDEST JUMPDEST DUP2 PUSH1 0x40 ADD MLOAD PUSH1 0x5 DUP2 GT ISZERO PUSH2 0x1610 JUMPI PUSH2 0x160F PUSH2 0x2FD2 JUMP JUMPDEST JUMPDEST EQ PUSH2 0x1650 JUMPI PUSH1 0x40 MLOAD PUSH32 0x8C379A000000000000000000000000000000000000000000000000000000000 DUP2 MSTORE PUSH1 0x4 ADD PUSH2 0x1647 SWAP1 PUSH2 0x4339 JUMP JUMPDEST PUSH1 0x40 MLOAD DUP1 SWAP2 SUB SWAP1 REVERT JUMPDEST PUSH1 0x0 DUP4 DUP1 MLOAD SWAP1 PUSH1 0x20 ADD KECCAK256 SWAP1 POP PUSH1 0x6 PUSH1 0x0 DUP3 DUP2 MSTORE PUSH1 0x20 ADD SWAP1 DUP2 MSTORE PUSH1 0x20 ADD PUSH1 0x0 KECCAK256 PUSH1 0x0 DUP1 DUP3 ADD PUSH1 0x0 PUSH2 0x1680 SWAP2 SWAP1 PUSH2 0x2E57 JUMP JUMPDEST PUSH1 0x1 DUP3 ADD PUSH1 0x0 PUSH2 0x1690 SWAP2 SWAP1 PUSH2 0x2E57 JUMP JUMPDEST PUSH1 0x2 DUP3 ADD PUSH1 0x0 PUSH2 0x100 EXP DUP2 SLOAD SWAP1 PUSH1 0xFF MUL NOT AND SWAP1 SSTORE PUSH1 0x3 DUP3 ADD PUSH1 0x0 SWAP1 SSTORE PUSH1 0x4 DUP3 ADD PUSH1 0x0 SWAP1 SSTORE PUSH1 0x5 DUP3 ADD PUSH1 0x0 SWAP1 SSTORE PUSH1 0x6 DUP3 ADD PUSH1 0x0 PUSH2 0x100 EXP DUP2 SLOAD SWAP1 PUSH1 0xFF MUL NOT AND SWAP1 SSTORE PUSH1 0x7 DUP3 ADD PUSH1 0x0 SWAP1 SSTORE PUSH1 0x8 DUP3 ADD PUSH1 0x0 PUSH2 0x100 EXP DUP2 SLOAD SWAP1 PUSH20 0xFFFFFFFFFFFFFFFFFFFFFFFFFFFFFFFFFFFFFFFF MUL NOT AND SWAP1 SSTORE POP POP PUSH1 0x40 MLOAD DUP1 PUSH1 0x80 ADD PUSH1 0x40 MSTORE DUP1 DUP3 DUP2 MSTORE PUSH1 0x20 ADD DUP4 PUSH1 0x0 ADD MLOAD DUP2 MSTORE PUSH1 0x20 ADD PUSH1 0x4 PUSH1 0x5 DUP2 GT ISZERO PUSH2 0x1730 JUMPI PUSH2 0x172F PUSH2 0x2FD2 JUMP JUMPDEST JUMPDEST DUP2 MSTORE PUSH1 0x20 ADD DUP4 PUSH1 0xC0 ADD MLOAD PUSH1 0x3 DUP2 GT ISZERO PUSH2 0x174C JUMPI PUSH2 0x174B PUSH2 0x2FD2 JUMP JUMPDEST JUMPDEST DUP2 MSTORE POP SWAP3 POP POP POP SWAP2 SWAP1 POP JUMP JUMPDEST PUSH2 0x1760 PUSH2 0x2E08 JUMP JUMPDEST PUSH1 0x0 DUP1 SLOAD SWAP1 PUSH2 0x100 EXP SWAP1 DIV PUSH20 0xFFFFFFFFFFFFFFFFFFFFFFFFFFFFFFFFFFFFFFFF AND PUSH20 0xFFFFFFFFFFFFFFFFFFFFFFFFFFFFFFFFFFFFFFFF AND ORIGIN PUSH20 0xFFFFFFFFFFFFFFFFFFFFFFFFFFFFFFFFFFFFFFFF AND EQ PUSH2 0x17EE JUMPI PUSH1 0x40 MLOAD PUSH32 0x8C379A000000000000000000000000000000000000000000000000000000000 DUP2 MSTORE PUSH1 0x4 ADD PUSH2 0x17E5 SWAP1 PUSH2 0x3B88 JUMP JUMPDEST PUSH1 0x40 MLOAD DUP1 SWAP2 SUB SWAP1 REVERT JUMPDEST PUSH1 0x0 PUSH2 0x17F9 DUP4 PUSH2 0x107A JUMP JUMPDEST SWAP1 POP PUSH1 0x0 DUP2 PUSH1 0x60 ADD MLOAD GT PUSH2 0x1842 JUMPI PUSH1 0x40 MLOAD PUSH32 0x8C379A000000000000000000000000000000000000000000000000000000000 DUP2 MSTORE PUSH1 0x4 ADD PUSH2 0x1839 SWAP1 PUSH2 0x43A5 JUMP JUMPDEST PUSH1 0x40 MLOAD DUP1 SWAP2 SUB SWAP1 REVERT JUMPDEST PUSH1 0x1 PUSH1 0x5 DUP2 GT ISZERO PUSH2 0x1856 JUMPI PUSH2 0x1855 PUSH2 0x2FD2 JUMP JUMPDEST JUMPDEST DUP2 PUSH1 0x40 ADD MLOAD PUSH1 0x5 DUP2 GT ISZERO PUSH2 0x186D JUMPI PUSH2 0x186C PUSH2 0x2FD2 JUMP JUMPDEST JUMPDEST EQ PUSH2 0x18AD JUMPI PUSH1 0x40 MLOAD PUSH32 0x8C379A000000000000000000000000000000000000000000000000000000000 DUP2 MSTORE PUSH1 0x4 ADD PUSH2 0x18A4 SWAP1 PUSH2 0x4411 JUMP JUMPDEST PUSH1 0x40 MLOAD DUP1 SWAP2 SUB SWAP1 REVERT JUMPDEST PUSH1 0x0 PUSH1 0x5 SWAP1 POP PUSH1 0x1 PUSH1 0x3 DUP2 GT ISZERO PUSH2 0x18C7 JUMPI PUSH2 0x18C6 PUSH2 0x2FD2 JUMP JUMPDEST JUMPDEST DUP3 PUSH1 0xC0 ADD MLOAD PUSH1 0x3 DUP2 GT ISZERO PUSH2 0x18DE JUMPI PUSH2 0x18DD PUSH2 0x2FD2 JUMP JUMPDEST JUMPDEST SUB PUSH2 0x18EC JUMPI PUSH1 0xA SWAP1 POP PUSH2 0x195B JUMP JUMPDEST PUSH1 0x3 DUP1 DUP2 GT ISZERO PUSH2 0x18FF JUMPI PUSH2 0x18FE PUSH2 0x2FD2 JUMP JUMPDEST JUMPDEST DUP3 PUSH1 0xC0 ADD MLOAD PUSH1 0x3 DUP2 GT ISZERO PUSH2 0x1916 JUMPI PUSH2 0x1915 PUSH2 0x2FD2 JUMP JUMPDEST JUMPDEST SUB PUSH2 0x1924 JUMPI PUSH1 0xF SWAP1 POP PUSH2 0x195A JUMP JUMPDEST PUSH1 0x2 PUSH1 0x3 DUP2 GT ISZERO PUSH2 0x1938 JUMPI PUSH2 0x1937 PUSH2 0x2FD2 JUMP JUMPDEST JUMPDEST DUP3 PUSH1 0xC0 ADD MLOAD PUSH1 0x3 DUP2 GT ISZERO PUSH2 0x194F JUMPI PUSH2 0x194E PUSH2 0x2FD2 JUMP JUMPDEST JUMPDEST SUB PUSH2 0x1959 JUMPI PUSH1 0x14 SWAP1 POP JUMPDEST JUMPDEST JUMPDEST DUP1 PUSH1 0xFF AND PUSH2 0x1968 DUP6 PUSH2 0xBDB JUMP JUMPDEST LT ISZERO PUSH2 0x19A9 JUMPI PUSH1 0x40 MLOAD PUSH32 0x8C379A000000000000000000000000000000000000000000000000000000000 DUP2 MSTORE PUSH1 0x4 ADD PUSH2 0x19A0 SWAP1 PUSH2 0x44A3 JUMP JUMPDEST PUSH1 0x40 MLOAD DUP1 SWAP2 SUB SWAP1 REVERT JUMPDEST PUSH1 0x0 DUP1 PUSH1 0x0 DUP1 DUP8 DUP1 MLOAD SWAP1 PUSH1 0x20 ADD KECCAK256 SWAP1 POP PUSH1 0x0 PUSH1 0x7 PUSH1 0x0 DUP4 DUP2 MSTORE PUSH1 0x20 ADD SWAP1 DUP2 MSTORE PUSH1 0x20 ADD PUSH1 0x0 KECCAK256 DUP1 SLOAD DUP1 PUSH1 0x20 MUL PUSH1 0x20 ADD PUSH1 0x40 MLOAD SWAP1 DUP2 ADD PUSH1 0x40 MSTORE DUP1 SWAP3 SWAP2 SWAP1 DUP2 DUP2 MSTORE PUSH1 0x20 ADD PUSH1 0x0 SWAP1 JUMPDEST DUP3 DUP3 LT ISZERO PUSH2 0x1ADB JUMPI DUP4 DUP3 SWAP1 PUSH1 0x0 MSTORE PUSH1 0x20 PUSH1 0x0 KECCAK256 SWAP1 PUSH1 0x2 MUL ADD PUSH1 0x40 MLOAD DUP1 PUSH1 0x80 ADD PUSH1 0x40 MSTORE SWAP1 DUP2 PUSH1 0x0 DUP3 ADD PUSH1 0x0 SWAP1 SLOAD SWAP1 PUSH2 0x100 EXP SWAP1 DIV PUSH20 0xFFFFFFFFFFFFFFFFFFFFFFFFFFFFFFFFFFFFFFFF AND PUSH20 0xFFFFFFFFFFFFFFFFFFFFFFFFFFFFFFFFFFFFFFFF AND PUSH20 0xFFFFFFFFFFFFFFFFFFFFFFFFFFFFFFFFFFFFFFFF AND DUP2 MSTORE PUSH1 0x20 ADD PUSH1 0x0 DUP3 ADD PUSH1 0x14 SWAP1 SLOAD SWAP1 PUSH2 0x100 EXP SWAP1 DIV PUSH2 0xFFFF AND PUSH2 0xFFFF AND PUSH2 0xFFFF AND DUP2 MSTORE PUSH1 0x20 ADD PUSH1 0x0 DUP3 ADD PUSH1 0x16 SWAP1 SLOAD SWAP1 PUSH2 0x100 EXP SWAP1 DIV PUSH1 0xFF AND PUSH1 0x3 DUP2 GT ISZERO PUSH2 0x1AAC JUMPI PUSH2 0x1AAB PUSH2 0x2FD2 JUMP JUMPDEST JUMPDEST PUSH1 0x3 DUP2 GT ISZERO PUSH2 0x1ABE JUMPI PUSH2 0x1ABD PUSH2 0x2FD2 JUMP JUMPDEST JUMPDEST DUP2 MSTORE PUSH1 0x20 ADD PUSH1 0x1 DUP3 ADD SLOAD DUP2 MSTORE POP POP DUP2 MSTORE PUSH1 0x20 ADD SWAP1 PUSH1 0x1 ADD SWAP1 PUSH2 0x19EE JUMP JUMPDEST POP POP POP POP SWAP1 POP PUSH1 0x0 JUMPDEST DUP2 MLOAD DUP2 PUSH1 0xFF AND LT ISZERO PUSH2 0x1BD3 JUMPI PUSH1 0x1 PUSH1 0x3 DUP2 GT ISZERO PUSH2 0x1B04 JUMPI PUSH2 0x1B03 PUSH2 0x2FD2 JUMP JUMPDEST JUMPDEST DUP3 DUP3 PUSH1 0xFF AND DUP2 MLOAD DUP2 LT PUSH2 0x1B1A JUMPI PUSH2 0x1B19 PUSH2 0x44C3 JUMP JUMPDEST JUMPDEST PUSH1 0x20 MUL PUSH1 0x20 ADD ADD MLOAD PUSH1 0x40 ADD MLOAD PUSH1 0x3 DUP2 GT ISZERO PUSH2 0x1B38 JUMPI PUSH2 0x1B37 PUSH2 0x2FD2 JUMP JUMPDEST JUMPDEST SUB PUSH2 0x1B50 JUMPI DUP6 DUP1 PUSH2 0x1B48 SWAP1 PUSH2 0x44FF JUMP JUMPDEST SWAP7 POP POP PUSH2 0x1BC0 JUMP JUMPDEST PUSH1 0x2 PUSH1 0x3 DUP2 GT ISZERO PUSH2 0x1B64 JUMPI PUSH2 0x1B63 PUSH2 0x2FD2 JUMP JUMPDEST JUMPDEST DUP3 DUP3 PUSH1 0xFF AND DUP2 MLOAD DUP2 LT PUSH2 0x1B7A JUMPI PUSH2 0x1B79 PUSH2 0x44C3 JUMP JUMPDEST JUMPDEST PUSH1 0x20 MUL PUSH1 0x20 ADD ADD MLOAD PUSH1 0x40 ADD MLOAD PUSH1 0x3 DUP2 GT ISZERO PUSH2 0x1B98 JUMPI PUSH2 0x1B97 PUSH2 0x2FD2 JUMP JUMPDEST JUMPDEST SUB PUSH2 0x1BB0 JUMPI DUP5 DUP1 PUSH2 0x1BA8 SWAP1 PUSH2 0x44FF JUMP JUMPDEST SWAP6 POP POP PUSH2 0x1BBF JUMP JUMPDEST DUP4 DUP1 PUSH2 0x1BBB SWAP1 PUSH2 0x44FF JUMP JUMPDEST SWAP5 POP POP JUMPDEST JUMPDEST DUP1 DUP1 PUSH2 0x1BCB SWAP1 PUSH2 0x44FF JUMP JUMPDEST SWAP2 POP POP PUSH2 0x1AE4 JUMP JUMPDEST POP PUSH1 0x0 DUP5 PUSH1 0xFF AND DUP7 PUSH1 0xFF AND GT PUSH2 0x1BEA JUMPI PUSH1 0x3 PUSH2 0x1BED JUMP JUMPDEST PUSH1 0x2 JUMPDEST SWAP1 POP DUP1 PUSH1 0x6 PUSH1 0x0 DUP6 DUP2 MSTORE PUSH1 0x20 ADD SWAP1 DUP2 MSTORE PUSH1 0x20 ADD PUSH1 0x0 KECCAK256 PUSH1 0x2 ADD PUSH1 0x0 PUSH2 0x100 EXP DUP2 SLOAD DUP2 PUSH1 0xFF MUL NOT AND SWAP1 DUP4 PUSH1 0x5 DUP2 GT ISZERO PUSH2 0x1C28 JUMPI PUSH2 0x1C27 PUSH2 0x2FD2 JUMP JUMPDEST JUMPDEST MUL OR SWAP1 SSTORE POP TIMESTAMP PUSH1 0x6 PUSH1 0x0 DUP6 DUP2 MSTORE PUSH1 0x20 ADD SWAP1 DUP2 MSTORE PUSH1 0x20 ADD PUSH1 0x0 KECCAK256 PUSH1 0x5 ADD DUP2 SWAP1 SSTORE POP PUSH1 0x2 PUSH1 0x5 DUP2 GT ISZERO PUSH2 0x1C5C JUMPI PUSH2 0x1C5B PUSH2 0x2FD2 JUMP JUMPDEST JUMPDEST DUP2 PUSH1 0x5 DUP2 GT ISZERO PUSH2 0x1C6F JUMPI PUSH2 0x1C6E PUSH2 0x2FD2 JUMP JUMPDEST JUMPDEST SUB PUSH2 0x1D2B JUMPI PUSH1 0x2 PUSH1 0x3 DUP2 GT ISZERO PUSH2 0x1C88 JUMPI PUSH2 0x1C87 PUSH2 0x2FD2 JUMP JUMPDEST JUMPDEST DUP9 PUSH1 0xC0 ADD MLOAD PUSH1 0x3 DUP2 GT ISZERO PUSH2 0x1C9F JUMPI PUSH2 0x1C9E PUSH2 0x2FD2 JUMP JUMPDEST JUMPDEST SUB PUSH2 0x1CB4 JUMPI DUP8 PUSH1 0xE0 ADD MLOAD PUSH1 0x1 DUP2 SWAP1 SSTORE POP PUSH2 0x1D2A JUMP JUMPDEST PUSH1 0x3 DUP1 DUP2 GT ISZERO PUSH2 0x1CC7 JUMPI PUSH2 0x1CC6 PUSH2 0x2FD2 JUMP JUMPDEST JUMPDEST DUP9 PUSH1 0xC0 ADD MLOAD PUSH1 0x3 DUP2 GT ISZERO PUSH2 0x1CDE JUMPI PUSH2 0x1CDD PUSH2 0x2FD2 JUMP JUMPDEST JUMPDEST SUB PUSH2 0x1D29 JUMPI DUP8 PUSH2 0x100 ADD MLOAD PUSH1 0x0 DUP1 PUSH2 0x100 EXP DUP2 SLOAD DUP2 PUSH20 0xFFFFFFFFFFFFFFFFFFFFFFFFFFFFFFFFFFFFFFFF MUL NOT AND SWAP1 DUP4 PUSH20 0xFFFFFFFFFFFFFFFFFFFFFFFFFFFFFFFFFFFFFFFF AND MUL OR SWAP1 SSTORE POP JUMPDEST JUMPDEST JUMPDEST PUSH1 0x40 MLOAD DUP1 PUSH1 0x80 ADD PUSH1 0x40 MSTORE DUP1 DUP5 DUP2 MSTORE PUSH1 0x20 ADD DUP10 PUSH1 0x0 ADD MLOAD DUP2 MSTORE PUSH1 0x20 ADD DUP3 PUSH1 0x5 DUP2 GT ISZERO PUSH2 0x1D59 JUMPI PUSH2 0x1D58 PUSH2 0x2FD2 JUMP JUMPDEST JUMPDEST DUP2 MSTORE PUSH1 0x20 ADD DUP10 PUSH1 0xC0 ADD MLOAD PUSH1 0x3 DUP2 GT ISZERO PUSH2 0x1D75 JUMPI PUSH2 0x1D74 PUSH2 0x2FD2 JUMP JUMPDEST JUMPDEST DUP2 MSTORE POP SWAP9 POP POP POP POP POP POP POP POP POP SWAP2 SWAP1 POP JUMP JUMPDEST PUSH1 0x0 DUP1 SLOAD SWAP1 PUSH2 0x100 EXP SWAP1 DIV PUSH20 0xFFFFFFFFFFFFFFFFFFFFFFFFFFFFFFFFFFFFFFFF AND PUSH20 0xFFFFFFFFFFFFFFFFFFFFFFFFFFFFFFFFFFFFFFFF AND ORIGIN PUSH20 0xFFFFFFFFFFFFFFFFFFFFFFFFFFFFFFFFFFFFFFFF AND EQ DUP1 PUSH2 0x1DE6 JUMPI POP PUSH2 0x1DE5 ORIGIN PUSH2 0x147F JUMP JUMPDEST JUMPDEST PUSH2 0x1E25 JUMPI PUSH1 0x40 MLOAD PUSH32 0x8C379A000000000000000000000000000000000000000000000000000000000 DUP2 MSTORE PUSH1 0x4 ADD PUSH2 0x1E1C SWAP1 PUSH2 0x3DAA JUMP JUMPDEST PUSH1 0x40 MLOAD DUP1 SWAP2 SUB SWAP1 REVERT JUMPDEST PUSH1 0x0 DUP1 SLOAD SWAP1 PUSH2 0x100 EXP SWAP1 DIV PUSH20 0xFFFFFFFFFFFFFFFFFFFFFFFFFFFFFFFFFFFFFFFF AND PUSH20 0xFFFFFFFFFFFFFFFFFFFFFFFFFFFFFFFFFFFFFFFF AND ORIGIN PUSH20 0xFFFFFFFFFFFFFFFFFFFFFFFFFFFFFFFFFFFFFFFF AND EQ DUP1 PUSH2 0x1EF4 JUMPI POP PUSH3 0x278D00 PUSH1 0x5 PUSH1 0x0 PUSH1 0x3 PUSH1 0x0 ORIGIN PUSH20 0xFFFFFFFFFFFFFFFFFFFFFFFFFFFFFFFFFFFFFFFF AND PUSH20 0xFFFFFFFFFFFFFFFFFFFFFFFFFFFFFFFFFFFFFFFF AND DUP2 MSTORE PUSH1 0x20 ADD SWAP1 DUP2 MSTORE PUSH1 0x20 ADD PUSH1 0x0 KECCAK256 PUSH1 0x0 SWAP1 SLOAD SWAP1 PUSH2 0x100 EXP SWAP1 DIV PUSH2 0xFFFF AND PUSH2 0xFFFF AND PUSH2 0xFFFF AND DUP2 MSTORE PUSH1 0x20 ADD SWAP1 DUP2 MSTORE PUSH1 0x20 ADD PUSH1 0x0 KECCAK256 SLOAD PUSH2 0x1EF1 SWAP2 SWAP1 PUSH2 0x3DF9 JUMP JUMPDEST TIMESTAMP LT JUMPDEST PUSH2 0x1F33 JUMPI PUSH1 0x40 MLOAD PUSH32 0x8C379A000000000000000000000000000000000000000000000000000000000 DUP2 MSTORE PUSH1 0x4 ADD PUSH2 0x1F2A SWAP1 PUSH2 0x3E79 JUMP JUMPDEST PUSH1 0x40 MLOAD DUP1 SWAP2 SUB SWAP1 REVERT JUMPDEST PUSH1 0x0 PUSH1 0x3 DUP2 GT ISZERO PUSH2 0x1F47 JUMPI PUSH2 0x1F46 PUSH2 0x2FD2 JUMP JUMPDEST JUMPDEST DUP2 PUSH1 0x3 DUP2 GT ISZERO PUSH2 0x1F5A JUMPI PUSH2 0x1F59 PUSH2 0x2FD2 JUMP JUMPDEST JUMPDEST SUB PUSH2 0x1F9A JUMPI PUSH1 0x40 MLOAD PUSH32 0x8C379A000000000000000000000000000000000000000000000000000000000 DUP2 MSTORE PUSH1 0x4 ADD PUSH2 0x1F91 SWAP1 PUSH2 0x4574 JUMP JUMPDEST PUSH1 0x40 MLOAD DUP1 SWAP2 SUB SWAP1 REVERT JUMPDEST PUSH1 0x0 PUSH2 0x1FA5 DUP4 PUSH2 0x107A JUMP JUMPDEST SWAP1 POP PUSH1 0x0 DUP2 PUSH1 0x60 ADD MLOAD GT PUSH2 0x1FEE JUMPI PUSH1 0x40 MLOAD PUSH32 0x8C379A000000000000000000000000000000000000000000000000000000000 DUP2 MSTORE PUSH1 0x4 ADD PUSH2 0x1FE5 SWAP1 PUSH2 0x43A5 JUMP JUMPDEST PUSH1 0x40 MLOAD DUP1 SWAP2 SUB SWAP1 REVERT JUMPDEST PUSH1 0x1 PUSH1 0x5 DUP2 GT ISZERO PUSH2 0x2002 JUMPI PUSH2 0x2001 PUSH2 0x2FD2 JUMP JUMPDEST JUMPDEST DUP2 PUSH1 0x40 ADD MLOAD PUSH1 0x5 DUP2 GT ISZERO PUSH2 0x2019 JUMPI PUSH2 0x2018 PUSH2 0x2FD2 JUMP JUMPDEST JUMPDEST EQ PUSH2 0x2059 JUMPI PUSH1 0x40 MLOAD PUSH32 0x8C379A000000000000000000000000000000000000000000000000000000000 DUP2 MSTORE PUSH1 0x4 ADD PUSH2 0x2050 SWAP1 PUSH2 0x45E0 JUMP JUMPDEST PUSH1 0x40 MLOAD DUP1 SWAP2 SUB SWAP1 REVERT JUMPDEST PUSH1 0x0 PUSH1 0x3 PUSH1 0x0 ORIGIN PUSH20 0xFFFFFFFFFFFFFFFFFFFFFFFFFFFFFFFFFFFFFFFF AND PUSH20 0xFFFFFFFFFFFFFFFFFFFFFFFFFFFFFFFFFFFFFFFF AND DUP2 MSTORE PUSH1 0x20 ADD SWAP1 DUP2 MSTORE PUSH1 0x20 ADD PUSH1 0x0 KECCAK256 PUSH1 0x0 SWAP1 SLOAD SWAP1 PUSH2 0x100 EXP SWAP1 DIV PUSH2 0xFFFF AND SWAP1 POP PUSH1 0x0 DUP5 DUP1 MLOAD SWAP1 PUSH1 0x20 ADD KECCAK256 SWAP1 POP PUSH1 0x0 PUSH1 0x7 PUSH1 0x0 DUP4 DUP2 MSTORE PUSH1 0x20 ADD SWAP1 DUP2 MSTORE PUSH1 0x20 ADD PUSH1 0x0 KECCAK256 SWAP1 POP PUSH1 0x0 JUMPDEST DUP2 DUP1 SLOAD SWAP1 POP DUP2 PUSH1 0xFF AND LT ISZERO PUSH2 0x21A8 JUMPI CALLER PUSH20 0xFFFFFFFFFFFFFFFFFFFFFFFFFFFFFFFFFFFFFFFF AND DUP3 DUP3 PUSH1 0xFF AND DUP2 SLOAD DUP2 LT PUSH2 0x210D JUMPI PUSH2 0x210C PUSH2 0x44C3 JUMP JUMPDEST JUMPDEST SWAP1 PUSH1 0x0 MSTORE PUSH1 0x20 PUSH1 0x0 KECCAK256 SWAP1 PUSH1 0x2 MUL ADD PUSH1 0x0 ADD PUSH1 0x0 SWAP1 SLOAD SWAP1 PUSH2 0x100 EXP SWAP1 DIV PUSH20 0xFFFFFFFFFFFFFFFFFFFFFFFFFFFFFFFFFFFFFFFF AND PUSH20 0xFFFFFFFFFFFFFFFFFFFFFFFFFFFFFFFFFFFFFFFF AND SUB PUSH2 0x2195 JUMPI PUSH1 0x40 MLOAD PUSH32 0x8C379A000000000000000000000000000000000000000000000000000000000 DUP2 MSTORE PUSH1 0x4 ADD PUSH2 0x218C SWAP1 PUSH2 0x4672 JUMP JUMPDEST PUSH1 0x40 MLOAD DUP1 SWAP2 SUB SWAP1 REVERT JUMPDEST DUP1 DUP1 PUSH2 0x21A0 SWAP1 PUSH2 0x44FF JUMP JUMPDEST SWAP2 POP POP PUSH2 0x20D1 JUMP JUMPDEST POP PUSH1 0x0 PUSH1 0x40 MLOAD DUP1 PUSH1 0x80 ADD PUSH1 0x40 MSTORE DUP1 ORIGIN PUSH20 0xFFFFFFFFFFFFFFFFFFFFFFFFFFFFFFFFFFFFFFFF AND DUP2 MSTORE PUSH1 0x20 ADD DUP6 PUSH2 0xFFFF AND DUP2 MSTORE PUSH1 0x20 ADD DUP8 PUSH1 0x3 DUP2 GT ISZERO PUSH2 0x21EF JUMPI PUSH2 0x21EE PUSH2 0x2FD2 JUMP JUMPDEST JUMPDEST DUP2 MSTORE PUSH1 0x20 ADD TIMESTAMP DUP2 MSTORE POP SWAP1 POP PUSH1 0x7 PUSH1 0x0 DUP5 DUP2 MSTORE PUSH1 0x20 ADD SWAP1 DUP2 MSTORE PUSH1 0x20 ADD PUSH1 0x0 KECCAK256 DUP2 SWAP1 DUP1 PUSH1 0x1 DUP2 SLOAD ADD DUP1 DUP3 SSTORE DUP1 SWAP2 POP POP PUSH1 0x1 SWAP1 SUB SWAP1 PUSH1 0x0 MSTORE PUSH1 0x20 PUSH1 0x0 KECCAK256 SWAP1 PUSH1 0x2 MUL ADD PUSH1 0x0 SWAP1 SWAP2 SWAP1 SWAP2 SWAP1 SWAP2 POP PUSH1 0x0 DUP3 ADD MLOAD DUP2 PUSH1 0x0 ADD PUSH1 0x0 PUSH2 0x100 EXP DUP2 SLOAD DUP2 PUSH20 0xFFFFFFFFFFFFFFFFFFFFFFFFFFFFFFFFFFFFFFFF MUL NOT AND SWAP1 DUP4 PUSH20 0xFFFFFFFFFFFFFFFFFFFFFFFFFFFFFFFFFFFFFFFF AND MUL OR SWAP1 SSTORE POP PUSH1 0x20 DUP3 ADD MLOAD DUP2 PUSH1 0x0 ADD PUSH1 0x14 PUSH2 0x100 EXP DUP2 SLOAD DUP2 PUSH2 0xFFFF MUL NOT AND SWAP1 DUP4 PUSH2 0xFFFF AND MUL OR SWAP1 SSTORE POP PUSH1 0x40 DUP3 ADD MLOAD DUP2 PUSH1 0x0 ADD PUSH1 0x16 PUSH2 0x100 EXP DUP2 SLOAD DUP2 PUSH1 0xFF MUL NOT AND SWAP1 DUP4 PUSH1 0x3 DUP2 GT ISZERO PUSH2 0x22CC JUMPI PUSH2 0x22CB PUSH2 0x2FD2 JUMP JUMPDEST JUMPDEST MUL OR SWAP1 SSTORE POP PUSH1 0x60 DUP3 ADD MLOAD DUP2 PUSH1 0x1 ADD SSTORE POP POP POP POP POP POP POP POP POP JUMP JUMPDEST PUSH1 0x0 PUSH1 0x2 PUSH1 0x0 DUP4 PUSH2 0xFFFF AND PUSH2 0xFFFF AND DUP2 MSTORE PUSH1 0x20 ADD SWAP1 DUP2 MSTORE PUSH1 0x20 ADD PUSH1 0x0 KECCAK256 PUSH1 0x0 SWAP1 SLOAD SWAP1 PUSH2 0x100 EXP SWAP1 DIV PUSH1 0xFF AND SWAP1 POP SWAP2 SWAP1 POP JUMP JUMPDEST PUSH2 0x2320 PUSH2 0x2E08 JUMP JUMPDEST PUSH1 0x0 DUP1 SLOAD SWAP1 PUSH2 0x100 EXP SWAP1 DIV PUSH20 0xFFFFFFFFFFFFFFFFFFFFFFFFFFFFFFFFFFFFFFFF AND PUSH20 0xFFFFFFFFFFFFFFFFFFFFFFFFFFFFFFFFFFFFFFFF AND ORIGIN PUSH20 0xFFFFFFFFFFFFFFFFFFFFFFFFFFFFFFFFFFFFFFFF AND EQ PUSH2 0x23AE JUMPI PUSH1 0x40 MLOAD PUSH32 0x8C379A000000000000000000000000000000000000000000000000000000000 DUP2 MSTORE PUSH1 0x4 ADD PUSH2 0x23A5 SWAP1 PUSH2 0x3B88 JUMP JUMPDEST PUSH1 0x40 MLOAD DUP1 SWAP2 SUB SWAP1 REVERT JUMPDEST PUSH1 0x0 PUSH2 0x23B9 DUP4 PUSH2 0x107A JUMP JUMPDEST SWAP1 POP PUSH1 0x0 DUP2 PUSH1 0x60 ADD MLOAD GT PUSH2 0x2402 JUMPI PUSH1 0x40 MLOAD PUSH32 0x8C379A000000000000000000000000000000000000000000000000000000000 DUP2 MSTORE PUSH1 0x4 ADD PUSH2 0x23F9 SWAP1 PUSH2 0x43A5 JUMP JUMPDEST PUSH1 0x40 MLOAD DUP1 SWAP2 SUB SWAP1 REVERT JUMPDEST PUSH1 0x0 PUSH1 0x5 DUP2 GT ISZERO PUSH2 0x2416 JUMPI PUSH2 0x2415 PUSH2 0x2FD2 JUMP JUMPDEST JUMPDEST DUP2 PUSH1 0x40 ADD MLOAD PUSH1 0x5 DUP2 GT ISZERO PUSH2 0x242D JUMPI PUSH2 0x242C PUSH2 0x2FD2 JUMP JUMPDEST JUMPDEST EQ PUSH2 0x246D JUMPI PUSH1 0x40 MLOAD PUSH32 0x8C379A000000000000000000000000000000000000000000000000000000000 DUP2 MSTORE PUSH1 0x4 ADD PUSH2 0x2464 SWAP1 PUSH2 0x4704 JUMP JUMPDEST PUSH1 0x40 MLOAD DUP1 SWAP2 SUB SWAP1 REVERT JUMPDEST PUSH1 0x0 DUP4 DUP1 MLOAD SWAP1 PUSH1 0x20 ADD KECCAK256 SWAP1 POP PUSH1 0x1 PUSH1 0x6 PUSH1 0x0 DUP4 DUP2 MSTORE PUSH1 0x20 ADD SWAP1 DUP2 MSTORE PUSH1 0x20 ADD PUSH1 0x0 KECCAK256 PUSH1 0x2 ADD PUSH1 0x0 PUSH2 0x100 EXP DUP2 SLOAD DUP2 PUSH1 0xFF MUL NOT AND SWAP1 DUP4 PUSH1 0x5 DUP2 GT ISZERO PUSH2 0x24B3 JUMPI PUSH2 0x24B2 PUSH2 0x2FD2 JUMP JUMPDEST JUMPDEST MUL OR SWAP1 SSTORE POP TIMESTAMP PUSH1 0x6 PUSH1 0x0 DUP4 DUP2 MSTORE PUSH1 0x20 ADD SWAP1 DUP2 MSTORE PUSH1 0x20 ADD PUSH1 0x0 KECCAK256 PUSH1 0x4 ADD DUP2 SWAP1 SSTORE POP PUSH1 0x40 MLOAD DUP1 PUSH1 0x80 ADD PUSH1 0x40 MSTORE DUP1 DUP3 DUP2 MSTORE PUSH1 0x20 ADD DUP4 PUSH1 0x0 ADD MLOAD DUP2 MSTORE PUSH1 0x20 ADD PUSH1 0x1 PUSH1 0x5 DUP2 GT ISZERO PUSH2 0x2502 JUMPI PUSH2 0x2501 PUSH2 0x2FD2 JUMP JUMPDEST JUMPDEST DUP2 MSTORE PUSH1 0x20 ADD DUP4 PUSH1 0xC0 ADD MLOAD PUSH1 0x3 DUP2 GT ISZERO PUSH2 0x251E JUMPI PUSH2 0x251D PUSH2 0x2FD2 JUMP JUMPDEST JUMPDEST DUP2 MSTORE POP SWAP3 POP POP POP SWAP2 SWAP1 POP JUMP JUMPDEST PUSH1 0x0 DUP1 SLOAD SWAP1 PUSH2 0x100 EXP SWAP1 DIV PUSH20 0xFFFFFFFFFFFFFFFFFFFFFFFFFFFFFFFFFFFFFFFF AND PUSH20 0xFFFFFFFFFFFFFFFFFFFFFFFFFFFFFFFFFFFFFFFF AND ORIGIN PUSH20 0xFFFFFFFFFFFFFFFFFFFFFFFFFFFFFFFFFFFFFFFF AND EQ DUP1 PUSH2 0x25CD JUMPI POP PUSH1 0x4 PUSH1 0x0 ORIGIN PUSH20 0xFFFFFFFFFFFFFFFFFFFFFFFFFFFFFFFFFFFFFFFF AND PUSH20 0xFFFFFFFFFFFFFFFFFFFFFFFFFFFFFFFFFFFFFFFF AND DUP2 MSTORE PUSH1 0x20 ADD SWAP1 DUP2 MSTORE PUSH1 0x20 ADD PUSH1 0x0 KECCAK256 PUSH1 0x0 SWAP1 SLOAD SWAP1 PUSH2 0x100 EXP SWAP1 DIV PUSH1 0xFF AND JUMPDEST PUSH2 0x260C JUMPI PUSH1 0x40 MLOAD PUSH32 0x8C379A000000000000000000000000000000000000000000000000000000000 DUP2 MSTORE PUSH1 0x4 ADD PUSH2 0x2603 SWAP1 PUSH2 0x4796 JUMP JUMPDEST PUSH1 0x40 MLOAD DUP1 SWAP2 SUB SWAP1 REVERT JUMPDEST DUP2 PUSH1 0x0 PUSH20 0xFFFFFFFFFFFFFFFFFFFFFFFFFFFFFFFFFFFFFFFF AND DUP2 PUSH20 0xFFFFFFFFFFFFFFFFFFFFFFFFFFFFFFFFFFFFFFFF AND SUB PUSH2 0x267C JUMPI PUSH1 0x40 MLOAD PUSH32 0x8C379A000000000000000000000000000000000000000000000000000000000 DUP2 MSTORE PUSH1 0x4 ADD PUSH2 0x2673 SWAP1 PUSH2 0x4802 JUMP JUMPDEST PUSH1 0x40 MLOAD DUP1 SWAP2 SUB SWAP1 REVERT JUMPDEST PUSH2 0x2685 DUP3 PUSH2 0x22E6 JUMP JUMPDEST PUSH2 0x26C4 JUMPI PUSH1 0x40 MLOAD PUSH32 0x8C379A000000000000000000000000000000000000000000000000000000000 DUP2 MSTORE PUSH1 0x4 ADD PUSH2 0x26BB SWAP1 PUSH2 0x486E JUMP JUMPDEST PUSH1 0x40 MLOAD DUP1 SWAP2 SUB SWAP1 REVERT JUMPDEST DUP2 PUSH1 0x3 PUSH1 0x0 DUP6 PUSH20 0xFFFFFFFFFFFFFFFFFFFFFFFFFFFFFFFFFFFFFFFF AND PUSH20 0xFFFFFFFFFFFFFFFFFFFFFFFFFFFFFFFFFFFFFFFF AND DUP2 MSTORE PUSH1 0x20 ADD SWAP1 DUP2 MSTORE PUSH1 0x20 ADD PUSH1 0x0 KECCAK256 PUSH1 0x0 PUSH2 0x100 EXP DUP2 SLOAD DUP2 PUSH2 0xFFFF MUL NOT AND SWAP1 DUP4 PUSH2 0xFFFF AND MUL OR SWAP1 SSTORE POP POP POP POP JUMP JUMPDEST PUSH1 0x0 DUP1 SLOAD SWAP1 PUSH2 0x100 EXP SWAP1 DIV PUSH20 0xFFFFFFFFFFFFFFFFFFFFFFFFFFFFFFFFFFFFFFFF AND PUSH20 0xFFFFFFFFFFFFFFFFFFFFFFFFFFFFFFFFFFFFFFFF AND ORIGIN PUSH20 0xFFFFFFFFFFFFFFFFFFFFFFFFFFFFFFFFFFFFFFFF AND EQ PUSH2 0x27B1 JUMPI PUSH1 0x40 MLOAD PUSH32 0x8C379A000000000000000000000000000000000000000000000000000000000 DUP2 MSTORE PUSH1 0x4 ADD PUSH2 0x27A8 SWAP1 PUSH2 0x3B88 JUMP JUMPDEST PUSH1 0x40 MLOAD DUP1 SWAP2 SUB SWAP1 REVERT JUMPDEST DUP2 PUSH1 0x0 PUSH20 0xFFFFFFFFFFFFFFFFFFFFFFFFFFFFFFFFFFFFFFFF AND DUP2 PUSH20 0xFFFFFFFFFFFFFFFFFFFFFFFFFFFFFFFFFFFFFFFF AND SUB PUSH2 0x2821 JUMPI PUSH1 0x40 MLOAD PUSH32 0x8C379A000000000000000000000000000000000000000000000000000000000 DUP2 MSTORE PUSH1 0x4 ADD PUSH2 0x2818 SWAP1 PUSH2 0x4802 JUMP JUMPDEST PUSH1 0x40 MLOAD DUP1 SWAP2 SUB SWAP1 REVERT JUMPDEST DUP2 ISZERO PUSH2 0x28CC JUMPI PUSH2 0x2830 DUP4 PUSH2 0x147F JUMP JUMPDEST PUSH2 0x286F JUMPI PUSH1 0x40 MLOAD PUSH32 0x8C379A000000000000000000000000000000000000000000000000000000000 DUP2 MSTORE PUSH1 0x4 ADD PUSH2 0x2866 SWAP1 PUSH2 0x48DA JUMP JUMPDEST PUSH1 0x40 MLOAD DUP1 SWAP2 SUB SWAP1 REVERT JUMPDEST PUSH1 0x1 PUSH1 0x4 PUSH1 0x0 DUP6 PUSH20 0xFFFFFFFFFFFFFFFFFFFFFFFFFFFFFFFFFFFFFFFF AND PUSH20 0xFFFFFFFFFFFFFFFFFFFFFFFFFFFFFFFFFFFFFFFF AND DUP2 MSTORE PUSH1 0x20 ADD SWAP1 DUP2 MSTORE PUSH1 0x20 ADD PUSH1 0x0 KECCAK256 PUSH1 0x0 PUSH2 0x100 EXP DUP2 SLOAD DUP2 PUSH1 0xFF MUL NOT AND SWAP1 DUP4 ISZERO ISZERO MUL OR SWAP1 SSTORE POP PUSH2 0x2925 JUMP JUMPDEST PUSH1 0x0 PUSH1 0x4 PUSH1 0x0 DUP6 PUSH20 0xFFFFFFFFFFFFFFFFFFFFFFFFFFFFFFFFFFFFFFFF AND PUSH20 0xFFFFFFFFFFFFFFFFFFFFFFFFFFFFFFFFFFFFFFFF AND DUP2 MSTORE PUSH1 0x20 ADD SWAP1 DUP2 MSTORE PUSH1 0x20 ADD PUSH1 0x0 KECCAK256 PUSH1 0x0 PUSH2 0x100 EXP DUP2 SLOAD DUP2 PUSH1 0xFF MUL NOT AND SWAP1 DUP4 ISZERO ISZERO MUL OR SWAP1 SSTORE POP JUMPDEST POP POP POP JUMP JUMPDEST PUSH1 0x2 PUSH1 0x20 MSTORE DUP1 PUSH1 0x0 MSTORE PUSH1 0x40 PUSH1 0x0 KECCAK256 PUSH1 0x0 SWAP2 POP SLOAD SWAP1 PUSH2 0x100 EXP SWAP1 DIV PUSH1 0xFF AND DUP2 JUMP JUMPDEST PUSH2 0x2953 DUP2 PUSH2 0x22E6 JUMP JUMPDEST PUSH2 0x2992 JUMPI PUSH1 0x40 MLOAD PUSH32 0x8C379A000000000000000000000000000000000000000000000000000000000 DUP2 MSTORE PUSH1 0x4 ADD PUSH2 0x2989 SWAP1 PUSH2 0x4946 JUMP JUMPDEST PUSH1 0x40 MLOAD DUP1 SWAP2 SUB SWAP1 REVERT JUMPDEST PUSH1 0x1 SLOAD CALLVALUE LT ISZERO PUSH2 0x29D7 JUMPI PUSH1 0x40 MLOAD PUSH32 0x8C379A000000000000000000000000000000000000000000000000000000000 DUP2 MSTORE PUSH1 0x4 ADD PUSH2 0x29CE SWAP1 PUSH2 0x49B2 JUMP JUMPDEST PUSH1 0x40 MLOAD DUP1 SWAP2 SUB SWAP1 REVERT JUMPDEST PUSH3 0x278D00 PUSH1 0x5 PUSH1 0x0 DUP4 PUSH2 0xFFFF AND PUSH2 0xFFFF AND DUP2 MSTORE PUSH1 0x20 ADD SWAP1 DUP2 MSTORE PUSH1 0x20 ADD PUSH1 0x0 KECCAK256 SLOAD PUSH2 0x2A01 SWAP2 SWAP1 PUSH2 0x3DF9 JUMP JUMPDEST TIMESTAMP GT PUSH2 0x2A42 JUMPI PUSH1 0x40 MLOAD PUSH32 0x8C379A000000000000000000000000000000000000000000000000000000000 DUP2 MSTORE PUSH1 0x4 ADD PUSH2 0x2A39 SWAP1 PUSH2 0x4A1E JUMP JUMPDEST PUSH1 0x40 MLOAD DUP1 SWAP2 SUB SWAP1 REVERT JUMPDEST TIMESTAMP PUSH1 0x5 PUSH1 0x0 DUP4 PUSH2 0xFFFF AND PUSH2 0xFFFF AND DUP2 MSTORE PUSH1 0x20 ADD SWAP1 DUP2 MSTORE PUSH1 0x20 ADD PUSH1 0x0 KECCAK256 DUP2 SWAP1 SSTORE POP POP JUMP JUMPDEST PUSH1 0x0 DUP1 PUSH1 0x0 SWAP1 SLOAD SWAP1 PUSH2 0x100 EXP SWAP1 DIV PUSH20 0xFFFFFFFFFFFFFFFFFFFFFFFFFFFFFFFFFFFFFFFF AND SWAP1 POP SWAP1 JUMP JUMPDEST PUSH1 0x3 PUSH1 0x20 MSTORE DUP1 PUSH1 0x0 MSTORE PUSH1 0x40 PUSH1 0x0 KECCAK256 PUSH1 0x0 SWAP2 POP SLOAD SWAP1 PUSH2 0x100 EXP SWAP1 DIV PUSH2 0xFFFF AND DUP2 JUMP JUMPDEST PUSH2 0x2AB7 PUSH2 0x2E08 JUMP JUMPDEST PUSH1 0x0 DUP1 SLOAD SWAP1 PUSH2 0x100 EXP SWAP1 DIV PUSH20 0xFFFFFFFFFFFFFFFFFFFFFFFFFFFFFFFFFFFFFFFF AND PUSH20 0xFFFFFFFFFFFFFFFFFFFFFFFFFFFFFFFFFFFFFFFF AND ORIGIN PUSH20 0xFFFFFFFFFFFFFFFFFFFFFFFFFFFFFFFFFFFFFFFF AND EQ PUSH2 0x2B45 JUMPI PUSH1 0x40 MLOAD PUSH32 0x8C379A000000000000000000000000000000000000000000000000000000000 DUP2 MSTORE PUSH1 0x4 ADD PUSH2 0x2B3C SWAP1 PUSH2 0x3B88 JUMP JUMPDEST PUSH1 0x40 MLOAD DUP1 SWAP2 SUB SWAP1 REVERT JUMPDEST PUSH1 0x0 PUSH2 0x2B50 DUP7 PUSH2 0x107A JUMP JUMPDEST SWAP1 POP PUSH1 0x0 DUP2 PUSH1 0x60 ADD MLOAD GT PUSH2 0x2B99 JUMPI PUSH1 0x40 MLOAD PUSH32 0x8C379A000000000000000000000000000000000000000000000000000000000 DUP2 MSTORE PUSH1 0x4 ADD PUSH2 0x2B90 SWAP1 PUSH2 0x4A8A JUMP JUMPDEST PUSH1 0x40 MLOAD DUP1 SWAP2 SUB SWAP1 REVERT JUMPDEST PUSH1 0x0 PUSH1 0x5 DUP2 GT ISZERO PUSH2 0x2BAD JUMPI PUSH2 0x2BAC PUSH2 0x2FD2 JUMP JUMPDEST JUMPDEST DUP2 PUSH1 0x40 ADD MLOAD PUSH1 0x5 DUP2 GT ISZERO PUSH2 0x2BC4 JUMPI PUSH2 0x2BC3 PUSH2 0x2FD2 JUMP JUMPDEST JUMPDEST EQ PUSH2 0x2C04 JUMPI PUSH1 0x40 MLOAD PUSH32 0x8C379A000000000000000000000000000000000000000000000000000000000 DUP2 MSTORE PUSH1 0x4 ADD PUSH2 0x2BFB SWAP1 PUSH2 0x4AF6 JUMP JUMPDEST PUSH1 0x40 MLOAD DUP1 SWAP2 SUB SWAP1 REVERT JUMPDEST PUSH1 0x0 DUP7 DUP1 MLOAD SWAP1 PUSH1 0x20 ADD KECCAK256 SWAP1 POP PUSH1 0x0 DUP7 MLOAD GT ISZERO PUSH2 0x2C3F JUMPI DUP6 PUSH1 0x6 PUSH1 0x0 DUP4 DUP2 MSTORE PUSH1 0x20 ADD SWAP1 DUP2 MSTORE PUSH1 0x20 ADD PUSH1 0x0 KECCAK256 PUSH1 0x1 ADD SWAP1 DUP2 PUSH2 0x2C3D SWAP2 SWAP1 PUSH2 0x411D JUMP JUMPDEST POP JUMPDEST PUSH1 0x0 DUP6 GT ISZERO PUSH2 0x2C64 JUMPI DUP5 PUSH1 0x6 PUSH1 0x0 DUP4 DUP2 MSTORE PUSH1 0x20 ADD SWAP1 DUP2 MSTORE PUSH1 0x20 ADD PUSH1 0x0 KECCAK256 PUSH1 0x7 ADD DUP2 SWAP1 SSTORE POP JUMPDEST PUSH1 0x0 PUSH20 0xFFFFFFFFFFFFFFFFFFFFFFFFFFFFFFFFFFFFFFFF AND DUP5 PUSH20 0xFFFFFFFFFFFFFFFFFFFFFFFFFFFFFFFFFFFFFFFF AND EQ PUSH2 0x2CEE JUMPI DUP4 PUSH1 0x6 PUSH1 0x0 DUP4 DUP2 MSTORE PUSH1 0x20 ADD SWAP1 DUP2 MSTORE PUSH1 0x20 ADD PUSH1 0x0 KECCAK256 PUSH1 0x8 ADD PUSH1 0x0 PUSH2 0x100 EXP DUP2 SLOAD DUP2 PUSH20 0xFFFFFFFFFFFFFFFFFFFFFFFFFFFFFFFFFFFFFFFF MUL NOT AND SWAP1 DUP4 PUSH20 0xFFFFFFFFFFFFFFFFFFFFFFFFFFFFFFFFFFFFFFFF AND MUL OR SWAP1 SSTORE POP JUMPDEST PUSH1 0x40 MLOAD DUP1 PUSH1 0x80 ADD PUSH1 0x40 MSTORE DUP1 DUP3 DUP2 MSTORE PUSH1 0x20 ADD DUP4 PUSH1 0x0 ADD MLOAD DUP2 MSTORE PUSH1 0x20 ADD DUP4 PUSH1 0x40 ADD MLOAD PUSH1 0x5 DUP2 GT ISZERO PUSH2 0x2D20 JUMPI PUSH2 0x2D1F PUSH2 0x2FD2 JUMP JUMPDEST JUMPDEST DUP2 MSTORE PUSH1 0x20 ADD DUP4 PUSH1 0xC0 ADD MLOAD PUSH1 0x3 DUP2 GT ISZERO PUSH2 0x2D3C JUMPI PUSH2 0x2D3B PUSH2 0x2FD2 JUMP JUMPDEST JUMPDEST DUP2 MSTORE POP SWAP3 POP POP POP SWAP5 SWAP4 POP POP POP POP JUMP JUMPDEST PUSH1 0x40 MLOAD DUP1 PUSH1 0x60 ADD PUSH1 0x40 MSTORE DUP1 PUSH1 0x0 PUSH20 0xFFFFFFFFFFFFFFFFFFFFFFFFFFFFFFFFFFFFFFFF AND DUP2 MSTORE PUSH1 0x20 ADD PUSH1 0x0 DUP2 MSTORE PUSH1 0x20 ADD PUSH1 0x60 DUP2 MSTORE POP SWAP1 JUMP JUMPDEST PUSH1 0x40 MLOAD DUP1 PUSH2 0x120 ADD PUSH1 0x40 MSTORE DUP1 PUSH1 0x60 DUP2 MSTORE PUSH1 0x20 ADD PUSH1 0x60 DUP2 MSTORE PUSH1 0x20 ADD PUSH1 0x0 PUSH1 0x5 DUP2 GT ISZERO PUSH2 0x2DB0 JUMPI PUSH2 0x2DAF PUSH2 0x2FD2 JUMP JUMPDEST JUMPDEST DUP2 MSTORE PUSH1 0x20 ADD PUSH1 0x0 DUP2 MSTORE PUSH1 0x20 ADD PUSH1 0x0 DUP2 MSTORE PUSH1 0x20 ADD PUSH1 0x0 DUP2 MSTORE PUSH1 0x20 ADD PUSH1 0x0 PUSH1 0x3 DUP2 GT ISZERO PUSH2 0x2DDE JUMPI PUSH2 0x2DDD PUSH2 0x2FD2 JUMP JUMPDEST JUMPDEST DUP2 MSTORE PUSH1 0x20 ADD PUSH1 0x0 DUP2 MSTORE PUSH1 0x20 ADD PUSH1 0x0 PUSH20 0xFFFFFFFFFFFFFFFFFFFFFFFFFFFFFFFFFFFFFFFF AND DUP2 MSTORE POP SWAP1 JUMP JUMPDEST PUSH1 0x40 MLOAD DUP1 PUSH1 0x80 ADD PUSH1 0x40 MSTORE DUP1 PUSH1 0x0 DUP1 NOT AND DUP2 MSTORE PUSH1 0x20 ADD PUSH1 0x60 DUP2 MSTORE PUSH1 0x20 ADD PUSH1 0x0 PUSH1 0x5 DUP2 GT ISZERO PUSH2 0x2E38 JUMPI PUSH2 0x2E37 PUSH2 0x2FD2 JUMP JUMPDEST JUMPDEST DUP2 MSTORE PUSH1 0x20 ADD PUSH1 0x0 PUSH1 0x3 DUP2 GT ISZERO PUSH2 0x2E51 JUMPI PUSH2 0x2E50 PUSH2 0x2FD2 JUMP JUMPDEST JUMPDEST DUP2 MSTORE POP SWAP1 JUMP JUMPDEST POP DUP1 SLOAD PUSH2 0x2E63 SWAP1 PUSH2 0x3AE5 JUMP JUMPDEST PUSH1 0x0 DUP3 SSTORE DUP1 PUSH1 0x1F LT PUSH2 0x2E75 JUMPI POP PUSH2 0x2E94 JUMP JUMPDEST PUSH1 0x1F ADD PUSH1 0x20 SWAP1 DIV SWAP1 PUSH1 0x0 MSTORE PUSH1 0x20 PUSH1 0x0 KECCAK256 SWAP1 DUP2 ADD SWAP1 PUSH2 0x2E93 SWAP2 SWAP1 PUSH2 0x2E97 JUMP JUMPDEST JUMPDEST POP JUMP JUMPDEST JUMPDEST DUP1 DUP3 GT ISZERO PUSH2 0x2EB0 JUMPI PUSH1 0x0 DUP2 PUSH1 0x0 SWAP1 SSTORE POP PUSH1 0x1 ADD PUSH2 0x2E98 JUMP JUMPDEST POP SWAP1 JUMP JUMPDEST PUSH1 0x0 PUSH1 0x40 MLOAD SWAP1 POP SWAP1 JUMP JUMPDEST PUSH1 0x0 DUP1 REVERT JUMPDEST PUSH1 0x0 DUP1 REVERT JUMPDEST PUSH1 0x0 DUP2 SWAP1 POP SWAP2 SWAP1 POP JUMP JUMPDEST PUSH2 0x2EDB DUP2 PUSH2 0x2EC8 JUMP JUMPDEST DUP2 EQ PUSH2 0x2EE6 JUMPI PUSH1 0x0 DUP1 REVERT JUMPDEST POP JUMP JUMPDEST PUSH1 0x0 DUP2 CALLDATALOAD SWAP1 POP PUSH2 0x2EF8 DUP2 PUSH2 0x2ED2 JUMP JUMPDEST SWAP3 SWAP2 POP POP JUMP JUMPDEST PUSH1 0x0 DUP2 SWAP1 POP SWAP2 SWAP1 POP JUMP JUMPDEST PUSH2 0x2F11 DUP2 PUSH2 0x2EFE JUMP JUMPDEST DUP2 EQ PUSH2 0x2F1C JUMPI PUSH1 0x0 DUP1 REVERT JUMPDEST POP JUMP JUMPDEST PUSH1 0x0 DUP2 CALLDATALOAD SWAP1 POP PUSH2 0x2F2E DUP2 PUSH2 0x2F08 JUMP JUMPDEST SWAP3 SWAP2 POP POP JUMP JUMPDEST PUSH1 0x0 DUP1 PUSH1 0x40 DUP4 DUP6 SUB SLT ISZERO PUSH2 0x2F4B JUMPI PUSH2 0x2F4A PUSH2 0x2EBE JUMP JUMPDEST JUMPDEST PUSH1 0x0 PUSH2 0x2F59 DUP6 DUP3 DUP7 ADD PUSH2 0x2EE9 JUMP JUMPDEST SWAP3 POP POP PUSH1 0x20 PUSH2 0x2F6A DUP6 DUP3 DUP7 ADD PUSH2 0x2F1F JUMP JUMPDEST SWAP2 POP POP SWAP3 POP SWAP3 SWAP1 POP JUMP JUMPDEST PUSH1 0x0 PUSH20 0xFFFFFFFFFFFFFFFFFFFFFFFFFFFFFFFFFFFFFFFF DUP3 AND SWAP1 POP SWAP2 SWAP1 POP JUMP JUMPDEST PUSH1 0x0 PUSH2 0x2F9F DUP3 PUSH2 0x2F74 JUMP JUMPDEST SWAP1 POP SWAP2 SWAP1 POP JUMP JUMPDEST PUSH2 0x2FAF DUP2 PUSH2 0x2F94 JUMP JUMPDEST DUP3 MSTORE POP POP JUMP JUMPDEST PUSH1 0x0 PUSH2 0xFFFF DUP3 AND SWAP1 POP SWAP2 SWAP1 POP JUMP JUMPDEST PUSH2 0x2FCC DUP2 PUSH2 0x2FB5 JUMP JUMPDEST DUP3 MSTORE POP POP JUMP JUMPDEST PUSH32 0x4E487B7100000000000000000000000000000000000000000000000000000000 PUSH1 0x0 MSTORE PUSH1 0x21 PUSH1 0x4 MSTORE PUSH1 0x24 PUSH1 0x0 REVERT JUMPDEST PUSH1 0x4 DUP2 LT PUSH2 0x3012 JUMPI PUSH2 0x3011 PUSH2 0x2FD2 JUMP JUMPDEST JUMPDEST POP JUMP JUMPDEST PUSH1 0x0 DUP2 SWAP1 POP PUSH2 0x3023 DUP3 PUSH2 0x3001 JUMP JUMPDEST SWAP2 SWAP1 POP JUMP JUMPDEST PUSH1 0x0 PUSH2 0x3033 DUP3 PUSH2 0x3015 JUMP JUMPDEST SWAP1 POP SWAP2 SWAP1 POP JUMP JUMPDEST PUSH2 0x3043 DUP2 PUSH2 0x3028 JUMP JUMPDEST DUP3 MSTORE POP POP JUMP JUMPDEST PUSH2 0x3052 DUP2 PUSH2 0x2EFE JUMP JUMPDEST DUP3 MSTORE POP POP JUMP JUMPDEST PUSH1 0x0 PUSH1 0x80 DUP3 ADD SWAP1 POP PUSH2 0x306D PUSH1 0x0 DUP4 ADD DUP8 PUSH2 0x2FA6 JUMP JUMPDEST PUSH2 0x307A PUSH1 0x20 DUP4 ADD DUP7 PUSH2 0x2FC3 JUMP JUMPDEST PUSH2 0x3087 PUSH1 0x40 DUP4 ADD DUP6 PUSH2 0x303A JUMP JUMPDEST PUSH2 0x3094 PUSH1 0x60 DUP4 ADD DUP5 PUSH2 0x3049 JUMP JUMPDEST SWAP6 SWAP5 POP POP POP POP POP JUMP JUMPDEST PUSH1 0x0 PUSH1 0x20 DUP3 DUP5 SUB SLT ISZERO PUSH2 0x30B3 JUMPI PUSH2 0x30B2 PUSH2 0x2EBE JUMP JUMPDEST JUMPDEST PUSH1 0x0 PUSH2 0x30C1 DUP5 DUP3 DUP6 ADD PUSH2 0x2EE9 JUMP JUMPDEST SWAP2 POP POP SWAP3 SWAP2 POP POP JUMP JUMPDEST PUSH1 0x0 DUP2 MLOAD SWAP1 POP SWAP2 SWAP1 POP JUMP JUMPDEST PUSH1 0x0 DUP3 DUP3 MSTORE PUSH1 0x20 DUP3 ADD SWAP1 POP SWAP3 SWAP2 POP POP JUMP JUMPDEST PUSH1 0x0 JUMPDEST DUP4 DUP2 LT ISZERO PUSH2 0x3104 JUMPI DUP1 DUP3 ADD MLOAD DUP2 DUP5 ADD MSTORE PUSH1 0x20 DUP2 ADD SWAP1 POP PUSH2 0x30E9 JUMP JUMPDEST PUSH1 0x0 DUP5 DUP5 ADD MSTORE POP POP POP POP JUMP JUMPDEST PUSH1 0x0 PUSH1 0x1F NOT PUSH1 0x1F DUP4 ADD AND SWAP1 POP SWAP2 SWAP1 POP JUMP JUMPDEST PUSH1 0x0 PUSH2 0x312C DUP3 PUSH2 0x30CA JUMP JUMPDEST PUSH2 0x3136 DUP2 DUP6 PUSH2 0x30D5 JUMP JUMPDEST SWAP4 POP PUSH2 0x3146 DUP2 DUP6 PUSH1 0x20 DUP7 ADD PUSH2 0x30E6 JUMP JUMPDEST PUSH2 0x314F DUP2 PUSH2 0x3110 JUMP JUMPDEST DUP5 ADD SWAP2 POP POP SWAP3 SWAP2 POP POP JUMP JUMPDEST PUSH1 0x6 DUP2 LT PUSH2 0x316B JUMPI PUSH2 0x316A PUSH2 0x2FD2 JUMP JUMPDEST JUMPDEST POP JUMP JUMPDEST PUSH1 0x0 DUP2 SWAP1 POP PUSH2 0x317C DUP3 PUSH2 0x315A JUMP JUMPDEST SWAP2 SWAP1 POP JUMP JUMPDEST PUSH1 0x0 PUSH2 0x318C DUP3 PUSH2 0x316E JUMP JUMPDEST SWAP1 POP SWAP2 SWAP1 POP JUMP JUMPDEST PUSH2 0x319C DUP2 PUSH2 0x3181 JUMP JUMPDEST DUP3 MSTORE POP POP JUMP JUMPDEST PUSH1 0x4 DUP2 LT PUSH2 0x31B3 JUMPI PUSH2 0x31B2 PUSH2 0x2FD2 JUMP JUMPDEST JUMPDEST POP JUMP JUMPDEST PUSH1 0x0 DUP2 SWAP1 POP PUSH2 0x31C4 DUP3 PUSH2 0x31A2 JUMP JUMPDEST SWAP2 SWAP1 POP JUMP JUMPDEST PUSH1 0x0 PUSH2 0x31D4 DUP3 PUSH2 0x31B6 JUMP JUMPDEST SWAP1 POP SWAP2 SWAP1 POP JUMP JUMPDEST PUSH2 0x31E4 DUP2 PUSH2 0x31C9 JUMP JUMPDEST DUP3 MSTORE POP POP JUMP JUMPDEST PUSH1 0x0 PUSH2 0x120 DUP3 ADD SWAP1 POP DUP2 DUP2 SUB PUSH1 0x0 DUP4 ADD MSTORE PUSH2 0x3205 DUP2 DUP13 PUSH2 0x3121 JUMP JUMPDEST SWAP1 POP DUP2 DUP2 SUB PUSH1 0x20 DUP4 ADD MSTORE PUSH2 0x3219 DUP2 DUP12 PUSH2 0x3121 JUMP JUMPDEST SWAP1 POP PUSH2 0x3228 PUSH1 0x40 DUP4 ADD DUP11 PUSH2 0x3193 JUMP JUMPDEST PUSH2 0x3235 PUSH1 0x60 DUP4 ADD DUP10 PUSH2 0x3049 JUMP JUMPDEST PUSH2 0x3242 PUSH1 0x80 DUP4 ADD DUP9 PUSH2 0x3049 JUMP JUMPDEST PUSH2 0x324F PUSH1 0xA0 DUP4 ADD DUP8 PUSH2 0x3049 JUMP JUMPDEST PUSH2 0x325C PUSH1 0xC0 DUP4 ADD DUP7 PUSH2 0x31DB JUMP JUMPDEST PUSH2 0x3269 PUSH1 0xE0 DUP4 ADD DUP6 PUSH2 0x3049 JUMP JUMPDEST PUSH2 0x3277 PUSH2 0x100 DUP4 ADD DUP5 PUSH2 0x2FA6 JUMP JUMPDEST SWAP11 SWAP10 POP POP POP POP POP POP POP POP POP POP JUMP JUMPDEST PUSH1 0x0 DUP1 REVERT JUMPDEST PUSH1 0x0 DUP1 REVERT JUMPDEST PUSH32 0x4E487B7100000000000000000000000000000000000000000000000000000000 PUSH1 0x0 MSTORE PUSH1 0x41 PUSH1 0x4 MSTORE PUSH1 0x24 PUSH1 0x0 REVERT JUMPDEST PUSH2 0x32C7 DUP3 PUSH2 0x3110 JUMP JUMPDEST DUP2 ADD DUP2 DUP2 LT PUSH8 0xFFFFFFFFFFFFFFFF DUP3 GT OR ISZERO PUSH2 0x32E6 JUMPI PUSH2 0x32E5 PUSH2 0x328F JUMP JUMPDEST JUMPDEST DUP1 PUSH1 0x40 MSTORE POP POP POP JUMP JUMPDEST PUSH1 0x0 PUSH2 0x32F9 PUSH2 0x2EB4 JUMP JUMPDEST SWAP1 POP PUSH2 0x3305 DUP3 DUP3 PUSH2 0x32BE JUMP JUMPDEST SWAP2 SWAP1 POP JUMP JUMPDEST PUSH1 0x0 PUSH8 0xFFFFFFFFFFFFFFFF DUP3 GT ISZERO PUSH2 0x3325 JUMPI PUSH2 0x3324 PUSH2 0x328F JUMP JUMPDEST JUMPDEST PUSH2 0x332E DUP3 PUSH2 0x3110 JUMP JUMPDEST SWAP1 POP PUSH1 0x20 DUP2 ADD SWAP1 POP SWAP2 SWAP1 POP JUMP JUMPDEST DUP3 DUP2 DUP4 CALLDATACOPY PUSH1 0x0 DUP4 DUP4 ADD MSTORE POP POP POP JUMP JUMPDEST PUSH1 0x0 PUSH2 0x335D PUSH2 0x3358 DUP5 PUSH2 0x330A JUMP JUMPDEST PUSH2 0x32EF JUMP JUMPDEST SWAP1 POP DUP3 DUP2 MSTORE PUSH1 0x20 DUP2 ADD DUP5 DUP5 DUP5 ADD GT ISZERO PUSH2 0x3379 JUMPI PUSH2 0x3378 PUSH2 0x328A JUMP JUMPDEST JUMPDEST PUSH2 0x3384 DUP5 DUP3 DUP6 PUSH2 0x333B JUMP JUMPDEST POP SWAP4 SWAP3 POP POP POP JUMP JUMPDEST PUSH1 0x0 DUP3 PUSH1 0x1F DUP4 ADD SLT PUSH2 0x33A1 JUMPI PUSH2 0x33A0 PUSH2 0x3285 JUMP JUMPDEST JUMPDEST DUP2 CALLDATALOAD PUSH2 0x33B1 DUP5 DUP3 PUSH1 0x20 DUP7 ADD PUSH2 0x334A JUMP JUMPDEST SWAP2 POP POP SWAP3 SWAP2 POP POP JUMP JUMPDEST PUSH1 0x0 DUP1 PUSH1 0x40 DUP4 DUP6 SUB SLT ISZERO PUSH2 0x33D1 JUMPI PUSH2 0x33D0 PUSH2 0x2EBE JUMP JUMPDEST JUMPDEST PUSH1 0x0 DUP4 ADD CALLDATALOAD PUSH8 0xFFFFFFFFFFFFFFFF DUP2 GT ISZERO PUSH2 0x33EF JUMPI PUSH2 0x33EE PUSH2 0x2EC3 JUMP JUMPDEST JUMPDEST PUSH2 0x33FB DUP6 DUP3 DUP7 ADD PUSH2 0x338C JUMP JUMPDEST SWAP3 POP POP PUSH1 0x20 PUSH2 0x340C DUP6 DUP3 DUP7 ADD PUSH2 0x2F1F JUMP JUMPDEST SWAP2 POP POP SWAP3 POP SWAP3 SWAP1 POP JUMP JUMPDEST PUSH2 0x341F DUP2 PUSH2 0x2F94 JUMP JUMPDEST DUP3 MSTORE POP POP JUMP JUMPDEST PUSH2 0x342E DUP2 PUSH2 0x2EFE JUMP JUMPDEST DUP3 MSTORE POP POP JUMP JUMPDEST PUSH1 0x0 DUP3 DUP3 MSTORE PUSH1 0x20 DUP3 ADD SWAP1 POP SWAP3 SWAP2 POP POP JUMP JUMPDEST PUSH1 0x0 PUSH2 0x3450 DUP3 PUSH2 0x30CA JUMP JUMPDEST PUSH2 0x345A DUP2 DUP6 PUSH2 0x3434 JUMP JUMPDEST SWAP4 POP PUSH2 0x346A DUP2 DUP6 PUSH1 0x20 DUP7 ADD PUSH2 0x30E6 JUMP JUMPDEST PUSH2 0x3473 DUP2 PUSH2 0x3110 JUMP JUMPDEST DUP5 ADD SWAP2 POP POP SWAP3 SWAP2 POP POP JUMP JUMPDEST PUSH1 0x0 PUSH1 0x60 DUP4 ADD PUSH1 0x0 DUP4 ADD MLOAD PUSH2 0x3496 PUSH1 0x0 DUP7 ADD DUP3 PUSH2 0x3416 JUMP JUMPDEST POP PUSH1 0x20 DUP4 ADD MLOAD PUSH2 0x34A9 PUSH1 0x20 DUP7 ADD DUP3 PUSH2 0x3425 JUMP JUMPDEST POP PUSH1 0x40 DUP4 ADD MLOAD DUP5 DUP3 SUB PUSH1 0x40 DUP7 ADD MSTORE PUSH2 0x34C1 DUP3 DUP3 PUSH2 0x3445 JUMP JUMPDEST SWAP2 POP POP DUP1 SWAP2 POP POP SWAP3 SWAP2 POP POP JUMP JUMPDEST PUSH1 0x0 PUSH1 0x20 DUP3 ADD SWAP1 POP DUP2 DUP2 SUB PUSH1 0x0 DUP4 ADD MSTORE PUSH2 0x34E8 DUP2 DUP5 PUSH2 0x347E JUMP JUMPDEST SWAP1 POP SWAP3 SWAP2 POP POP JUMP JUMPDEST PUSH2 0x34F9 DUP2 PUSH2 0x2FB5 JUMP JUMPDEST DUP2 EQ PUSH2 0x3504 JUMPI PUSH1 0x0 DUP1 REVERT JUMPDEST POP JUMP JUMPDEST PUSH1 0x0 DUP2 CALLDATALOAD SWAP1 POP PUSH2 0x3516 DUP2 PUSH2 0x34F0 JUMP JUMPDEST SWAP3 SWAP2 POP POP JUMP JUMPDEST PUSH1 0x0 PUSH1 0x20 DUP3 DUP5 SUB SLT ISZERO PUSH2 0x3532 JUMPI PUSH2 0x3531 PUSH2 0x2EBE JUMP JUMPDEST JUMPDEST PUSH1 0x0 PUSH2 0x3540 DUP5 DUP3 DUP6 ADD PUSH2 0x3507 JUMP JUMPDEST SWAP2 POP POP SWAP3 SWAP2 POP POP JUMP JUMPDEST PUSH1 0x0 PUSH1 0x20 DUP3 ADD SWAP1 POP PUSH2 0x355E PUSH1 0x0 DUP4 ADD DUP5 PUSH2 0x3049 JUMP JUMPDEST SWAP3 SWAP2 POP POP JUMP JUMPDEST PUSH1 0x0 PUSH1 0x20 DUP3 DUP5 SUB SLT ISZERO PUSH2 0x357A JUMPI PUSH2 0x3579 PUSH2 0x2EBE JUMP JUMPDEST JUMPDEST PUSH1 0x0 DUP3 ADD CALLDATALOAD PUSH8 0xFFFFFFFFFFFFFFFF DUP2 GT ISZERO PUSH2 0x3598 JUMPI PUSH2 0x3597 PUSH2 0x2EC3 JUMP JUMPDEST JUMPDEST PUSH2 0x35A4 DUP5 DUP3 DUP6 ADD PUSH2 0x338C JUMP JUMPDEST SWAP2 POP POP SWAP3 SWAP2 POP POP JUMP JUMPDEST PUSH1 0x4 DUP2 LT PUSH2 0x35BA JUMPI PUSH1 0x0 DUP1 REVERT JUMPDEST POP JUMP JUMPDEST PUSH1 0x0 DUP2 CALLDATALOAD SWAP1 POP PUSH2 0x35CC DUP2 PUSH2 0x35AD JUMP JUMPDEST SWAP3 SWAP2 POP POP JUMP JUMPDEST PUSH2 0x35DB DUP2 PUSH2 0x2F94 JUMP JUMPDEST DUP2 EQ PUSH2 0x35E6 JUMPI PUSH1 0x0 DUP1 REVERT JUMPDEST POP JUMP JUMPDEST PUSH1 0x0 DUP2 CALLDATALOAD SWAP1 POP PUSH2 0x35F8 DUP2 PUSH2 0x35D2 JUMP JUMPDEST SWAP3 SWAP2 POP POP JUMP JUMPDEST PUSH1 0x0 DUP1 PUSH1 0x0 DUP1 PUSH1 0x0 PUSH1 0xA0 DUP7 DUP9 SUB SLT ISZERO PUSH2 0x361A JUMPI PUSH2 0x3619 PUSH2 0x2EBE JUMP JUMPDEST JUMPDEST PUSH1 0x0 DUP7 ADD CALLDATALOAD PUSH8 0xFFFFFFFFFFFFFFFF DUP2 GT ISZERO PUSH2 0x3638 JUMPI PUSH2 0x3637 PUSH2 0x2EC3 JUMP JUMPDEST JUMPDEST PUSH2 0x3644 DUP9 DUP3 DUP10 ADD PUSH2 0x338C JUMP JUMPDEST SWAP6 POP POP PUSH1 0x20 DUP7 ADD CALLDATALOAD PUSH8 0xFFFFFFFFFFFFFFFF DUP2 GT ISZERO PUSH2 0x3665 JUMPI PUSH2 0x3664 PUSH2 0x2EC3 JUMP JUMPDEST JUMPDEST PUSH2 0x3671 DUP9 DUP3 DUP10 ADD PUSH2 0x338C JUMP JUMPDEST SWAP5 POP POP PUSH1 0x40 PUSH2 0x3682 DUP9 DUP3 DUP10 ADD PUSH2 0x35BD JUMP JUMPDEST SWAP4 POP POP PUSH1 0x60 PUSH2 0x3693 DUP9 DUP3 DUP10 ADD PUSH2 0x2F1F JUMP JUMPDEST SWAP3 POP POP PUSH1 0x80 PUSH2 0x36A4 DUP9 DUP3 DUP10 ADD PUSH2 0x35E9 JUMP JUMPDEST SWAP2 POP POP SWAP3 SWAP6 POP SWAP3 SWAP6 SWAP1 SWAP4 POP JUMP JUMPDEST PUSH2 0x36BA DUP2 PUSH2 0x3181 JUMP JUMPDEST DUP3 MSTORE POP POP JUMP JUMPDEST PUSH2 0x36C9 DUP2 PUSH2 0x31C9 JUMP JUMPDEST DUP3 MSTORE POP POP JUMP JUMPDEST PUSH1 0x0 PUSH2 0x120 DUP4 ADD PUSH1 0x0 DUP4 ADD MLOAD DUP5 DUP3 SUB PUSH1 0x0 DUP7 ADD MSTORE PUSH2 0x36ED DUP3 DUP3 PUSH2 0x3445 JUMP JUMPDEST SWAP2 POP POP PUSH1 0x20 DUP4 ADD MLOAD DUP5 DUP3 SUB PUSH1 0x20 DUP7 ADD MSTORE PUSH2 0x3707 DUP3 DUP3 PUSH2 0x3445 JUMP JUMPDEST SWAP2 POP POP PUSH1 0x40 DUP4 ADD MLOAD PUSH2 0x371C PUSH1 0x40 DUP7 ADD DUP3 PUSH2 0x36B1 JUMP JUMPDEST POP PUSH1 0x60 DUP4 ADD MLOAD PUSH2 0x372F PUSH1 0x60 DUP7 ADD DUP3 PUSH2 0x3425 JUMP JUMPDEST POP PUSH1 0x80 DUP4 ADD MLOAD PUSH2 0x3742 PUSH1 0x80 DUP7 ADD DUP3 PUSH2 0x3425 JUMP JUMPDEST POP PUSH1 0xA0 DUP4 ADD MLOAD PUSH2 0x3755 PUSH1 0xA0 DUP7 ADD DUP3 PUSH2 0x3425 JUMP JUMPDEST POP PUSH1 0xC0 DUP4 ADD MLOAD PUSH2 0x3768 PUSH1 0xC0 DUP7 ADD DUP3 PUSH2 0x36C0 JUMP JUMPDEST POP PUSH1 0xE0 DUP4 ADD MLOAD PUSH2 0x377B PUSH1 0xE0 DUP7 ADD DUP3 PUSH2 0x3425 JUMP JUMPDEST POP PUSH2 0x100 DUP4 ADD MLOAD PUSH2 0x3790 PUSH2 0x100 DUP7 ADD DUP3 PUSH2 0x3416 JUMP JUMPDEST POP DUP1 SWAP2 POP POP SWAP3 SWAP2 POP POP JUMP JUMPDEST PUSH1 0x0 PUSH1 0x20 DUP3 ADD SWAP1 POP DUP2 DUP2 SUB PUSH1 0x0 DUP4 ADD MSTORE PUSH2 0x37B5 DUP2 DUP5 PUSH2 0x36CF JUMP JUMPDEST SWAP1 POP SWAP3 SWAP2 POP POP JUMP JUMPDEST PUSH1 0x0 PUSH1 0x20 DUP3 ADD SWAP1 POP PUSH2 0x37D2 PUSH1 0x0 DUP4 ADD DUP5 PUSH2 0x2FA6 JUMP JUMPDEST SWAP3 SWAP2 POP POP JUMP JUMPDEST PUSH1 0x0 PUSH1 0x20 DUP3 DUP5 SUB SLT ISZERO PUSH2 0x37EE JUMPI PUSH2 0x37ED PUSH2 0x2EBE JUMP JUMPDEST JUMPDEST PUSH1 0x0 PUSH2 0x37FC DUP5 DUP3 DUP6 ADD PUSH2 0x35E9 JUMP JUMPDEST SWAP2 POP POP SWAP3 SWAP2 POP POP JUMP JUMPDEST PUSH1 0x0 DUP2 ISZERO ISZERO SWAP1 POP SWAP2 SWAP1 POP JUMP JUMPDEST PUSH2 0x381A DUP2 PUSH2 0x3805 JUMP JUMPDEST DUP3 MSTORE POP POP JUMP JUMPDEST PUSH1 0x0 PUSH1 0x20 DUP3 ADD SWAP1 POP PUSH2 0x3835 PUSH1 0x0 DUP4 ADD DUP5 PUSH2 0x3811 JUMP JUMPDEST SWAP3 SWAP2 POP POP JUMP JUMPDEST PUSH2 0x3844 DUP2 PUSH2 0x2EC8 JUMP JUMPDEST DUP3 MSTORE POP POP JUMP JUMPDEST PUSH1 0x0 PUSH1 0x80 DUP4 ADD PUSH1 0x0 DUP4 ADD MLOAD PUSH2 0x3862 PUSH1 0x0 DUP7 ADD DUP3 PUSH2 0x383B JUMP JUMPDEST POP PUSH1 0x20 DUP4 ADD MLOAD DUP5 DUP3 SUB PUSH1 0x20 DUP7 ADD MSTORE PUSH2 0x387A DUP3 DUP3 PUSH2 0x3445 JUMP JUMPDEST SWAP2 POP POP PUSH1 0x40 DUP4 ADD MLOAD PUSH2 0x388F PUSH1 0x40 DUP7 ADD DUP3 PUSH2 0x36B1 JUMP JUMPDEST POP PUSH1 0x60 DUP4 ADD MLOAD PUSH2 0x38A2 PUSH1 0x60 DUP7 ADD DUP3 PUSH2 0x36C0 JUMP JUMPDEST POP DUP1 SWAP2 POP POP SWAP3 SWAP2 POP POP JUMP JUMPDEST PUSH1 0x0 PUSH1 0x20 DUP3 ADD SWAP1 POP DUP2 DUP2 SUB PUSH1 0x0 DUP4 ADD MSTORE PUSH2 0x38C7 DUP2 DUP5 PUSH2 0x384A JUMP JUMPDEST SWAP1 POP SWAP3 SWAP2 POP POP JUMP JUMPDEST PUSH1 0x4 DUP2 LT PUSH2 0x38DC JUMPI PUSH1 0x0 DUP1 REVERT JUMPDEST POP JUMP JUMPDEST PUSH1 0x0 DUP2 CALLDATALOAD SWAP1 POP PUSH2 0x38EE DUP2 PUSH2 0x38CF JUMP JUMPDEST SWAP3 SWAP2 POP POP JUMP JUMPDEST PUSH1 0x0 DUP1 PUSH1 0x40 DUP4 DUP6 SUB SLT ISZERO PUSH2 0x390B JUMPI PUSH2 0x390A PUSH2 0x2EBE JUMP JUMPDEST JUMPDEST PUSH1 0x0 DUP4 ADD CALLDATALOAD PUSH8 0xFFFFFFFFFFFFFFFF DUP2 GT ISZERO PUSH2 0x3929 JUMPI PUSH2 0x3928 PUSH2 0x2EC3 JUMP JUMPDEST JUMPDEST PUSH2 0x3935 DUP6 DUP3 DUP7 ADD PUSH2 0x338C JUMP JUMPDEST SWAP3 POP POP PUSH1 0x20 PUSH2 0x3946 DUP6 DUP3 DUP7 ADD PUSH2 0x38DF JUMP JUMPDEST SWAP2 POP POP SWAP3 POP SWAP3 SWAP1 POP JUMP JUMPDEST PUSH1 0x0 DUP1 PUSH1 0x40 DUP4 DUP6 SUB SLT ISZERO PUSH2 0x3967 JUMPI PUSH2 0x3966 PUSH2 0x2EBE JUMP JUMPDEST JUMPDEST PUSH1 0x0 PUSH2 0x3975 DUP6 DUP3 DUP7 ADD PUSH2 0x35E9 JUMP JUMPDEST SWAP3 POP POP PUSH1 0x20 PUSH2 0x3986 DUP6 DUP3 DUP7 ADD PUSH2 0x3507 JUMP JUMPDEST SWAP2 POP POP SWAP3 POP SWAP3 SWAP1 POP JUMP JUMPDEST PUSH2 0x3999 DUP2 PUSH2 0x3805 JUMP JUMPDEST DUP2 EQ PUSH2 0x39A4 JUMPI PUSH1 0x0 DUP1 REVERT JUMPDEST POP JUMP JUMPDEST PUSH1 0x0 DUP2 CALLDATALOAD SWAP1 POP PUSH2 0x39B6 DUP2 PUSH2 0x3990 JUMP JUMPDEST SWAP3 SWAP2 POP POP JUMP JUMPDEST PUSH1 0x0 DUP1 PUSH1 0x40 DUP4 DUP6 SUB SLT ISZERO PUSH2 0x39D3 JUMPI PUSH2 0x39D2 PUSH2 0x2EBE JUMP JUMPDEST JUMPDEST PUSH1 0x0 PUSH2 0x39E1 DUP6 DUP3 DUP7 ADD PUSH2 0x35E9 JUMP JUMPDEST SWAP3 POP POP PUSH1 0x20 PUSH2 0x39F2 DUP6 DUP3 DUP7 ADD PUSH2 0x39A7 JUMP JUMPDEST SWAP2 POP POP SWAP3 POP SWAP3 SWAP1 POP JUMP JUMPDEST PUSH1 0x0 PUSH1 0x20 DUP3 ADD SWAP1 POP PUSH2 0x3A11 PUSH1 0x0 DUP4 ADD DUP5 PUSH2 0x2FC3 JUMP JUMPDEST SWAP3 SWAP2 POP POP JUMP JUMPDEST PUSH1 0x0 DUP1 PUSH1 0x0 DUP1 PUSH1 0x80 DUP6 DUP8 SUB SLT ISZERO PUSH2 0x3A31 JUMPI PUSH2 0x3A30 PUSH2 0x2EBE JUMP JUMPDEST JUMPDEST PUSH1 0x0 DUP6 ADD CALLDATALOAD PUSH8 0xFFFFFFFFFFFFFFFF DUP2 GT ISZERO PUSH2 0x3A4F JUMPI PUSH2 0x3A4E PUSH2 0x2EC3 JUMP JUMPDEST JUMPDEST PUSH2 0x3A5B DUP8 DUP3 DUP9 ADD PUSH2 0x338C JUMP JUMPDEST SWAP5 POP POP PUSH1 0x20 DUP6 ADD CALLDATALOAD PUSH8 0xFFFFFFFFFFFFFFFF DUP2 GT ISZERO PUSH2 0x3A7C JUMPI PUSH2 0x3A7B PUSH2 0x2EC3 JUMP JUMPDEST JUMPDEST PUSH2 0x3A88 DUP8 DUP3 DUP9 ADD PUSH2 0x338C JUMP JUMPDEST SWAP4 POP POP PUSH1 0x40 PUSH2 0x3A99 DUP8 DUP3 DUP9 ADD PUSH2 0x2F1F JUMP JUMPDEST SWAP3 POP POP PUSH1 0x60 PUSH2 0x3AAA DUP8 DUP3 DUP9 ADD PUSH2 0x35E9 JUMP JUMPDEST SWAP2 POP POP SWAP3 SWAP6 SWAP2 SWAP5 POP SWAP3 POP JUMP JUMPDEST PUSH32 0x4E487B7100000000000000000000000000000000000000000000000000000000 PUSH1 0x0 MSTORE PUSH1 0x22 PUSH1 0x4 MSTORE PUSH1 0x24 PUSH1 0x0 REVERT JUMPDEST PUSH1 0x0 PUSH1 0x2 DUP3 DIV SWAP1 POP PUSH1 0x1 DUP3 AND DUP1 PUSH2 0x3AFD JUMPI PUSH1 0x7F DUP3 AND SWAP2 POP JUMPDEST PUSH1 0x20 DUP3 LT DUP2 SUB PUSH2 0x3B10 JUMPI PUSH2 0x3B0F PUSH2 0x3AB6 JUMP JUMPDEST JUMPDEST POP SWAP2 SWAP1 POP JUMP JUMPDEST PUSH32 0x4F6E6C79206D616E616765722063616E2063616C6C20746869732066756E6374 PUSH1 0x0 DUP3 ADD MSTORE PUSH32 0x696F6E0000000000000000000000000000000000000000000000000000000000 PUSH1 0x20 DUP3 ADD MSTORE POP JUMP JUMPDEST PUSH1 0x0 PUSH2 0x3B72 PUSH1 0x23 DUP4 PUSH2 0x30D5 JUMP JUMPDEST SWAP2 POP PUSH2 0x3B7D DUP3 PUSH2 0x3B16 JUMP JUMPDEST PUSH1 0x40 DUP3 ADD SWAP1 POP SWAP2 SWAP1 POP JUMP JUMPDEST PUSH1 0x0 PUSH1 0x20 DUP3 ADD SWAP1 POP DUP2 DUP2 SUB PUSH1 0x0 DUP4 ADD MSTORE PUSH2 0x3BA1 DUP2 PUSH2 0x3B65 JUMP JUMPDEST SWAP1 POP SWAP2 SWAP1 POP JUMP JUMPDEST PUSH32 0x496E73756666696369656E7420666F756E647300000000000000000000000000 PUSH1 0x0 DUP3 ADD MSTORE POP JUMP JUMPDEST PUSH1 0x0 PUSH2 0x3BDE PUSH1 0x13 DUP4 PUSH2 0x30D5 JUMP JUMPDEST SWAP2 POP PUSH2 0x3BE9 DUP3 PUSH2 0x3BA8 JUMP JUMPDEST PUSH1 0x20 DUP3 ADD SWAP1 POP SWAP2 SWAP1 POP JUMP JUMPDEST PUSH1 0x0 PUSH1 0x20 DUP3 ADD SWAP1 POP DUP2 DUP2 SUB PUSH1 0x0 DUP4 ADD MSTORE PUSH2 0x3C0D DUP2 PUSH2 0x3BD1 JUMP JUMPDEST SWAP1 POP SWAP2 SWAP1 POP JUMP JUMPDEST PUSH32 0x4F6E6C7920415050524F564544205350454E5420746F706963732063616E2062 PUSH1 0x0 DUP3 ADD MSTORE PUSH32 0x65207573656420666F72207472616E7366657273000000000000000000000000 PUSH1 0x20 DUP3 ADD MSTORE POP JUMP JUMPDEST PUSH1 0x0 PUSH2 0x3C70 PUSH1 0x34 DUP4 PUSH2 0x30D5 JUMP JUMPDEST SWAP2 POP PUSH2 0x3C7B DUP3 PUSH2 0x3C14 JUMP JUMPDEST PUSH1 0x40 DUP3 ADD SWAP1 POP SWAP2 SWAP1 POP JUMP JUMPDEST PUSH1 0x0 PUSH1 0x20 DUP3 ADD SWAP1 POP DUP2 DUP2 SUB PUSH1 0x0 DUP4 ADD MSTORE PUSH2 0x3C9F DUP2 PUSH2 0x3C63 JUMP JUMPDEST SWAP1 POP SWAP2 SWAP1 POP JUMP JUMPDEST PUSH32 0x54686520616D6F756E74206D757374206265206C657373206F7220657175616C PUSH1 0x0 DUP3 ADD MSTORE PUSH32 0x2074686520415050524F56454420746F70696300000000000000000000000000 PUSH1 0x20 DUP3 ADD MSTORE POP JUMP JUMPDEST PUSH1 0x0 PUSH2 0x3D02 PUSH1 0x33 DUP4 PUSH2 0x30D5 JUMP JUMPDEST SWAP2 POP PUSH2 0x3D0D DUP3 PUSH2 0x3CA6 JUMP JUMPDEST PUSH1 0x40 DUP3 ADD SWAP1 POP SWAP2 SWAP1 POP JUMP JUMPDEST PUSH1 0x0 PUSH1 0x20 DUP3 ADD SWAP1 POP DUP2 DUP2 SUB PUSH1 0x0 DUP4 ADD MSTORE PUSH2 0x3D31 DUP2 PUSH2 0x3CF5 JUMP JUMPDEST SWAP1 POP SWAP2 SWAP1 POP JUMP JUMPDEST PUSH32 0x4F6E6C7920746865206D616E61676572206F72207265736964656E7473206361 PUSH1 0x0 DUP3 ADD MSTORE PUSH32 0x6E2063616C6C20746869732066756E6374696F6E000000000000000000000000 PUSH1 0x20 DUP3 ADD MSTORE POP JUMP JUMPDEST PUSH1 0x0 PUSH2 0x3D94 PUSH1 0x34 DUP4 PUSH2 0x30D5 JUMP JUMPDEST SWAP2 POP PUSH2 0x3D9F DUP3 PUSH2 0x3D38 JUMP JUMPDEST PUSH1 0x40 DUP3 ADD SWAP1 POP SWAP2 SWAP1 POP JUMP JUMPDEST PUSH1 0x0 PUSH1 0x20 DUP3 ADD SWAP1 POP DUP2 DUP2 SUB PUSH1 0x0 DUP4 ADD MSTORE PUSH2 0x3DC3 DUP2 PUSH2 0x3D87 JUMP JUMPDEST SWAP1 POP SWAP2 SWAP1 POP JUMP JUMPDEST PUSH32 0x4E487B7100000000000000000000000000000000000000000000000000000000 PUSH1 0x0 MSTORE PUSH1 0x11 PUSH1 0x4 MSTORE PUSH1 0x24 PUSH1 0x0 REVERT JUMPDEST PUSH1 0x0 PUSH2 0x3E04 DUP3 PUSH2 0x2EFE JUMP JUMPDEST SWAP2 POP PUSH2 0x3E0F DUP4 PUSH2 0x2EFE JUMP JUMPDEST SWAP3 POP DUP3 DUP3 ADD SWAP1 POP DUP1 DUP3 GT ISZERO PUSH2 0x3E27 JUMPI PUSH2 0x3E26 PUSH2 0x3DCA JUMP JUMPDEST JUMPDEST SWAP3 SWAP2 POP POP JUMP JUMPDEST PUSH32 0x546865207265736964656E74206D7573742062652064656661756C7465720000 PUSH1 0x0 DUP3 ADD MSTORE POP JUMP JUMPDEST PUSH1 0x0 PUSH2 0x3E63 PUSH1 0x1E DUP4 PUSH2 0x30D5 JUMP JUMPDEST SWAP2 POP PUSH2 0x3E6E DUP3 PUSH2 0x3E2D JUMP JUMPDEST PUSH1 0x20 DUP3 ADD SWAP1 POP SWAP2 SWAP1 POP JUMP JUMPDEST PUSH1 0x0 PUSH1 0x20 DUP3 ADD SWAP1 POP DUP2 DUP2 SUB PUSH1 0x0 DUP4 ADD MSTORE PUSH2 0x3E92 DUP2 PUSH2 0x3E56 JUMP JUMPDEST SWAP1 POP SWAP2 SWAP1 POP JUMP JUMPDEST PUSH32 0x546F70696320616C726561647920657869737473000000000000000000000000 PUSH1 0x0 DUP3 ADD MSTORE POP JUMP JUMPDEST PUSH1 0x0 PUSH2 0x3ECF PUSH1 0x14 DUP4 PUSH2 0x30D5 JUMP JUMPDEST SWAP2 POP PUSH2 0x3EDA DUP3 PUSH2 0x3E99 JUMP JUMPDEST PUSH1 0x20 DUP3 ADD SWAP1 POP SWAP2 SWAP1 POP JUMP JUMPDEST PUSH1 0x0 PUSH1 0x20 DUP3 ADD SWAP1 POP DUP2 DUP2 SUB PUSH1 0x0 DUP4 ADD MSTORE PUSH2 0x3EFE DUP2 PUSH2 0x3EC2 JUMP JUMPDEST SWAP1 POP SWAP2 SWAP1 POP JUMP JUMPDEST PUSH32 0x57726F6E672063617465676F7279000000000000000000000000000000000000 PUSH1 0x0 DUP3 ADD MSTORE POP JUMP JUMPDEST PUSH1 0x0 PUSH2 0x3F3B PUSH1 0xE DUP4 PUSH2 0x30D5 JUMP JUMPDEST SWAP2 POP PUSH2 0x3F46 DUP3 PUSH2 0x3F05 JUMP JUMPDEST PUSH1 0x20 DUP3 ADD SWAP1 POP SWAP2 SWAP1 POP JUMP JUMPDEST PUSH1 0x0 PUSH1 0x20 DUP3 ADD SWAP1 POP DUP2 DUP2 SUB PUSH1 0x0 DUP4 ADD MSTORE PUSH2 0x3F6A DUP2 PUSH2 0x3F2E JUMP JUMPDEST SWAP1 POP SWAP2 SWAP1 POP JUMP JUMPDEST PUSH1 0x0 DUP2 SWAP1 POP DUP2 PUSH1 0x0 MSTORE PUSH1 0x20 PUSH1 0x0 KECCAK256 SWAP1 POP SWAP2 SWAP1 POP JUMP JUMPDEST PUSH1 0x0 PUSH1 0x20 PUSH1 0x1F DUP4 ADD DIV SWAP1 POP SWAP2 SWAP1 POP JUMP JUMPDEST PUSH1 0x0 DUP3 DUP3 SHL SWAP1 POP SWAP3 SWAP2 POP POP JUMP JUMPDEST PUSH1 0x0 PUSH1 0x8 DUP4 MUL PUSH2 0x3FD3 PUSH32 0xFFFFFFFFFFFFFFFFFFFFFFFFFFFFFFFFFFFFFFFFFFFFFFFFFFFFFFFFFFFFFFFF DUP3 PUSH2 0x3F96 JUMP JUMPDEST PUSH2 0x3FDD DUP7 DUP4 PUSH2 0x3F96 JUMP JUMPDEST SWAP6 POP DUP1 NOT DUP5 AND SWAP4 POP DUP1 DUP7 AND DUP5 OR SWAP3 POP POP POP SWAP4 SWAP3 POP POP POP JUMP JUMPDEST PUSH1 0x0 DUP2 SWAP1 POP SWAP2 SWAP1 POP JUMP JUMPDEST PUSH1 0x0 PUSH2 0x401A PUSH2 0x4015 PUSH2 0x4010 DUP5 PUSH2 0x2EFE JUMP JUMPDEST PUSH2 0x3FF5 JUMP JUMPDEST PUSH2 0x2EFE JUMP JUMPDEST SWAP1 POP SWAP2 SWAP1 POP JUMP JUMPDEST PUSH1 0x0 DUP2 SWAP1 POP SWAP2 SWAP1 POP JUMP JUMPDEST PUSH2 0x4034 DUP4 PUSH2 0x3FFF JUMP JUMPDEST PUSH2 0x4048 PUSH2 0x4040 DUP3 PUSH2 0x4021 JUMP JUMPDEST DUP5 DUP5 SLOAD PUSH2 0x3FA3 JUMP JUMPDEST DUP3 SSTORE POP POP POP POP JUMP JUMPDEST PUSH1 0x0 SWAP1 JUMP JUMPDEST PUSH2 0x405D PUSH2 0x4050 JUMP JUMPDEST PUSH2 0x4068 DUP2 DUP5 DUP5 PUSH2 0x402B JUMP JUMPDEST POP POP POP JUMP JUMPDEST JUMPDEST DUP2 DUP2 LT ISZERO PUSH2 0x408C JUMPI PUSH2 0x4081 PUSH1 0x0 DUP3 PUSH2 0x4055 JUMP JUMPDEST PUSH1 0x1 DUP2 ADD SWAP1 POP PUSH2 0x406E JUMP JUMPDEST POP POP JUMP JUMPDEST PUSH1 0x1F DUP3 GT ISZERO PUSH2 0x40D1 JUMPI PUSH2 0x40A2 DUP2 PUSH2 0x3F71 JUMP JUMPDEST PUSH2 0x40AB DUP5 PUSH2 0x3F86 JUMP JUMPDEST DUP2 ADD PUSH1 0x20 DUP6 LT ISZERO PUSH2 0x40BA JUMPI DUP2 SWAP1 POP JUMPDEST PUSH2 0x40CE PUSH2 0x40C6 DUP6 PUSH2 0x3F86 JUMP JUMPDEST DUP4 ADD DUP3 PUSH2 0x406D JUMP JUMPDEST POP POP JUMPDEST POP POP POP JUMP JUMPDEST PUSH1 0x0 DUP3 DUP3 SHR SWAP1 POP SWAP3 SWAP2 POP POP JUMP JUMPDEST PUSH1 0x0 PUSH2 0x40F4 PUSH1 0x0 NOT DUP5 PUSH1 0x8 MUL PUSH2 0x40D6 JUMP JUMPDEST NOT DUP1 DUP4 AND SWAP2 POP POP SWAP3 SWAP2 POP POP JUMP JUMPDEST PUSH1 0x0 PUSH2 0x410D DUP4 DUP4 PUSH2 0x40E3 JUMP JUMPDEST SWAP2 POP DUP3 PUSH1 0x2 MUL DUP3 OR SWAP1 POP SWAP3 SWAP2 POP POP JUMP JUMPDEST PUSH2 0x4126 DUP3 PUSH2 0x30CA JUMP JUMPDEST PUSH8 0xFFFFFFFFFFFFFFFF DUP2 GT ISZERO PUSH2 0x413F JUMPI PUSH2 0x413E PUSH2 0x328F JUMP JUMPDEST JUMPDEST PUSH2 0x4149 DUP3 SLOAD PUSH2 0x3AE5 JUMP JUMPDEST PUSH2 0x4154 DUP3 DUP3 DUP6 PUSH2 0x4090 JUMP JUMPDEST PUSH1 0x0 PUSH1 0x20 SWAP1 POP PUSH1 0x1F DUP4 GT PUSH1 0x1 DUP2 EQ PUSH2 0x4187 JUMPI PUSH1 0x0 DUP5 ISZERO PUSH2 0x4175 JUMPI DUP3 DUP8 ADD MLOAD SWAP1 POP JUMPDEST PUSH2 0x417F DUP6 DUP3 PUSH2 0x4101 JUMP JUMPDEST DUP7 SSTORE POP PUSH2 0x41E7 JUMP JUMPDEST PUSH1 0x1F NOT DUP5 AND PUSH2 0x4195 DUP7 PUSH2 0x3F71 JUMP JUMPDEST PUSH1 0x0 JUMPDEST DUP3 DUP2 LT ISZERO PUSH2 0x41BD JUMPI DUP5 DUP10 ADD MLOAD DUP3 SSTORE PUSH1 0x1 DUP3 ADD SWAP2 POP PUSH1 0x20 DUP6 ADD SWAP5 POP PUSH1 0x20 DUP2 ADD SWAP1 POP PUSH2 0x4198 JUMP JUMPDEST DUP7 DUP4 LT ISZERO PUSH2 0x41DA JUMPI DUP5 DUP10 ADD MLOAD PUSH2 0x41D6 PUSH1 0x1F DUP10 AND DUP3 PUSH2 0x40E3 JUMP JUMPDEST DUP4 SSTORE POP JUMPDEST PUSH1 0x1 PUSH1 0x2 DUP9 MUL ADD DUP9 SSTORE POP POP POP JUMPDEST POP POP POP POP POP POP JUMP JUMPDEST PUSH32 0x54686520636F756E63696C2063616E6E6F742062652072656D6F766564000000 PUSH1 0x0 DUP3 ADD MSTORE POP JUMP JUMPDEST PUSH1 0x0 PUSH2 0x4225 PUSH1 0x1D DUP4 PUSH2 0x30D5 JUMP JUMPDEST SWAP2 POP PUSH2 0x4230 DUP3 PUSH2 0x41EF JUMP JUMPDEST PUSH1 0x20 DUP3 ADD SWAP1 POP SWAP2 SWAP1 POP JUMP JUMPDEST PUSH1 0x0 PUSH1 0x20 DUP3 ADD SWAP1 POP DUP2 DUP2 SUB PUSH1 0x0 DUP4 ADD MSTORE PUSH2 0x4254 DUP2 PUSH2 0x4218 JUMP JUMPDEST SWAP1 POP SWAP2 SWAP1 POP JUMP JUMPDEST PUSH32 0x546F70696320646F6573206E6F74206578697374000000000000000000000000 PUSH1 0x0 DUP3 ADD MSTORE POP JUMP JUMPDEST PUSH1 0x0 PUSH2 0x4291 PUSH1 0x14 DUP4 PUSH2 0x30D5 JUMP JUMPDEST SWAP2 POP PUSH2 0x429C DUP3 PUSH2 0x425B JUMP JUMPDEST PUSH1 0x20 DUP3 ADD SWAP1 POP SWAP2 SWAP1 POP JUMP JUMPDEST PUSH1 0x0 PUSH1 0x20 DUP3 ADD SWAP1 POP DUP2 DUP2 SUB PUSH1 0x0 DUP4 ADD MSTORE PUSH2 0x42C0 DUP2 PUSH2 0x4284 JUMP JUMPDEST SWAP1 POP SWAP2 SWAP1 POP JUMP JUMPDEST PUSH32 0x4F6E6C7920746F7069637320696E2049444C45207374617475732063616E2062 PUSH1 0x0 DUP3 ADD MSTORE PUSH32 0x652072656D6F7665640000000000000000000000000000000000000000000000 PUSH1 0x20 DUP3 ADD MSTORE POP JUMP JUMPDEST PUSH1 0x0 PUSH2 0x4323 PUSH1 0x29 DUP4 PUSH2 0x30D5 JUMP JUMPDEST SWAP2 POP PUSH2 0x432E DUP3 PUSH2 0x42C7 JUMP JUMPDEST PUSH1 0x40 DUP3 ADD SWAP1 POP SWAP2 SWAP1 POP JUMP JUMPDEST PUSH1 0x0 PUSH1 0x20 DUP3 ADD SWAP1 POP DUP2 DUP2 SUB PUSH1 0x0 DUP4 ADD MSTORE PUSH2 0x4352 DUP2 PUSH2 0x4316 JUMP JUMPDEST SWAP1 POP SWAP2 SWAP1 POP JUMP JUMPDEST PUSH32 0x54686520746F70696320646F6573206E6F742065786973740000000000000000 PUSH1 0x0 DUP3 ADD MSTORE POP JUMP JUMPDEST PUSH1 0x0 PUSH2 0x438F PUSH1 0x18 DUP4 PUSH2 0x30D5 JUMP JUMPDEST SWAP2 POP PUSH2 0x439A DUP3 PUSH2 0x4359 JUMP JUMPDEST PUSH1 0x20 DUP3 ADD SWAP1 POP SWAP2 SWAP1 POP JUMP JUMPDEST PUSH1 0x0 PUSH1 0x20 DUP3 ADD SWAP1 POP DUP2 DUP2 SUB PUSH1 0x0 DUP4 ADD MSTORE PUSH2 0x43BE DUP2 PUSH2 0x4382 JUMP JUMPDEST SWAP1 POP SWAP2 SWAP1 POP JUMP JUMPDEST PUSH32 0x4F6E6C7920564F54494E4720746F7069732063616E20626520636C6F73656400 PUSH1 0x0 DUP3 ADD MSTORE POP JUMP JUMPDEST PUSH1 0x0 PUSH2 0x43FB PUSH1 0x1F DUP4 PUSH2 0x30D5 JUMP JUMPDEST SWAP2 POP PUSH2 0x4406 DUP3 PUSH2 0x43C5 JUMP JUMPDEST PUSH1 0x20 DUP3 ADD SWAP1 POP SWAP2 SWAP1 POP JUMP JUMPDEST PUSH1 0x0 PUSH1 0x20 DUP3 ADD SWAP1 POP DUP2 DUP2 SUB PUSH1 0x0 DUP4 ADD MSTORE PUSH2 0x442A DUP2 PUSH2 0x43EE JUMP JUMPDEST SWAP1 POP SWAP2 SWAP1 POP JUMP JUMPDEST PUSH32 0x596F752063616E6E6F742066696E697368206120766F74696E6720776974686F PUSH1 0x0 DUP3 ADD MSTORE PUSH32 0x757420746865206D696E696D756D20766F746573000000000000000000000000 PUSH1 0x20 DUP3 ADD MSTORE POP JUMP JUMPDEST PUSH1 0x0 PUSH2 0x448D PUSH1 0x34 DUP4 PUSH2 0x30D5 JUMP JUMPDEST SWAP2 POP PUSH2 0x4498 DUP3 PUSH2 0x4431 JUMP JUMPDEST PUSH1 0x40 DUP3 ADD SWAP1 POP SWAP2 SWAP1 POP JUMP JUMPDEST PUSH1 0x0 PUSH1 0x20 DUP3 ADD SWAP1 POP DUP2 DUP2 SUB PUSH1 0x0 DUP4 ADD MSTORE PUSH2 0x44BC DUP2 PUSH2 0x4480 JUMP JUMPDEST SWAP1 POP SWAP2 SWAP1 POP JUMP JUMPDEST PUSH32 0x4E487B7100000000000000000000000000000000000000000000000000000000 PUSH1 0x0 MSTORE PUSH1 0x32 PUSH1 0x4 MSTORE PUSH1 0x24 PUSH1 0x0 REVERT JUMPDEST PUSH1 0x0 PUSH1 0xFF DUP3 AND SWAP1 POP SWAP2 SWAP1 POP JUMP JUMPDEST PUSH1 0x0 PUSH2 0x450A DUP3 PUSH2 0x44F2 JUMP JUMPDEST SWAP2 POP PUSH1 0xFF DUP3 SUB PUSH2 0x451D JUMPI PUSH2 0x451C PUSH2 0x3DCA JUMP JUMPDEST JUMPDEST PUSH1 0x1 DUP3 ADD SWAP1 POP SWAP2 SWAP1 POP JUMP JUMPDEST PUSH32 0x546865206F7074696F6E2063616E6E6F7420626520454D505459000000000000 PUSH1 0x0 DUP3 ADD MSTORE POP JUMP JUMPDEST PUSH1 0x0 PUSH2 0x455E PUSH1 0x1A DUP4 PUSH2 0x30D5 JUMP JUMPDEST SWAP2 POP PUSH2 0x4569 DUP3 PUSH2 0x4528 JUMP JUMPDEST PUSH1 0x20 DUP3 ADD SWAP1 POP SWAP2 SWAP1 POP JUMP JUMPDEST PUSH1 0x0 PUSH1 0x20 DUP3 ADD SWAP1 POP DUP2 DUP2 SUB PUSH1 0x0 DUP4 ADD MSTORE PUSH2 0x458D DUP2 PUSH2 0x4551 JUMP JUMPDEST SWAP1 POP SWAP2 SWAP1 POP JUMP JUMPDEST PUSH32 0x4F6E6C7920564F54494E4720746F706963732063616E20626520766F74656400 PUSH1 0x0 DUP3 ADD MSTORE POP JUMP JUMPDEST PUSH1 0x0 PUSH2 0x45CA PUSH1 0x1F DUP4 PUSH2 0x30D5 JUMP JUMPDEST SWAP2 POP PUSH2 0x45D5 DUP3 PUSH2 0x4594 JUMP JUMPDEST PUSH1 0x20 DUP3 ADD SWAP1 POP SWAP2 SWAP1 POP JUMP JUMPDEST PUSH1 0x0 PUSH1 0x20 DUP3 ADD SWAP1 POP DUP2 DUP2 SUB PUSH1 0x0 DUP4 ADD MSTORE PUSH2 0x45F9 DUP2 PUSH2 0x45BD JUMP JUMPDEST SWAP1 POP SWAP2 SWAP1 POP JUMP JUMPDEST PUSH32 0x41207265736964656E63652073686F756C6420766F7465206F6E6C79206F6E63 PUSH1 0x0 DUP3 ADD MSTORE PUSH32 0x6500000000000000000000000000000000000000000000000000000000000000 PUSH1 0x20 DUP3 ADD MSTORE POP JUMP JUMPDEST PUSH1 0x0 PUSH2 0x465C PUSH1 0x21 DUP4 PUSH2 0x30D5 JUMP JUMPDEST SWAP2 POP PUSH2 0x4667 DUP3 PUSH2 0x4600 JUMP JUMPDEST PUSH1 0x40 DUP3 ADD SWAP1 POP SWAP2 SWAP1 POP JUMP JUMPDEST PUSH1 0x0 PUSH1 0x20 DUP3 ADD SWAP1 POP DUP2 DUP2 SUB PUSH1 0x0 DUP4 ADD MSTORE PUSH2 0x468B DUP2 PUSH2 0x464F JUMP JUMPDEST SWAP1 POP SWAP2 SWAP1 POP JUMP JUMPDEST PUSH32 0x4F6E6C792049444C4520746F7069732063616E206265206F70656E20666F7220 PUSH1 0x0 DUP3 ADD MSTORE PUSH32 0x766F74696E670000000000000000000000000000000000000000000000000000 PUSH1 0x20 DUP3 ADD MSTORE POP JUMP JUMPDEST PUSH1 0x0 PUSH2 0x46EE PUSH1 0x26 DUP4 PUSH2 0x30D5 JUMP JUMPDEST SWAP2 POP PUSH2 0x46F9 DUP3 PUSH2 0x4692 JUMP JUMPDEST PUSH1 0x40 DUP3 ADD SWAP1 POP SWAP2 SWAP1 POP JUMP JUMPDEST PUSH1 0x0 PUSH1 0x20 DUP3 ADD SWAP1 POP DUP2 DUP2 SUB PUSH1 0x0 DUP4 ADD MSTORE PUSH2 0x471D DUP2 PUSH2 0x46E1 JUMP JUMPDEST SWAP1 POP SWAP2 SWAP1 POP JUMP JUMPDEST PUSH32 0x4F6E6C7920746865206D616E61676572206F722074686520636F756E63696C20 PUSH1 0x0 DUP3 ADD MSTORE PUSH32 0x63616E2063616C6C20746869732066756E6374696F6E00000000000000000000 PUSH1 0x20 DUP3 ADD MSTORE POP JUMP JUMPDEST PUSH1 0x0 PUSH2 0x4780 PUSH1 0x36 DUP4 PUSH2 0x30D5 JUMP JUMPDEST SWAP2 POP PUSH2 0x478B DUP3 PUSH2 0x4724 JUMP JUMPDEST PUSH1 0x40 DUP3 ADD SWAP1 POP SWAP2 SWAP1 POP JUMP JUMPDEST PUSH1 0x0 PUSH1 0x20 DUP3 ADD SWAP1 POP DUP2 DUP2 SUB PUSH1 0x0 DUP4 ADD MSTORE PUSH2 0x47AF DUP2 PUSH2 0x4773 JUMP JUMPDEST SWAP1 POP SWAP2 SWAP1 POP JUMP JUMPDEST PUSH32 0x496E76616C696420616464726573730000000000000000000000000000000000 PUSH1 0x0 DUP3 ADD MSTORE POP JUMP JUMPDEST PUSH1 0x0 PUSH2 0x47EC PUSH1 0xF DUP4 PUSH2 0x30D5 JUMP JUMPDEST SWAP2 POP PUSH2 0x47F7 DUP3 PUSH2 0x47B6 JUMP JUMPDEST PUSH1 0x20 DUP3 ADD SWAP1 POP SWAP2 SWAP1 POP JUMP JUMPDEST PUSH1 0x0 PUSH1 0x20 DUP3 ADD SWAP1 POP DUP2 DUP2 SUB PUSH1 0x0 DUP4 ADD MSTORE PUSH2 0x481B DUP2 PUSH2 0x47DF JUMP JUMPDEST SWAP1 POP SWAP2 SWAP1 POP JUMP JUMPDEST PUSH32 0x5265736964656E636520646F6573206E6F742065786973740000000000000000 PUSH1 0x0 DUP3 ADD MSTORE POP JUMP JUMPDEST PUSH1 0x0 PUSH2 0x4858 PUSH1 0x18 DUP4 PUSH2 0x30D5 JUMP JUMPDEST SWAP2 POP PUSH2 0x4863 DUP3 PUSH2 0x4822 JUMP JUMPDEST PUSH1 0x20 DUP3 ADD SWAP1 POP SWAP2 SWAP1 POP JUMP JUMPDEST PUSH1 0x0 PUSH1 0x20 DUP3 ADD SWAP1 POP DUP2 DUP2 SUB PUSH1 0x0 DUP4 ADD MSTORE PUSH2 0x4887 DUP2 PUSH2 0x484B JUMP JUMPDEST SWAP1 POP SWAP2 SWAP1 POP JUMP JUMPDEST PUSH32 0x54686520636F6E7375656C6F72206D7573742062652061207265736964656E74 PUSH1 0x0 DUP3 ADD MSTORE POP JUMP JUMPDEST PUSH1 0x0 PUSH2 0x48C4 PUSH1 0x20 DUP4 PUSH2 0x30D5 JUMP JUMPDEST SWAP2 POP PUSH2 0x48CF DUP3 PUSH2 0x488E JUMP JUMPDEST PUSH1 0x20 DUP3 ADD SWAP1 POP SWAP2 SWAP1 POP JUMP JUMPDEST PUSH1 0x0 PUSH1 0x20 DUP3 ADD SWAP1 POP DUP2 DUP2 SUB PUSH1 0x0 DUP4 ADD MSTORE PUSH2 0x48F3 DUP2 PUSH2 0x48B7 JUMP JUMPDEST SWAP1 POP SWAP2 SWAP1 POP JUMP JUMPDEST PUSH32 0x546865207265736964656E636520646F6573206E6F7420657869737473000000 PUSH1 0x0 DUP3 ADD MSTORE POP JUMP JUMPDEST PUSH1 0x0 PUSH2 0x4930 PUSH1 0x1D DUP4 PUSH2 0x30D5 JUMP JUMPDEST SWAP2 POP PUSH2 0x493B DUP3 PUSH2 0x48FA JUMP JUMPDEST PUSH1 0x20 DUP3 ADD SWAP1 POP SWAP2 SWAP1 POP JUMP JUMPDEST PUSH1 0x0 PUSH1 0x20 DUP3 ADD SWAP1 POP DUP2 DUP2 SUB PUSH1 0x0 DUP4 ADD MSTORE PUSH2 0x495F DUP2 PUSH2 0x4923 JUMP JUMPDEST SWAP1 POP SWAP2 SWAP1 POP JUMP JUMPDEST PUSH32 0x57726F6E672076616C7565000000000000000000000000000000000000000000 PUSH1 0x0 DUP3 ADD MSTORE POP JUMP JUMPDEST PUSH1 0x0 PUSH2 0x499C PUSH1 0xB DUP4 PUSH2 0x30D5 JUMP JUMPDEST SWAP2 POP PUSH2 0x49A7 DUP3 PUSH2 0x4966 JUMP JUMPDEST PUSH1 0x20 DUP3 ADD SWAP1 POP SWAP2 SWAP1 POP JUMP JUMPDEST PUSH1 0x0 PUSH1 0x20 DUP3 ADD SWAP1 POP DUP2 DUP2 SUB PUSH1 0x0 DUP4 ADD MSTORE PUSH2 0x49CB DUP2 PUSH2 0x498F JUMP JUMPDEST SWAP1 POP SWAP2 SWAP1 POP JUMP JUMPDEST PUSH32 0x596F752063616E6E6F74207061792074776963652061206D6F6E746800000000 PUSH1 0x0 DUP3 ADD MSTORE POP JUMP JUMPDEST PUSH1 0x0 PUSH2 0x4A08 PUSH1 0x1C DUP4 PUSH2 0x30D5 JUMP JUMPDEST SWAP2 POP PUSH2 0x4A13 DUP3 PUSH2 0x49D2 JUMP JUMPDEST PUSH1 0x20 DUP3 ADD SWAP1 POP SWAP2 SWAP1 POP JUMP JUMPDEST PUSH1 0x0 PUSH1 0x20 DUP3 ADD SWAP1 POP DUP2 DUP2 SUB PUSH1 0x0 DUP4 ADD MSTORE PUSH2 0x4A37 DUP2 PUSH2 0x49FB JUMP JUMPDEST SWAP1 POP SWAP2 SWAP1 POP JUMP JUMPDEST PUSH32 0x5468697320746F70696320646F6573206E6F7420657869737473000000000000 PUSH1 0x0 DUP3 ADD MSTORE POP JUMP JUMPDEST PUSH1 0x0 PUSH2 0x4A74 PUSH1 0x1A DUP4 PUSH2 0x30D5 JUMP JUMPDEST SWAP2 POP PUSH2 0x4A7F DUP3 PUSH2 0x4A3E JUMP JUMPDEST PUSH1 0x20 DUP3 ADD SWAP1 POP SWAP2 SWAP1 POP JUMP JUMPDEST PUSH1 0x0 PUSH1 0x20 DUP3 ADD SWAP1 POP DUP2 DUP2 SUB PUSH1 0x0 DUP4 ADD MSTORE PUSH2 0x4AA3 DUP2 PUSH2 0x4A67 JUMP JUMPDEST SWAP1 POP SWAP2 SWAP1 POP JUMP JUMPDEST PUSH32 0x4F6E6C792049444C4520746F706963732063616E206265206564697465640000 PUSH1 0x0 DUP3 ADD MSTORE POP JUMP JUMPDEST PUSH1 0x0 PUSH2 0x4AE0 PUSH1 0x1E DUP4 PUSH2 0x30D5 JUMP JUMPDEST SWAP2 POP PUSH2 0x4AEB DUP3 PUSH2 0x4AAA JUMP JUMPDEST PUSH1 0x20 DUP3 ADD SWAP1 POP SWAP2 SWAP1 POP JUMP JUMPDEST PUSH1 0x0 PUSH1 0x20 DUP3 ADD SWAP1 POP DUP2 DUP2 SUB PUSH1 0x0 DUP4 ADD MSTORE PUSH2 0x4B0F DUP2 PUSH2 0x4AD3 JUMP JUMPDEST SWAP1 POP SWAP2 SWAP1 POP JUMP INVALID LOG2 PUSH5 0x6970667358 0x22 SLT KECCAK256 DELEGATECALL PUSH4 0x129874FD PC DUP2 0xF 0xD8 SSTORE ADDRESS PUSH0 PUSH1 0x9A 0xA7 STATICCALL PUSH8 0x5E7F2324D04347D2 0x1E CALLDATACOPY 0xE2 0xBD CALLDATALOAD DUP8 PUSH5 0x736F6C6343 STOP ADDMOD SHR STOP CALLER "
        },
        "methodIdentifiers": {
          "addResident(address,uint16)": "b1583546",
          "addTopic(string,string,uint8,uint256,address)": "43b8c6b1",
          "closeVoting(string)": "8fc5dad8",
          "counselors(address)": "4de53265",
          "editTopic(string,string,uint256,address)": "eaf5d9dc",
          "getManager()": "d5009584",
          "getQuota()": "1df8ba77",
          "getTopic(string)": "474502d8",
          "isResident(address)": "68aca335",
          "manager()": "481c6a75",
          "monthlyQuota()": "783bb57d",
          "numberOfVotes(string)": "2f9f21fe",
          "openVoting(string)": "9e1bf985",
          "payQuota(uint16)": "c12e8063",
          "payments(uint16)": "1794230c",
          "removeResident(address)": "597de987",
          "removeTopic(string)": "7b57ee49",
          "residenceExists(uint16)": "967d59e4",
          "residences(uint16)": "bc2f89f3",
          "residents(address)": "e4d65d54",
          "setConsuelor(address,bool)": "b7f59c99",
          "topicExists(string)": "78b5749d",
          "topics(bytes32)": "0f2fbeec",
          "transfer(string,uint256)": "12cb70c7",
          "vote(string,uint8)": "90ca27f3",
          "votes(bytes32,uint256)": "0847a4fb"
        }
      }
    }
  }
}